:02000002D0002C
:1040000000400D00F4700D00000006000C000501DA
:084010000401BD0B00000000DB
:04401800E4680D004B
:10401C0009480A49884208B505D0094A824202D0AB
:10402C00121A02F0FDFA0748074A0021121A02F090
:10403C001FFB014808BD00BF84E4032064700D0021
:10404C00ECE40320ECE40320F0E7032070B5074E0A
:10405C00074C01F08DF9A41BA4080025A54200D142
:10406C0070BD56F8043B98470135F7E730700D00EA
:10407C0058700D0000F05CB808B500F0E5F8BDE82C
:10408C00084001F037B900F085BF00F083BF00F0A5
:10409C0089BF000008B5034A00210C2000F0D6FEB1
:1040AC00FEE700BFE94B0D000078B0FA80F0400944
:1040BC0070470123037070477047000038B584695E
:1040CC000A4B036005467CB16368013B63605BB9D6
:1040DC00236820469B689847A368013BA3601BB9E3
:1040EC0023682046DB689847284638BD7C6D0D0058
:1040FC0010B50446006808B100F054FF204610BD0E
:10410C000EB403B503AB002153F8042B019301F05B
:10411C006EF802B05DF804EB03B0704710B50446BE
:10412C00FFF7CCFF20461C2101F095FF204610BD67
:10413C002DE9F84301F03CFA4FF4165101F028FA3E
:10414C00002000F05BFD4FF00009804643F69726F7
:10415C000027002000F052FDB0EB080461EB0905CC
:10416C00AF4208BFA64207D301F022FA01F014FABD
:10417C0010B900F0FFFEECE701F01AFA01F00CFAAE
:10418C000E4C0F4D0121072001F0F6FE0023606854
:10419C001A46194600F08EFE00226068114600F0A7
:1041AC0091FE28B101F004FA2946FFF7A9FFF3E7C5
:1041BC00BDE8F8430349044800F080BAB8E703208F
:1041CC008B6B0D00F4E403205CE503202DE9F0413A
:1041DC00184800F019F958BB01F0EAF91649154EC8
:1041EC00DFF86080154F00F0C7FF124800F027FC85
:1041FC000446C0B101F0DCF921460546304600F01A
:10420C003BFA414602462846FFF77AFF01F0D0F907
:10421C003946FFF775FF304600F03CFA41F2883022
:10422C0001F02EF8E1E701F0C3F90549FFF768FF4B
:10423C00BDE8F0815CE50320F8680D0013690D0002
:10424C003C690D000F690D0070B5324CFFF7BEFFD5
:10425C0000F0CCFC2268801A2F4A904214D901F04D
:10426C00A7F92E49FFF74CFF2D48012100F0B8FAB1
:10427C0038B901F09DF92B49FFF742FF284800F0AF
:10428C0009FA00F0B3FC20606421002001F081FAEF
:10429C0007EE900A244E254DF8EEE77AC6ED007A2B
:1042AC0000F0A4FC2A68801A41F2707290421BD96B
:1042BC001B4800F027F9A0B1306802F047F941EC37
:1042CC00100B02211A4800F017FC01F071F904469A
:1042DC00306802F03BF902460B4620461549FFF7C1
:1042EC000FFF00F083FC28600D4D134C4FF47A71D6
:1042FC00284600F0FEF958B1A042F7D1601D02F03B
:10430C007DF90E4BC1B21860072001F046FEEDE7B7
:10431C0070BD00BF54E50320C0D401004D690D00F1
:10432C005CE503205C690D003CE6032058E50320A6
:10433C0030E603206C690D00F4E40320F0E4032064
:10434C0010B5D421044601F086FE204610BD0000B5
:10435C0073B51E4E1E4D1F4C304601F04FFC2A46C5
:10436C001D49304601F072FE1C4B00931C491D4B3D
:10437C0040F25B72204600F0F9F81B4B2360C4F846
:10438C00D0602A461949204601F060FE2146184AA1
:10439C001848002300F0AAFB2146174A174C18486E
:1043AC00002300F0C5FB00232360A380A371A3F5B9
:1043BC008033A360022000F059FD12492A462046A2
:1043CC0002B0BDE8704001F041BE00BF38E50320EB
:1043DC00ECE403205CE50320C9400D0096690D0058
:1043EC0086690D007F690D00F0690D00C5400D0058
:1043FC00B7690D0030E60320CE690D002CE50320D3
:10440C00F4E40320FD400D0008B5D0F8D00003689B
:10441C001B6B9847003818BF012008BDF8B506463D
:10442C000F461446C4B1D6F8D00003681B6B9847EE
:10443C0008B90020F8BDD6F8D000FA2C0368254640
:10444C00A8BFFA25DB682A463946984783B2E41A96
:10445C009D42A4B2E6D0ECE70120EBE72DE9F8434E
:10446C000646884691461F461D460024D6F8D000C5
:10447C0003681B6B9847D0B1002D18DBD6F8D00021
:10448C0003681B69984760B1D6F8D00003685B6974
:10449C00984708F804000134A4B24C4507D03D46B7
:1044AC00ECE70A3D0A202DB200F0EAFEDEE72046DA
:1044BC00BDE8F88370B5044600F122059622002170
:1044CC00284602F0D5F86168284602F03BF9D4F88A
:1044DC00D0002289036829465E6A0023B047003861
:1044EC0018BF012070BD10B50446D0F8D000036889
:1044FC001B6B984720B1D4F8D0000368DB6A98474F
:10450C00012010BD70B503689B6804469847C8B974
:10451C00204600F094FA042570B1013D15F0FF051A
:10452C000AD0204600F0B6F841F2883000F0A8FE20
:10453C00204600F084FAEFE7236820469B68BDE82C
:10454C007040184770BD37B504460846019102F01B
:10455C0001F903122370607085B2023401992A4666
:10456C00204602F021F9601903B030BD30B502814C
:10457C000A4A0B4DC0E90323039B43610023C0E9A6
:10458C000051C0E92F33C0E93133C0E90633C0F81C
:10459C00CC300384A0F8B83030BD00BF5B690D008F
:1045AC00FC6B0D002DE9F74F164602681BB297699C
:1045BC000193012205460C46B847C7B2012F019B57
:1045CC0003D0002003B0BDE8F08F04F1010804F122
:1045DC00040A4FF000092A680193D2F818B041463A
:1045EC0001222846D847C0B20128EAD1C2454FEA79
:1045FC00C710E6D018F8012B019B02F07F0112F0D6
:10460C00800F01FB079916D1A8EB0404A7B2341B49
:10461C002A68013C4C45D2F818A03DBF06F1FF3288
:10462C00D21B92B21FFA89F241462846D047C0B23B
:10463C00384480B2C6E70746CDE700002DE9F041CB
:10464C00DFF8308005460C4616461F463B46962240
:10465C0021462846FFF7A6FF48B12378B6EB131F77
:10466C0005D000F0A5FF414600F099FDEEE7BDE84E
:10467C00F08100BF0C6A0D000231C9B209299ABF42
:10468C00024B53F821000248704700BF186C0D0014
:10469C001D6A0D0010B5E02380F82230014600237E
:1046AC0080F8233051F8223B04465B69022298477C
:1046BC00236820461B69BDE81040184700F1BC0276
:1046CC0030B5134600F1D00453F8045B8D4209D089
:1046DC00A342F9D1002352F8044B2CB900EB830010
:1046EC00C0F8BC10012003E00133052BF3D10020EE
:1046FC0030BD2DE9F04F00F122098BB285B0962226
:10470C0049460546FFF74EFF0646F0B195F8257071
:10471C00009705F1BC0A4FF0000805F1260B5AF87A
:10472C00044B6CB121680191084602F013F8B842B1
:10473C0006D101993A46584602F014F8002845D0A3
:10474C0008F10108B8F1050FE9D100203BE0EA19A6
:10475C0092F8260092F827A04AEA002A1422002197
:10476C00601D01F085FF009BC3F57F44FC3426449B
:10477C0005EB8808A6EB0B06B6B2152ED8F8BC00D4
:10478C0007F1040128BF1326594432464944053029
:10479C0001F054FFD8F8BC305E8395F8223003F05A
:1047AC000603022B0DD14FF41073ADF80C302B68AF
:1047BC009AFA9AFA5B69ADF80EA0042203A928466E
:1047CC009847D8F8BC0005B0BDE8F08F95F822B03A
:1047DC000BF0060BBBF1020FB9D082468346BDE746
:1047EC002DE9F84304460D464FF0000800F122076E
:1047FC004FF0C009E5B1236884F8229084F8238037
:10480C005B690222394620469847064668B14FF448
:10481C00FA730D2239462046FFF710FF94F8223028
:10482C00D02B02D13046BDE8F883013DEDB2E1E773
:10483C002E46F7E738B505460846102300F8023B2C
:10484C000C462949FFF77FFE0423037002234370B3
:10485C00AB698BB11B787BB10623437095F8203084
:10486C00012B39D10E23437095F82130012B02BF57
:10487C00437843F0200343702B691B781BB14378BA
:10488C0063F07F0343706B691B781BB1437843F073
:10489C0040034370012383702C23C370E9680B78A9
:1048AC00F3B10430FFF74FFEA96931B10B7823B196
:1048BC00FFF749FEE969FFF746FE29690B780BB152
:1048CC00FFF741FE69690B780BB1FFF73CFE001B4B
:1048DC00C0B2831E637038BD022BC5D11E23C2E744
:1048EC00037143710630DFE72B6A0D002DE9F743A6
:1048FC00054610460E469846019201F02BFF9DF896
:10490C002C90BDF82870019984B2B9F1000F35D103
:10491C0002344FEA49033046A4B243F030033C441E
:10492C0000F8013BA4B2224604F07F037F2A88BF23
:10493C0043F080037F2A00F8013B4FEAD414F2D8ED
:10494C00FFF701FE0346B9F1000F0CD0B5F8B82003
:10495C00120A0270B5F8B8204270B5F8B8200132CE
:10496C000233A5F8B8203A464146184601F066FED7
:10497C003844801B80B203B0BDE8F0830434C8E730
:10498C0073B59DF8186000F122050446CDE9003698
:10499C0013460A462946FFF7A9FF236802465B69BE
:1049AC0029462046984710B9002002B070BD002E51
:1049BC00FBD04FF4FA73962229462046FFF7F2FDFE
:1049CC000428F1D194F822301B11042BECD1A38CC8
:1049DC00B4F8B8005BBA01339BB2C31A58425841C1
:1049EC00E3E730B585B0044610461D4603910292AC
:1049FC0001F0B0FEDDE9022183B200952046FFF7FD
:104A0C00BFFF05B030BD38B51D4682230B70B0F822
:104A1C00B8301B0A8B70B0F8B830CB70B0F8B83027
:104A2C000C460133A0F8B8301146201DFFF78BFD62
:104A3C0000F8015B001BC0B2831E637038BD2DE90A
:104A4C00F0410368DB680446984700284BD004F11A
:104A5C00220529462046FFF7EDFE236882B25B69EA
:104A6C0029462046984700283DD041F27073962283
:104A7C0029462046FFF796FDC0B2042833D1638C3B
:104A8C00B3F5087F2FD194F8250010B140B2BDE8E2
:104A9C00F08104F1BC0704F1D00857F8043BF3B1E2
:104AAC00032657F8042C2946137912682046FFF781
:104ABC00AAFF236882B25B6929462046984790B1C9
:104ACC004FF4FA73092229462046FFF7B7FD30B997
:104ADC00013E16F0FF06E4D16FF00100D7E7B845B0
:104AEC00DBD10020D3E74FF0FF30D0E710B5C0E9A1
:104AFC000012037210BD0000D0B557EC106B90B0D3
:104B0C0004460B4600220949684600F053FA324627
:104B1C003B46694605A800F04DFAD4E90001237A1A
:104B2C0005AAFFF75EFF10B0D0BD00BF306A0D00C4
:104B3C0010B503710023C0E90833C0E90A3341639F
:104B4C0002604383C361036310BD000008B500F02D
:104B5C0015F8014B186008BD40E6032008B5024B60
:104B6C001B689B68019308BD6802030008B5024BE3
:104B7C001B68DB68019308BD6802030008B5024B93
:104B8C001B681B68019308BD2C02030008B5024B7F
:104B9C001B689B68019308BD2C02030008B5024BEF
:104BAC001B68DB68019308BD2C02030008B5024B9F
:104BBC001B681B69019308BD2C02030008B5024B4E
:104BCC001B685B69019308BD6C02030008B5024BBE
:104BDC001B685B68019308BD1802030008B5024B03
:104BEC001B68DB68019308BD1802030008B5024B73
:104BFC001B685B69019308BD1802030008B5024BE2
:104C0C001B68DB6D019308BD1802030008B5024B4D
:104C1C001B685B6C019308BD4802030008B5024B8E
:104C2C001B689B6C019308BD4802030008B5024B3E
:104C3C001B685B69019308BD6402030008B5024B55
:104C4C001B681B6A019308BD6402030008B5024B84
:104C5C001B689B6A019308BD6402030008B5024BF4
:104C6C001B681B68019308BD3C02030008B5024B8E
:104C7C001B68DB68019308BD3C02030008B5024BBE
:104C8C001B681B69019308BD3C02030008B5024B6D
:104C9C001B685B69019308BD3C02030008B5024B1D
:104CAC001B689B69019308BD3C02030008B5024BCD
:104CBC001B68DB69019308BD3C02030008B5024B7D
:104CCC001B681B6A019308BD3C02030008B5024B2C
:104CDC001B689B6A019308BD3C02030008B5024B9C
:104CEC001B681B6A019308BD2802030008B5024B20
:104CFC001B685B6A019308BD2802030008B5024BD0
:104D0C001B689B6A019308BD2802030008B5024B7F
:104D1C001B68DB6A019308BD2802030008B5024B2F
:104D2C001B681B6B019308BD2802030008B5024BDE
:104D3C001B685B6B019308BD2802030008B5024B8E
:104D4C001B681B6C019308BD2802030008B5024BBD
:104D5C001B689B69019308BD3802030008B5024B20
:104D6C001B68DB69019308BD3802030008B5024BD0
:104D7C001B681B6A019308BD3802030008B5024B7F
:104D8C001B689B6A019308BD3802030008B5024BEF
:104D9C001B681B6B019308BD3802030008B5024B5E
:104DAC001B689B6B019308BD3802030008B5024BCE
:104DBC001B68DB69019308BD3002030008B5024B88
:104DCC001B681B6A019308BD3002030008B5024B37
:104DDC001B681B68019308BD4C02030008B5024B0D
:104DEC001B685B68019308BD4C02030008B5024BBD
:104DFC001B681B69019308BD4C02030008B5024BEC
:104E0C001B685B69019308BD4C02030008B5024B9B
:104E1C001B689B69019308BD4C02030008B5024B4B
:104E2C001B68DB69019308BD4C02030008B5024BFB
:104E3C001B681B6A019308BD4C02030008B5024BAA
:104E4C001B689B6A019308BD4C02030008B5024B1A
:104E5C001B685B6B019308BD6002030008B5024B35
:104E6C001B681B6D019308BD6002030008B5024B63
:104E7C001B685B68019308BD2002030008B5024B58
:104E8C001B685B69019308BD2002030008B5034B46
:104E9C001B68D3F88830019308BD00002002030082
:104EAC0008B5034B1B68D3F89430019308BD000080
:104EBC002002030008B5024B1B685B68019308BD18
:104ECC004002030008B5024B1B689B68019308BDA8
:104EDC004002030008B5024B1B68DB68019308BD58
:104EEC004002030008B5024B1B681B69019308BD07
:104EFC004002030008B5024B1B685B69019308BDB7
:104F0C004002030008B5024B1B689B69019308BD66
:104F1C004002030008B5024B1B68DB69019308BD16
:104F2C004002030008B5024B1B681B6A019308BDC5
:104F3C004002030008B5024B1B681B6B019308BDB4
:104F4C004002030008B5024B1B685B6B019308BD64
:104F5C004002030008B5024B1B681B6C019308BD93
:104F6C004002030008B5024B1B685B6C019308BD43
:104F7C004002030008B5024B1B689B68019308BDF7
:104F8C004402030008B5024B1B68DB6B019308BDA0
:104F9C004402030008B5024B1B681B68019308BD53
:104FAC001C02030008B5024B1B685B68019308BD2B
:104FBC001C02030008B5024B1B68DB68019308BD9B
:104FCC001C02030008B5024B1B685B6A019308BD09
:104FDC001C02030008B5024B1B68DB6B019308BD78
:104FEC001C02030008B5024B1B685B6C019308BDE7
:104FFC001C020300002240681146FFF793BF0022F9
:10500C0040681146FFF79EBF40680022FFF792BF31
:10501C004068002281F00101FFF77CBF002340684B
:10502C001A461946FFF76EBF002340681A46194608
:10503C00FFF760BF002240681146FFF753BF002204
:10504C0040681146FFF73EBF406800220221FFF77F
:10505C0041BF002340681A46FFF72CBF024B0322C6
:10506C005A60024A1A60704744E60320486C0D00EF
:10507C0010B5044608462170FFF798FE00236360C4
:10508C00204610BD10B5094B094C022200201A60B5
:10509C00084B2060A080A071A360FFF7E7FE2046BC
:1050AC00054A0649BDE8104000F0D0BF58E6032081
:1050BC004CE603200000FFFFECE40320FD400D0054
:1050CC0070B586B0064601AD684600F001FA0FCD0A
:1050DC00341D0FC42B682370304606B070BD10B55C
:1050EC000446006808B1FFF799FD204610BD10B5C5
:1050FC008368044613B1032201469847204610BD2D
:10510C0010B5064C002320462360FFF77FFD204698
:10511C00034A0449BDE8104000F098BF5CE6032048
:10512C00ECE40320EB500D00F8B506460D468F1845
:10513C000024BD420CD0336815F8011B9B68304627
:10514C009847031E01DB1C44F3E7002C08BF1C46E8
:10515C002046F8BD13B50446084659B1019101F03B
:10516C00F9FA23680199DB680246204602B0BDE8D3
:10517C001040184702B010BD08B5FFF7EBFF08BD93
:10518C0003689B68184738B50D210546FFF7F8FFF3
:10519C000A2104462846FFF7F3FF204438BD38B5F2
:1051AC000546FFF7D7FF04462846FFF7ECFF2044DF
:1051BC0038BD30B58BB000238DF82430012A98BF50
:1051CC000A2209AC0D46B1FBF2F101FB125303F0BC
:1051DC00FF03092B94BF30333733DBB2AA4204F8F8
:1051EC00013DEFD92146FFF7B5FF0BB030BD2DE9DE
:1051FC00F04186B000AF05460E46381D142114460A
:10520C003B60FFF7DFFE13280ED8391D2846FFF749
:10521C00A1FF04461EB12846FFF7B5FF0444204603
:10522C001837BD46BDE8F08100F1080323F00703F1
:10523C00E846ADEB030D2246411C3B686846FFF780
:10524C00C1FE69462846FFF785FF0446C546E1E7DF
:10525C00002340681A461946FFF74CBE014B024A20
:10526C001A60704760E60320846C0D00024B1A68CC
:10527C00024B1A60704700BF84E4032064E60320ED
:10528C000021FFF7FBBD10B50446FFF730FF2046A9
:10529C0010BD00000348044A04490023836000F059
:1052AC00D5BE00BF68E60320ECE4032093520D004A
:1052BC00014B1860704700BF88E4032008B50B4B06
:1052CC0043B100F075F903681B699847002801DDAC
:1052DC00AFF30080064B43B100F0E8F903681B699B
:1052EC009847002801DDAFF3008008BD00000000E6
:1052FC000000000008B5FFF7E1FFFFF777FC014B5A
:10530C00186008BDD4E703200248034A0349121A67
:10531C0001F086B900F4032004F4032060700D0042
:10532C0007B5002300931A466FF07701FFF7B8FD1D
:10533C0003B05DF804FB000007B543880A2B08D0C6
:10534C00502B0BD1094B1B684BB103B05DF804EB30
:10535C001847FFF7E5FF03B05DF804FB002300934B
:10536C001A466FF07701FFF79BFDF4E77CE603200C
:10537C0038B5124C1248134D0021FFF733FE236849
:10538C00AB42114B0CBF012200221A7002D0FFF766
:10539C00BBFF2560FFF71AFC044601F071F90B4BBB
:1053AC0013B12046AFF3008000210848FFF7EAFD57
:1053BC00BDE8384006480021FFF768BD00F4032023
:1053CC00BD520D001E1C279A78E603200000000039
:1053DC0045530D00704710B51821044600F03BFEF4
:1053EC00204610BDF0B5037D062B8DB00E4600F1A6
:1053FC0004074FF0000412D000F1080515F8011D48
:10540C000A223046FFF7D5FEAF42044419D0002CD7
:10541C00F4D02E213046FFF7B3FE0444EEE72F23E1
:10542C006A4639460A208DF80040FFF7FFFB6846B4
:10543C0001F090F933680246DB68694630469847BC
:10544C00044620460DB0F0BD10B5054B04461122A4
:10545C0040F8043B002101F00BF9204610BD00BFC1
:10546C00AC6C0D000346074A10B543F8042B01F150
:10547C00100251F8044B43F8044B9142F9D10A78CD
:10548C001A7010BDAC6C0D00037D042B04D1406868
:10549C00003818BF01207047062B07D143683BB971
:1054AC0083682BB9C3681BB90069F1E7002070470A
:1054BC000120704710B59DF8084044EA032343EAE5
:1054CC00024242EA016104234160037510BD0000F1
:1054DC0013B5054B0360CB7800938B784A78097829
:1054EC00FFF7E8FF02B010BDAC6C0D0041747047C3
:1054FC00704708B50021007CFFF788FC40EAE0709B
:10550C0008BD08B50121007CFFF780FC40EAE07083
:10551C0008BD08B5007CFFF771FC20EAE07008BDFF
:10552C0008B5007CFFF762FC20EAE07008BD13B5FB
:10553C000446007C0191FFF761FC0028019901DC15
:10554C00607C20B1207CFFF769FC20EAE07002B09F
:10555C0010BD007CFFF76ABC10B51421044600F0A6
:10556C007AFD204610BD000010B54FF47A73044646
:10557C0008460021C4E90113044B23600123207465
:10558C0063741146FFF722FC204610BDC06C0D0061
:10559C00007C0022FFF722BC007CFFF74FBC10B54B
:1055AC0014220446002101F063F8204610BD0000CF
:1055BC0010B5104C88B003A8FFF7F1FF2178BFF3AA
:1055CC005B8F11F0010111D120460191FEF76CFDAA
:1055DC00019958B103AA0848FFF7C6FF2046FEF709
:1055EC0068FD064A0649044800F030FD024808B040
:1055FC0010BD00BF80E6032084E60320ECE403200A
:10560C00FD540D0070474174704708B5007CFFF7DE
:10561C005DFB20EAE07008BD08B5007CFFF72EFBAF
:10562C0020EAE07008BD08B5007CFFF737FB40EAC4
:10563C00E07008BD08B5007CFFF728FB40EAE0707D
:10564C0008BD007CFFF732BB37B5457C04462DB155
:10565C00207C03B0BDE83040FFF708BB007C019113
:10566C00FFF734FB00280199F2DC284603B030BD6B
:10567C0010B51421044600F0EEFC204610BD0000CD
:10568C0010B54FF0000C0446084611464FF47A72E0
:10569C00C4E901C2044A22600122207462741A46D1
:1056AC00FFF7DCFA204610BDF06C0D0013B50E4C64
:1056BC002178BFF35B8F11F0010112D120460191CB
:1056CC00FEF7F2FC019960B1084A094B0948FFF753
:1056DC00D7FF2046FEF7EDFC074A0849054800F0C5
:1056EC00B5FC044802B010BD98E603209CE60320EC
:1056FC0020E70320A4E70320ECE4032011560D005F
:10570C007047F8B5064615460C468F18BC4206D0B5
:10571C00336814F8011B9B6830469847F6E7284617
:10572C00F8BD007C0022FFF7D9BA007C0021FFF7FE
:10573C00DDBA007C0021FFF7E1BA007C0021FFF705
:10574C00E5BA007C0021FFF7E9BA10B51421044634
:10575C0000F081FC204610BD10B54FF47A7304465E
:10576C0008460021C4E90113034B23602074114641
:10577C00FFF7E4FA204610BD206D0D0010B504466D
:10578C0028B100F0A1FF90FBF4F303FB14042046B6
:10579C0010BD884210B5044603DA081AFFF7EEFF75
:1057AC000444204610BD13B503688DF80710DC6B5C
:1057BC0001224FF0FF330DF10701A04702B010BDDD
:1057CC0010B40368DC6B4FF0FF33A4465DF8044B58
:1057DC00604713B5134602688DF80710D46B0DF1B2
:1057EC0007010122A04702B010BD704738B54369CC
:1057FC001A68002A054610DAB3F88620B3F884300C
:10580C009A420AD103681B699847044628B92B6849
:10581C002846DB6A9847204638BD0120FCE74369DF
:10582C001868C043C00F704770470000064B994280
:10583C0010B500F10C0405D0084600F011FC00284E
:10584C0008BF0024204610BD7C6C0D0010B5AC21A7
:10585C00044600F000FC204610BDFEF718BC2DE9F4
:10586C00F0414FF0000886B01D46C0F80480044695
:10587C000E4617464146102202A800F0F9FE6B1C9A
:10588C0009D04FF47A70B5FBF0F3CDE9023800FB88
:10589C00135358430490606910230093006802ABC3
:1058AC0041F2050240F6FF71FFF750FA002807DAC3
:1058BC00FFF790FB03686360002006B0BDE8F08141
:1058CC006069002300683A463146FFF75FFA031E11
:1058DC00EEDB1846F1E7000070B54D69054B044648
:1058EC008C3544F8043B06460FCD0FC42B6823704F
:1058FC00304670BDAC6C0D0010B54369B3F8862012
:10590C00B3F884309A42044605D06369B3F8842016
:10591C001344187910BD03681B6998470028F4D10B
:10592C004FF0FF30F6E710B54369B3F88620B3F8B3
:10593C0084309A42044608D06369B3F88420511C21
:10594C00A3F884101344187910BD03681B69984799
:10595C000028F1D14FF0FF30F6E7F8B54369174650
:10596C00B3F88620B3F884309A4205460E4616D01A
:10597C006969B1F88430B1F88640E41ABC4228BF9A
:10598C003C46043322461944304600F049FE6A690D
:10599C00B2F884302344A2F884302046F8BD036862
:1059AC001B6998470028E3D14FF0FF34F5E74269B3
:1059BC000023A2F884304269A2F8863070472DE9A2
:1059CC00F0411F4603680C46DB6A8AB00546164652
:1059DC009847237DD5F81480042B0CBF02200A2095
:1059EC0006220121FFF7DAF9C8F800006B691B6881
:1059FC00002B08DA2B682846DB6A002498472046DF
:105A0C000AB0BDE8F0812846FFF7D1FFB7B10023FB
:105A1C0003A9F8B20393ADF81030FFF7CFF80028C4
:105A2C00E8D1686906230093006803AB41F20B02CE
:105A3C0040F6FF71FFF78AF90028DBD11C22002108
:105A4C0003A800F015FE237D042B1DD14FF4077322
:105A5C003046ADF80C30FFF7F9F8ADF80E00606881
:105A6C00FFF7ECF804906B691C22186803A9FFF788
:105A7C007DF90028BED104340FCC6D698C350FC56F
:105A8C0023682B700124BAE740F61C233046ADF88E
:105A9C000C30FFF7DBF805AEADF80E00231D04F15A
:105AAC00140718685968324603C20833BB421646BD
:105ABC00F7D1D8E730B54269B2F886308BB00446DE
:105ACC002BB1B2F884209A4201D1FFF770FF6169C3
:105ADC000868002818DBB1F886507F2D14D80431E3
:105AEC000823C5F180022944FFF748F9002813DD8B
:105AFC006369B3F886200AB9A3F884206369B3F804
:105B0C0086201044A3F886006369B3F88600B3F8C6
:105B1C008430C01A0BB030BDFFF75CFA03680B2B56
:105B2C00F2D0FFF757FA03680B2BEDD0202300259A
:105B3C00CDE90235FFF74EFA03680193084B09498A
:105B4C00009302AA2B463220FFF788F96369186884
:105B5C00FFF704F963694FF0FF321A60D4E700BF16
:105B6C00476D0D00406D0D0010B543690446186873
:105B7C00002801DBFFF7F2F863694FF0FF321A607F
:105B8C006069112200218C3000F072FD2046BDE8C6
:105B9C001040FFF70CBF10B5002304460160C0F89D
:105BAC0084308830FFF750FC204610BD73B50023BD
:105BBC004FF47A72C0E901320E4A0361026043610C
:105BCC000446AC200191FEF75EFA051E05F10C06A9
:105BDC0008D00123C5E90133074B01992B603046EE
:105BEC00FFF7D9FF2046C4E90565FFF7E0FE02B0D8
:105BFC0070BD00BF7C6D0D00606D0D0010B54FF0D9
:105C0C00FF310446FFF7D2FF204610BD10B5044605
:105C1C000068002801DBFFF7A1F8204610BD0C300E
:105C2C00FFF7F4BF2DE9F0439846036893B00D4697
:105C3C000024DB6A06461746984728466B462246E0
:105C4C0021460094FEF792FF0546002863D1009B85
:105C5C00002B4BD05B69002B48D006A8FFF7F4FB58
:105C6C00009B5C696378022B04D1211D06A8FFF709
:105C7C0027FA26E00A2B24D11122294601A800F08C
:105C8C00F7FCA368002B38D004F108030DF1040CC9
:105C9C00183418685968624603C20833A342944604
:105CAC00F7D1062301A90CA88DF81430FFF7DAFB05
:105CBC000DF1340CBCE80F0007AC0FC4DCF800305D
:105CCC00237006A8FFF7E0FB80B1336807ADD3F86B
:105CDC002090124B0C930FCD0DAC0FC42B6823707E
:105CEC003A4643460CA93046C84705460098FEF78D
:105CFC0035FF284613B0BDE8F083E368002BC3D111
:105D0C004FF6FF70D4F81090FEF798FF8145BBD189
:105D1C0004F11401AAE72546E8E700BFAC6C0D00BE
:105D2C00002240681146FFF7DDB80022406811469A
:105D3C00FFF7F8B8002240681146FFF703B9406836
:105D4C000022FFF7F7B84068002281F00101FFF74D
:105D5C00E1B8002340681A461946FFF7D3B8002271
:105D6C0040681146FFF7AEB8406800220221FFF7E9
:105D7C00B1B8002340681A46FFF79CB8024B0422C6
:105D8C005A60024A1A607047B8E70320C86D0D00CC
:105D9C00002340681A46FFF78DB8406800220221A4
:105DAC00FFF798B8002240681146FFF78BB8002225
:105DBC0040681146FFF796B8002340681A4619460A
:105DCC00FFF798B8002340681A461946FFF79AB8AF
:105DDC0040680021FFF7BEB840680021FFF7C2B849
:105DEC004068002281F00101FFF794B8406800225E
:105DFC00FFF7A0B8002240681146FFF7A3B80022B5
:105E0C0040681146FFF78EB82DE9F043002495B099
:105E1C0016460D460746FFF717FB214618220EA81B
:105E2C00009400F025FC4023CDE90C3421466B4650
:105E3C000CAA3046FEF79AFE044600284CD10246C6
:105E4C0001216868FFF74EF80221804622466868F7
:105E5C00FFF748F8009E81462146002E3CD00029D1
:105E6C003AD17368022B03D00A2B11D0F669F4E7F0
:105E7C00B8F1000F0AD0716906A8043107ADFFF71D
:105E8C0027FB0FCD3C1D0FC42B6823704146EDE75B
:105E9C00B9F1000F01D14946E8E77469102201A855
:105EAC0000F0E6FB06238DF8143001AD04F1080375
:105EBC001834186859682A4603C20833A342154699
:105ECC00F7D101A906A807ADFFF7CCFA0FCD3C1D01
:105EDC000FC42B682370DEE70098FEF73FFE3846B0
:105EEC0015B0BDE8F0830000024B034A1A60002293
:105EFC005A607047C0E70320046E0D00232813B5C9
:105F0C0002D9002002B010BDA0F10B03022B1AD84D
:105F1C00174C2178BFF35B8F11F001010BD1204698
:105F2C000191FEF7C1F8019928B11248FFF7A0F8CA
:105F3C002046FEF7BEF80F4B1878FEF73FFF0028FF
:105F4C00DFD10120DEE7012809D800F057F8002145
:105F5C00007CFEF7EBFE80F00100C0B2D2E70938FE
:105F6C000128EED8FFF7A2FB007CFEF7A7FEF2E7B4
:105F7C00C8E70320CCE70320232838B504460D4698
:105F8C000AD8FF2908D0FFF7B9FF28B129462046C7
:105F9C00BDE83840FEF7FABD38BD38B504460D46AD
:105FAC00FEF7FCFDFF2810D0062804D84D2323FA59
:105FBC0000F0C30709D42046FFF7A0FF28B12946FB
:105FCC002046BDE83840FEF7F1BD38BD38B500239A
:105FDC00202543801423044603808560056106490F
:105FEC00284600F03AF804496060284600F035F87D
:105FFC00E060204638BD00BF386E0D0030B50F4D47
:10600C002978BFF35B8F11F0010487B013D12846B8
:10601C00FEF74AF878B101A8FFF7D8FF01AA21468C
:10602C000748FFF799FB2846FEF743F8054A06494F
:10603C00034800F00BF8024807B030BDD8E7032046
:10604C00DCE70320ECE403200D570D000B46014662
:10605C00184600F0D7BAFEF71AB8FEF716B80000CB
:10606C00014900F0F9B800BF546E0D007FB5002453
:10607C001023CDE90234036800949E698DF8044026
:10608C0015466B461268B0479DF8043003F00603C2
:10609C00062B03BF009B2B600120204604B070BD73
:1060AC000098904214BF01200620704710B5034B96
:1060BC000360044600F0CDF8204610BD946E0D0030
:1060CC0010B50446FFF7F2FF20460821FFF7C3FF87
:1060DC00204610BD2DE9F0411F46DDE90834DDF8FE
:1060EC00188098450646154607D1079900F0B4F874
:1060FC0018B165710020BDE8F0813946304600F0DA
:10610C00ABF80028F6D00123C4F800802571A371E8
:10611C00F0E738B515461C4600F09EF820B1082370
:10612C00E36006232560237138BD73B505460C4624
:10613C0001921E4600F090F850B9032E08D823683F
:10614C00019A5B692946204602B0BDE870401847A9
:10615C0002B070BD10B5034B03600446FFF7A6FFF9
:10616C00204610BDF46E0D0010B50446FFF7F2FF8B
:10617C0020460C21FFF76FFF204610BDF7B5089F96
:10618C00974205460E4614460AD0A868026808973E
:10619C00156A31462246AC4603B0BDE8F040604774
:1061AC001946019300F058F8019B0028EDD0062009
:1061BC0003B0F0BD2DE9F14F0D461946DDE90A4B50
:1061CC00DDE90CA681461746984600F045F890B1DB
:1061DC00002D3460377109DB61198A450CBF06212B
:1061EC000121B171002001B0BDE8F08F0235F9D169
:1061FC000123B371F6E7544506D15946484600F0E1
:10620C002BF808B17771EDE7D9F808000368CDE9F0
:10621C000CA6CDE90A4BDC693A4643462946A4460E
:10622C0001B0BDE8F04F60472DE9F04107460C4640
:10623C0015461E46FFF76DFF48B9B86803689F699D
:10624C002A4633462146BC46BDE8F0416047BDE8CE
:10625C00F081704700207047814208B50ED040682D
:10626C0003782A2B0CD049680B782A2B08BF0131F4
:10627C0000F05EFAB0FA80F0400908BD0120FCE79E
:10628C000020FAE781F0004102E000BF83F00043F8
:10629C0030B54FEA41044FEA430594EA050F08BFB5
:1062AC0090EA020F1FBF54EA000C55EA020C7FEA79
:1062BC00645C7FEA655C00F0E2804FEA5454D4EBF6
:1062CC005555B8BF6D420CDD2C4480EA020281EAC0
:1062DC00030382EA000083EA010180EA020281EAF8
:1062EC000303362D88BF30BD11F0004F4FEA01314A
:1062FC004FF4801C4CEA113102D0404261EB410159
:10630C0013F0004F4FEA03334CEA133302D05242DE
:10631C0063EB430394EA050F00F0A780A4F101049A
:10632C00D5F1200E0DDB02FA0EFC22FA05F28018D4
:10633C0041F1000103FA0EF2801843FA05F35941BA
:10634C000EE0A5F120050EF1200E012A03FA0EFC39
:10635C0028BF4CF0020C43FA05F3C01851EBE37163
:10636C0001F0004507D54FF0000EDCF1000C7EEB80
:10637C0000006EEB0101B1F5801F1BD3B1F5001FBE
:10638C000CD349085FEA30004FEA3C0C04F10104DD
:10639C004FEA445212F5800F80F09A80BCF1004F06
:1063AC0008BF5FEA500C50F1000041EB045141EA88
:1063BC00050130BD5FEA4C0C404141EB0101013C51
:1063CC0028BFB1F5801FE9D291F0000F04BF014640
:1063DC000020B1FA81F308BF2033A3F10B03B3F112
:1063EC0020020CDA0C3208DD02F1140CC2F10C02A2
:1063FC0001FA0CF021FA02F10CE002F11402D8BF00
:10640C00C2F1200C01FA02F120FA0CFCDCBF41EACB
:10641C000C019040E41AA2BF01EB0451294330BD9A
:10642C006FEA04041F3C1CDA0C340EDC04F1140477
:10643C00C4F1200220FA04F001FA02F340EA03004E
:10644C0021FA04F345EA030130BDC4F10C04C4F194
:10645C00200220FA02F001FA04F340EA0300294674
:10646C0030BD21FA04F0294630BD94F0000F83F4BE
:10647C00801306BF81F480110134013D4EE77FEAA1
:10648C00645C18BF7FEA655C29D094EA050F08BFED
:10649C0090EA020F05D054EA000C04BF19461046CE
:1064AC0030BD91EA030F1EBF0021002030BD5FEA12
:1064BC00545C05D14000494128BF41F0004130BD3A
:1064CC0014F580043CBF01F5801130BD01F000458E
:1064DC0045F0FE4141F470014FF0000030BD7FEA01
:1064EC00645C1ABF194610467FEA655C1CBF0B46FC
:1064FC00024650EA013406BF52EA033591EA030F13
:10650C0041F4002130BD00BF90F0000F04BF00210A
:10651C00704730B54FF4806404F132044FF000053D
:10652C004FF0000150E700BF90F0000F04BF0021B6
:10653C00704730B54FF4806404F1320410F000451C
:10654C0048BF40424FF000013EE700BF42004FEA17
:10655C00E2014FEA31014FEA02701FBF12F07F4394
:10656C0093F07F4F81F06051704732F07F4208BF4B
:10657C00704793F07F4F04BF41F40021704730B552
:10658C004FF4607401F0004521F000411CE700BF9E
:10659C0050EA010208BF704730B54FF000050AE021
:1065AC0050EA010208BF704730B511F0004502D522
:1065BC00404261EB41014FF4806404F132045FEA24
:1065CC00915C3FF4D8AE4FF003025FEADC0C18BFCD
:1065DC0003325FEADC0C18BF033202EBDC02C2F1BF
:1065EC00200300FA03FC20FA02F001FA03FE40EA51
:1065FC000E0021FA02F11444BDE600BF0A2200216C
:10660C0000F060B910B5054C13462CB10A46014692
:10661C000220AFF3008010BD2046FCE70000000014
:10662C000A44914200F1FF3300D1704710B511F8C4
:10663C00014B03F8014F9142F9D110BD884210B5BE
:10664C0001EB020402D98442234607D8431EA1421F
:10665C0008D011F8012B03F8012FF8E7024401468A
:10666C008A4200D110BD13F8014D02F8014DF7E735
:10667C0002440346934200D1704703F8011BF9E72B
:10668C0038B50D4B1D68AB6B04467BB91820FEF773
:10669C0081FC0A4A0A4BA863C0E90023094B8360BA
:1066AC000B23838101220023C0E90423AB6B00225E
:1066BC001C615A6138BD00BF88E403200E33CDAB9A
:1066CC0034126DE6ECDE0500134B10B51C68A36BA1
:1066DC007BB91820FEF75EFC104A114BA063C0E991
:1066EC000023104B83600B23838101220023C0E91C
:1066FC000423A16B0C480A694B690C4C504304FBF6
:10670C000300A2FB04345A1C044444F10000C1E908
:10671C00042020F0004010BD88E403200E33CDABE4
:10672C0034126DE6ECDE05002DF451582D7F954C9E
:10673C0010F8012B11F8013B012A28BF9A42F7D01F
:10674C00D01A7047034611F8012B03F8012B002ACD
:10675C00F9D17047034613F8012B002AFBD1181A04
:10676C000138704770B50F4E04460A448A4201D175
:10677C00002013E014F8013B985D00F003000128A1
:10678C0011F8010B355C05F0030508BF2033012D12
:10679C0008BF20301B1A02D10028E7D170BD184663
:1067AC00FCE700BF2E6F0D0010B50139034632B166
:1067BC0011F8014F03F8014B013A002CF7D11A44A0
:1067CC000021934200D110BD03F8011BF9E7000032
:1067DC002DE9F0473A4E86468C4660461CF8014B34
:1067EC00A55D15F00805F8D12D2C33D19CF800408F
:1067FC004FF0010800F1020C002B5CD0102B0CD1D7
:10680C00302C0AD19CF8000000F0DF0058284DD144
:10681C009CF8014010230CF1020C08F10047013FD9
:10682C000026B7FBF3F9304603FB197AA4F13005C7
:10683C00092D18D82C46A34224DD751C07D08145A0
:10684C001DD301D1A2451ADB00FB034001261CF825
:10685C00014BEBE72B2C08BF9CF80040A84608BF67
:10686C0000F1020CC8E7A4F14105192D01D8373C01
:10687C00E1E7A4F16105192D04D8573CDBE74FF093
:10688C00FF36E4E7731C06D12223CEF800303846DD
:10689C0042B9BDE8F087B8F1000F00D04042002AA1
:1068AC00F7D00EB10CF1FF311160F2E73024002B60
:1068BC00B3D10823B1E7302CA4D00A23ADE700BF35
:1068CC002E6F0D0013460A46014602480068FFF77A
:1068DC007FBF00BF88E403201D400D0059400D0010
:1068EC0081400D0085400D0000000000436F6E6E6E
:1068FC00656374696E6720746F204D5154542E2E4D
:10690C002E200025730A005265747279696E672017
:10691C004D51545420636F6E6E656374696F6E20B5
:10692C00696E2035207365636F6E64732E2E0A00BA
:10693C004D51545420436F6E6E6563746564210A27
:10694C000050696E67696E67204D515454200A00DF
:10695C00446973636F6E6E656374696E67200A00B9
:10696C005075626C697368696E672025302E3266CB
:10697C00200A0072617368617000696F2E61646136
:10698C0066727569742E636F6D003539383136391E
:10699C0066613362613934363336393431613333BD
:1069AC003039373665343265326300726173686131
:1069BC00702F66656564732F72616E646F6D4E75B2
:1069CC006D007261736861702F66656564732F4327
:1069DC006F6C6F7253656E64000000000000000065
:1069EC0000000000C5400D004D430D0015440D0086
:1069FC00C1440D00F3440D0029440D0069440D0001
:106A0C0044726F707065642061207061636B657493
:106A1C0000556E6B6E6F776E206572726F72004DE3
:106A2C0051545400252525642E2564660046616961
:106A3C006C656420746F2073756273637269626530
:106A4C0000436F6E6E656374696F6E206661696C6E
:106A5C006564005468652053657276657220646FB6
:106A6C006573206E6F7420737570706F7274207400
:106A7C006865206C6576656C206F6620746865208F
:106A8C004D5154542070726F746F636F6C2072652B
:106A9C00717565737465640054686520436C696531
:106AAC006E74206964656E746966696572206973B9
:106ABC0020636F7272656374205554462D382062C2
:106ACC007574206E6F7420616C6C6F7765642062D6
:106ADC007920746865205365727665720054686518
:106AEC00204D515454207365727669636520697327
:106AFC0020756E617661696C61626C6500546865C5
:106B0C00206461746120696E2074686520757365FA
:106B1C0072206E616D65206F722070617373776F78
:106B2C007264206973206D616C666F726D656400B0
:106B3C004E6F7420617574686F72697A6564207425
:106B4C006F20636F6E6E6563740045786365656472
:106B5C006564207265636F6E6E6563742072617418
:106B6C0065206C696D69742E20506C6561736520AD
:106B7C0074727920616761696E206C617465722E24
:106B8C0000596F752068617665206265656E2062BC
:106B9C00616E6E65642066726F6D20636F6E6E65DC
:106BAC006374696E672E20506C6561736520636F2A
:106BBC006E7461637420746865204D515454207355
:106BCC0065727665722061646D696E697374726149
:106BDC00746F7220666F72206D6F726520646574BD
:106BEC0061696C732E0000000000000000000000C2
:106BFC000000000000000000A1400D00A1400D00AD
:106C0C00A1400D00A1400D00A1400D00396A0D00FE
:106C1C004D6A0D001D6A0D005F6A0D00A46A0D001F
:106C2C00E96A0D00096B0D003C6B0D00566B0D00F5
:106C3C008D6B0D0000000000000000005F500D0087
:106C4C0055500D004B500D0041500D0035500D00AE
:106C5C0029500D00DD5D0D00E55D0D001D500D0092
:106C6C0015500D000B500D0001500D00155E0D0060
:106C7C0000000000000000006170700025592D25F7
:106C8C006D2D25645425483A254D3A2553257A0017
:106C9C0061736374696D6500000000000000000002
:106CAC00F1530D00E1530D00E3530D000000000003
:106CBC0000000000FD540D0065550D003B550D0006
:106CCC0035510D002D550D00FF540D000F550D00C5
:106CDC005F550D001F550D00F9540D00000000000C
:106CEC000000000011560D007D560D0055560D008C
:106CFC0035510D0025560D0041560D0033560D0033
:106D0C004F560D0013560D0017560D0000000000D5
:106D1C00000000000D570D0057570D002F570D00A8
:106D2C000F570D0037570D003F570D0047570D00FB
:106D3C004F570D00776972696E6700726563762034
:106D4C006572726F72203D20256400000000000007
:106D5C000000000035580D0059580D002B5C0D003B
:106D6C0067580D0039580D000000000000000000AD
:106D7C00C9400D0029410D00B3570D00CD570D0032
:106D8C00C15A0D0033590D0005590D00F7570D0070
:106D9C00CB590D00315C0D0067590D00755B0D0072
:106DAC00F9570D002B580D00DF570D006B580D00D7
:106DBC00E5580D0000000000000000007F5D0D0094
:106DCC00755D0D006B5D0D002D5D0D005D520D00B0
:106DDC005F5D0D00DD5D0D00E55D0D00535D0D008B
:106DEC004B5D0D00415D0D00375D0D00155E0D0016
:106DFC0000000000000000009D5D0D00A75D0D006F
:106E0C00B15D0D00BB5D0D00C55D0D00D15D0D00CC
:106E1C00DD5D0D00E55D0D00ED5D0D00F95D0D0016
:106E2C00015E0D000B5E0D00155E0D0000537431FC
:106E3C00395F53705F6D616B655F73686172656418
:106E4C005F74616700000000946E0D00396E0D00D8
:106E5C00F46E0D00686E0D00186F0D004E31305F32
:106E6C005F637878616269763131375F5F636C613B
:106E7C0073735F747970655F696E666F45000000AF
:106E8C00000000005C6E0D00B9600D00CD600D00BF
:106E9C0061620D0061620D0037610D0079600D00BB
:106EAC001F610D00E1600D00AD600D00F46E0D0072
:106EBC00C46E0D005C6E0D004E31305F5F637878F0
:106ECC00616269763132305F5F73695F636C6173E5
:106EDC00735F747970655F696E666F4500000000C2
:106EEC0000000000B86E0D0061610D0075610D00B1
:106EFC0061620D0061620D0037610D0079600D005B
:106F0C0035620D00C1610D0089610D00946E0D009C
:106F1C00206F0D00537439747970655F696E666FFC
:106F2C00000020202020202020202028282828286D
:106F3C002020202020202020202020202020202045
:106F4C00202088101010101010101010101010109D
:106F5C00101004040404040404040404101010109D
:106F6C001010104141414141410101010101010158
:106F7C0001010101010101010101010101101010C8
:106F8C00101010424242424242020202020202022B
:106F9C00020202020202020202020202021010109B
:106FAC0010200000000000000000000000000000A5
:106FBC0000000000000000000000000000000000C5
:106FCC0000000000000000000000000000000000B5
:106FDC0000000000000000000000000000000000A5
:106FEC000000000000000000000000000000000095
:106FFC000000000000000000000000000000000085
:10700C000000000000000000000000000000000074
:10701C000000000000000000000000000000000064
:10702C00000000005D430D00594B0D0069500D0030
:10703C0091500D000D510D0069520D0079520D004B
:10704C00A1520D00895D0D00F55E0D0000000000E1
:04705C000000000030
:04706000000000002C
:107064009C6C0D008CE40320000000000000000074
:10707400000000000000000000000000000000000C
:1070840000000000000000000000000000000000FC
:1070940000000000000000000000000000000000EC
:1070A40000000000000000000000000000000000DC
:1070B40000000000000000000000000000000000CC
:0870C4000000000000000000C4
:1070CC00FFFFFFFF00000102030405060708090A81
:1070DC000B0C0D0E0F101112131415161718191A7C
:0870EC001B1C1D1E1F202800C3
:0470F4007856341284
:04000003D000401CCD
:00000001FF
