:02000002B0004C
:1040000000400B0024760B00000006000C000502A7
:0840100004011F0C0000000078
:04401800A86F0B0082
:10401C0009480A49884208B505D0094A824202D0AB
:10402C00121A02F03FFF0748074A0021121A02F049
:10403C0061FF014808BD00BF34E5032094750B00F7
:10404C009CE503209CE50320F0E7032070B5074EA8
:10405C00074C02F069FAA41BA4080025A54200D164
:10406C0070BD56F8043B98470135F7E768750B00AF
:10407C0090750B0000F0D0B808B500F05FF9BDE802
:10408C00084002F009BA00F0C5BE00F0C3BE00F053
:10409C00C9BE0078B0FA80F0400970470123037064
:1040AC00704710B50446006808B100F0BBFE20460E
:1040BC0010BD0EB403B503AB002153F8042B0193D0
:1040CC0002F067F902B05DF804EB03B07047000032
:1040DC002DE9F04792B014460D46074602F030FB2E
:1040EC002146064606A801F055FB002106A801F062
:1040FC00FDF82146059008A801F04CFB012108A809
:10410C0001F0F4F8214604900AA801F043FB0221C7
:10411C000AA801F0EBF8214680460CA801F03AFB06
:10412C0003210CA801F0E2F8214681460EA801F00B
:10413C0031FB04210EA801F0D9F82146824610A8C3
:10414C0001F028FB052110A801F0D0F8CDE9008979
:10415C00CDE902A0DDE904322849DFF8B080304611
:10416C00FFF7A7FF0024E6B2B54204F1010406D91B
:10417C0002F0E6FABA5D4146FFF79BFFF3E702F067
:10418C00DFFA1F491F4DDFF88890DFF88880FFF7B2
:10419C0090FF1D48802100F0CEFB1B4800F0F1FB86
:1041AC00002606EB4602FB1D99189B5A2B808B7838
:1041BC00AB7002F0C5FAAB7800932A786B7849465D
:1041CC00FFF777FF6C782B78240244EA0344AB7832
:1041DC001C4302F0B5FA324623464146FFF769FF0D
:1041EC00B1B209482246013600F062FB402ED8D10C
:1041FC00054812B0BDE8F04700F0AEB9BC6F0B003B
:10420C00EE6F0B000CE6032010E603200B700B0086
:10421C00F06F0B0011700B0030B58FB002F090FAFC
:10422C004FF4165102F07CFA002000F007FC43F624
:10423C0098250446002000F001FC001B61F10001F0
:10424C00A84271F1000307D202F07AFA02F06CFA7C
:10425C0010B900F0CFFDEDE702F072FA02F064FA4B
:10426C004FF4FA6002F0DEF801F0F8FA01F044FBCA
:10427C0002F066FA2B49FFF71CFF01F0EFFA2A4A0D
:10428C00014609A801F014FF09A801F0C0FB01F0D8
:10429C00E5FA264A014609A801F00AFF09A801F02F
:1042AC00B6FB234904A801F0CFF804A909A801F032
:1042BC00CBF809A801F00EF9044609A84CBB01F093
:1042CC0025F90094ADF80E0002230DF10E02032126
:1042DC00184801F0A9F901F0C1FA0022154901F0C2
:1042EC003AFB02F02DFA044601F0B8FA014604A894
:1042FC0001F009FB04A909A8002201F084F8099A2D
:10430C000D492046FFF7D5FE09A800F021FE0FB09D
:10431C0030BD01F0FDF80023009302461023072165
:10432C00D6E700BF26700B002CE6032024E6032002
:10433C00ACE50320E8E5032043700B007047F0B5B3
:10434C00164691B00022C0E9002204460D460BAF80
:10435C00194606A801F078F81699384601F074F859
:10436C0033788DF81430189B0293179B2046CDE9B7
:10437C00007305AA06AB294601F070FD204611B06A
:10438C00F0BD00002DE9F043354DDFF81881354CB8
:10439C003549DFF81491354E354F91B0284601F070
:1043AC0037F93449404601F033F93349204601F0DE
:1043BC002FF91023214606A88DF8143001F044F88B
:1043CC0029460BA801F040F800240BAB009305AA7A
:1043DC0006ABCDE9014429494846FFF7B0FF324608
:1043EC003946484602F022FC0423414606A88DF8C3
:1043FC00143001F029F829460BA801F025F8204DBE
:10440C00204B01930BAB009305AA06AB1E490294FB
:10441C002846FFF794FF32463946284602F006FC40
:10442C001A4D1B4801F00BF902231A466421284649
:10443C0000F081F8324617492846174D02F0F6FB7A
:10444C00164BAB60C5E90044022000F04FFC144948
:10445C003246284611B0BDE8F04302F0E7BB00BF7E
:10446C00ACE50320D4E503205A700B009CE5032037
:10447C001B5A0B007F700B00A4700B00C9700B0053
:10448C0024E60320DD400B00CC700B0010E603206B
:10449C00E8E50320B9440B00A0E503200000FFFF72
:1044AC00AF400B00C0E503202CE6032010B50446FA
:1044BC00C06808B100F0B6FC23781BB1E07900218C
:1044CC0002F04CFB204610BD38B50446C0680D46C2
:1044DC0008B100F0A7FCA379062B0CBF0420032025
:1044EC0010FB05F080B2A08000F094FCE06028B1D5
:1044FC00A288002102F0FEFC658038BDA08060809F
:10450C00FBE737B5037805460C461BB1C079002193
:10451C0002F024FB2B78EC715BB1A0B2012101906D
:10452C0002F01CFB0198002103B0BDE8304002F002
:10453C0026BB03B030BD70B500250446164683710A
:10454C00C0E9035505700572FFF7BEFF20463146E2
:10455C00FFF7D7FF204670BDC368002B00F0A48185
:10456C002DE9F04F8379023BDBB2042B9CBFBF4A91
:10457C0052F8234085B0054688BF322400F04EFA2D
:10458C002B69C01AA042F9D3B94CAE88D4F80035C7
:10459C001BB9D4F86035002B7EDBB64CD4F8003553
:1045AC0023B9D4F86035002BC0F26E81B24CD4F82C
:1045BC000035002B00F04481EB79B04AB04C126806
:1045CC00190102EB0313575CAE495B78D1F8FC2060
:1045DC0042F08072C1F8FC20226803F01F0343EA0A
:1045EC00471301273A432260A988D5F80C80D4F8E8
:1045FC0004909F40002944D04FF0000E72464FF0BB
:10460C00A04118F801CB0820802663689B1A462B22
:10461C00FBD96268D1F808351CEA060F43EA070398
:10462C00C1F808352FD063689B1A282BFBD9D1F819
:10463C000C35013843EA07034FEA5606C1F80C352E
:10464C00E3D1AB880EF1010E1FFA8EFE7345D8D85C
:10465C004FF4307103FB01F163689B1A462BFBD9B5
:10466C006368A3EB09098945C0F0E4804FF49670A8
:10467C0000F0CCF9A988D5F80C80D4F80490002966
:10468C00BAD10A46E8E763689B1A112BCFD8636846
:10469C009B1A112BF7D9CAE7D4F86435002BBFF657
:1046AC007CAFD4F86835002BBFF677AFD4F86C35F7
:1046BC00002BBFF672AF3601331D1846009300F085
:1046CC00A9FB00283FF478AFAB88002B00F0ED80FD
:1046DC00EA68013B12FA83F702F1FF3E002348F22D
:1046EC00060248F20D011EF801CF1CF0800F0CBF22
:1046FC0093468B461CF0400F0CBF16460E461CF022
:10470C00200F0CBF9046884603F10109CDF80880B4
:10471C00019603F102081FFA89F9019E20F813B0E3
:10472C001FFA88F820F81960029E20F8186003F12F
:10473C0003081CF0100F1FFA88F80CBF93468B4629
:10474C0020F818B003F104081CF0080F1FFA88F8C1
:10475C000CBF93468B4620F818B003F105081CF0EB
:10476C00040F1FFA88F80CBF93468B4620F818B03C
:10477C0003F1080A03F1060807339BB21CF0020F81
:10478C001FFA88F80CBF93468B46CDF80CA01CF092
:10479C00010F20F818B015BF20F8131020F81320C3
:1047AC001FFA8AF3BDF80C3077459CD1591C0233A3
:1047BC0089B29BB249005B004FF400474752009A04
:1047CC00C7522E4B56081F6800221423C4F8042528
:1047DC00C4F80C25C4F80835C4F81425C4F8102501
:1047EC00C4F82005C4F82465C4F82825C4F82C2581
:1047FC00EB7907EB031C1B010121FE5C9CF80130DB
:10480C0003F01F0343EA4613C4F86035C4F80015DF
:10481C00C4F81021A160D4F81031002BFBD0002378
:10482C004FF0FF32C4F81031C4F80035C4F86025DD
:10483C0000F0F8FA00F0F2F8286105B0BDE8F08F4E
:10484C00D4F86035002BBFF6B7AED4F86435002B26
:10485C00BFF6B2AED4F86835002BBFF6ADAED4F8C7
:10486C006C35002BBFF6A8AE25E700BFD0700B004F
:10487C0000C00140001002400020024034E603203A
:10488C00001000E000ED00E0D4F86435002BBFF61A
:10489C008DAED4F86835002BBFF688AED4F86C35E5
:1048AC00002BBFF683AE06E770470423022183E793
:1048BC0043888B42F0B52DD9067AC2F30743C2F375
:1048CC000724D5B23EB1734374437543C3F3072336
:1048DC00C4F307242D0A90F806C0C768BCF1060F74
:1048EC000CBF042603264E43ACF1020CB919BCF1E3
:1048FC00060F1DD8DFE80CF0041C08040F0404009C
:10490C00BC554B708D7005E0FE2B28BFFE23BB55AC
:10491C004D708C70F0BDBB554C708D70037A120EBF
:10492C0013B9D2B2CA70F5E75A43C2F30722F9E7BA
:10493C00BB554C70E6E7037A4A1CD2B2934270B571
:10494C001ED0013B13F0FF03C4680CD0FF291FBF1E
:10495C00110201F1FF31B1FBF3F39BB204BF4FF62F
:10496C00FF71B1FBF3F325468688291B89B28E4271
:10497C0005D929785943091205F8011BF4E702728D
:10498C0070BD8288C068002102F0B4BA08B500F08E
:10499C0015F8014B186008BD34E6032008B5024B2E
:1049AC001B689B68019308BD6802030008B5024BA5
:1049BC001B68DB68019308BD6802030008B5024B55
:1049CC001B681B68019308BD2C02030008B5024B41
:1049DC001B689B68019308BD2C02030008B5024BB1
:1049EC001B68DB68019308BD2C02030008B5024B61
:1049FC001B681B69019308BD2C02030008B5024B10
:104A0C001B685B68019308BD1802030008B5024BD4
:104A1C001B68DB68019308BD1802030008B5024B44
:104A2C001B681B69019308BD1802030008B5024BF3
:104A3C001B685B69019308BD1802030008B5024BA3
:104A4C001B68DB6D019308BD1802030008B5024B0F
:104A5C001B689B68019308BD7802030008B5024BE4
:104A6C001B68DB69019308BD7802030008B5024B93
:104A7C001B681B6D019308BD7802030008B5024B3F
:104A8C001B689B6D019308BD7802030008B5024BAF
:104A9C001B681B6E019308BD7802030008B5034B1D
:104AAC001B68D3F89830019308BD0000780203000E
:104ABC0008B5034B1B68D3F8A830019308BD000060
:104ACC007802030008B5034B1B68D3F8EC30019354
:104ADC0008BD00007802030008B5034B1B68D3F82F
:104AEC00F030019308BD00007802030008B5024BBA
:104AFC001B685B6C019308BD4802030008B5024BB0
:104B0C001B689B6C019308BD4802030008B5024B5F
:104B1C001B68DB6C019308BD4802030008B5024B0F
:104B2C001B685B6D019308BD4802030008B5024B7E
:104B3C001B685B69019308BD6402030008B5024B56
:104B4C001B681B68019308BD3C02030008B5024BAF
:104B5C001B68DB68019308BD3C02030008B5024BDF
:104B6C001B681B69019308BD3C02030008B5024B8E
:104B7C001B685B69019308BD3C02030008B5024B3E
:104B8C001B689B69019308BD3C02030008B5024BEE
:104B9C001B68DB69019308BD3C02030008B5024B9E
:104BAC001B681B6A019308BD3C02030008B5024B4D
:104BBC001B689B6A019308BD3C02030008B5024BBD
:104BCC001B681B6A019308BD2802030008B5024B41
:104BDC001B685B6A019308BD2802030008B5024BF1
:104BEC001B689B6A019308BD2802030008B5024BA1
:104BFC001B68DB6A019308BD2802030008B5024B51
:104C0C001B681B6B019308BD2802030008B5024BFF
:104C1C001B685B6B019308BD2802030008B5024BAF
:104C2C001B681B6C019308BD2802030008B5024BDE
:104C3C001B68DB69019308BD3002030008B5024B09
:104C4C001B681B6A019308BD3002030008B5024BB8
:104C5C001B681B68019308BD4C02030008B5024B8E
:104C6C001B685B68019308BD4C02030008B5024B3E
:104C7C001B681B69019308BD4C02030008B5024B6D
:104C8C001B685B69019308BD4C02030008B5024B1D
:104C9C001B689B69019308BD4C02030008B5024BCD
:104CAC001B68DB69019308BD4C02030008B5024B7D
:104CBC001B681B6A019308BD4C02030008B5024B2C
:104CCC001B689B6A019308BD4C02030008B5024B9C
:104CDC001B685B6B019308BD6002030008B5024BB7
:104CEC001B681B6D019308BD6002030008B5024BE5
:104CFC001B685B68019308BD2002030008B5024BDA
:104D0C001B685B69019308BD2002030008B5034BC7
:104D1C001B68D3F88830019308BD00002002030003
:104D2C0008B5034B1B68D3F89430019308BD000001
:104D3C002002030008B5024B1B685B68019308BD99
:104D4C004002030008B5024B1B689B68019308BD29
:104D5C004002030008B5024B1B68DB68019308BDD9
:104D6C004002030008B5024B1B681B69019308BD88
:104D7C004002030008B5024B1B685B69019308BD38
:104D8C004002030008B5024B1B689B69019308BDE8
:104D9C004002030008B5024B1B68DB69019308BD98
:104DAC004002030008B5024B1B681B6A019308BD47
:104DBC004002030008B5024B1B681B6B019308BD36
:104DCC004002030008B5024B1B685B6B019308BDE6
:104DDC004002030008B5024B1B681B6C019308BD15
:104DEC004002030008B5024B1B685B6C019308BDC5
:104DFC004002030008B5024B1B689B68019308BD79
:104E0C004402030008B5024B1B68DB6B019308BD21
:104E1C004402030008B5024B1B681B68019308BDD4
:104E2C001C02030008B5024B1B685B68019308BDAC
:104E3C001C02030008B5024B1B689B68019308BD5C
:104E4C001C02030008B5024B1B685B6A019308BD8A
:104E5C001C02030008B5024B1B68DB6A019308BDFA
:104E6C001C02030008B5024B1B681B6C019308BDA8
:104E7C001C02030008B5024B1B685B6C019308BD58
:104E8C001C020300002240681146FFF78BBF002272
:104E9C0040681146FFF796BF40680022FFF78ABFB3
:104EAC004068002281F00101FFF774BF00234068C5
:104EBC001A461946FFF766BF002340681A46194682
:104ECC00FFF758BF002240681146FFF74BBF002286
:104EDC0040681146FFF736BF406800220221FFF7F9
:104EEC0039BF002340681A46FFF724BF024B032248
:104EFC005A60024A1A60704738E60320EC700B00C7
:104F0C0010B5044608462170FFF790FE002363603D
:104F1C00204610BD10B5094B094C02221A60002026
:104F2C00084BA360C4E90000FFF7E0FE2046064AE8
:104F3C000649BDE8104001F079BE00BF4CE60320E5
:104F4C0040E603200000FFFF9CE50320AF400B0070
:104F5C0010B504460068FFF765FF204610BD10B57C
:104F6C000446006808B1FFF75DFF0023C4E9013374
:104F7C00236010BD38B504460D4600680131FFF7BB
:104F8C0059FF10B1C4E90005012038BD10B5036804
:104F9C00044623B143688B4201D3012010BD204647
:104FAC00FFF7E8FF0028F9D0A368002BF5D12268A1
:104FBC001370F2E737B50D46114601920446FFF720
:104FCC00E5FF019A28B92046FFF7C9FF204603B038
:104FDC0030BDA2602946206801F064FF2268A368F6
:104FEC000021D154F2E7002313B5C0E90033044685
:104FFC008360037341B10846019101F0BBFF019935
:10500C0002462046FFF7D6FF204602B010BD13B56E
:10501C00044659B10846019101F0ACFF01990246D2
:10502C002046FFF7C7FF204602B010BDFFF797FFE1
:10503C00F9E770477047704770470000064B99427C
:10504C0010B500F10C0405D0084601F0FBFD00285A
:10505C0008BF0024204610BD68720B00064B994215
:10506C0010B500F10C0405D0084601F0EBFD00284A
:10507C0008BF0024204610BD68720B00064B9942F5
:10508C0010B500F10C0405D0084601F0DBFD00283A
:10509C0008BF0024204610BD68720B0010B56821B3
:1050AC00044601F0C8FD204610BD10B52821044669
:1050BC0001F0C1FD204610BD10B53021044601F0B1
:1050CC00BAFD204610BD682101F0B5BD282101F0C4
:1050DC00B2BD302101F0AFBD10B50446006808B177
:1050EC00FFF70CFD204610BDF0B50025EC1C8C42E2
:1050FC000DD86E1C445D875D974205D12644B142A4
:10510C0005D31D60601CF0BD01342544EEE7002082
:10511C00F9E72DE9F34704469DF828701E468946A9
:10512C0001AB90460A46016AFFF7DEFF256AB31C05
:10513C000FBB00B35F193F1A1F2F18D8DDF804906E
:10514C0009F1020AA5EB090206EB0A03121A4844FC
:10515C00211892B2E01801F0B3FE731C04F8093068
:10516C003246414604EB0A0001F09CFE2762206A9D
:10517C0002B0BDE8F0872B441F2BF8D8731C635585
:10518C00A81C25442062324685F8019041462044F3
:10519C0001F088FE236A33442362E8E7024A0021C7
:1051AC000A20FFF793BD00BF194A0B0030B40D461F
:1051BC0011461A46036809682868D3E90043A446D7
:1051CC0030BC6047012A38B5044602D10B68236015
:1051DC0003E0022A03D0032A0DD0002038BD08209A
:1051EC000D68FEF750FF03460028F0D095E8030049
:1051FC0083E80300EBE700680028EED0082101F0FB
:10520C001AFDEAE710B5013802EB410110F8013F35
:10521C001B0903F13004392C88BF03F1370402F861
:10522C00024B037803F00F0303F13004392C88BFD1
:10523C0003F13704914202F8014CE7D110BD10B5CF
:10524C008368044613B1032201469847204610BDDB
:10525C0010B504465830FFF7F2FF04F14800BDE8E2
:10526C001040FFF775BE10B54368013B0446436020
:10527C0063B903689B689847A368013BA3602BB98B
:10528C0023682046DB68BDE81040184710BDA0F12C
:10529C003003DAB2092A01D818467047A0F161032D
:1052AC00052B01D857387047A0F14103052B94BF4B
:1052BC0037384FF0FF30704710B500230370044BA4
:1052CC0004461868FFF722FC01232370204610BD0A
:1052DC0058E6032010B5037804461BB1024B18683E
:1052EC00FFF71CFC204610BD58E60320052994BF8F
:1052FC00405C0020704782B00346086849686A46E3
:10530C0003C26A4603CA18601846596002B0704757
:10531C0008B582798B799A4206D1062201F0B2FD4A
:10532C00B0FA80F0400908BD0020FCE74FF0FF33D5
:10533C00036083800020704708B50246002101609D
:10534C004160FFF7F3FF9171104608BD10B5431D86
:10535C0001391C7801F8014F834203F1FF33F8D176
:10536C0010BD70B5144688B01A460D46002948D0B9
:10537C00A4B101A9FFF7EAFF9AB103AA062101A87B
:10538C00661EFFF73FFF112E28BF1126324603A9D8
:10539C00284601F087FD0023AB55741C204608B04D
:1053AC0070BD03AA012101A8FFF72CFF3A260DF1CD
:1053BC000F0201210DF105008DF80E60FFF722FFA1
:1053CC000DF1120201210DF106008DF81160FFF7AD
:1053DC0019FF0DF1150201210DF107008DF8146074
:1053EC00FFF710FF06AA012102A88DF81760FFF73E
:1053FC0009FF8DF81A600DF11B0201210DF1090056
:10540C00BEE70C46CAE710B586B0044613460846FC
:10541C00122201A9FFF7A5FF01A92046FFF7E3FD22
:10542C00204606B010BD000010B501230361054BEA
:10543C00024603F1100153F8044B42F8044B8B4223
:10544C00F9D110BD76720B0010B50B69036101F137
:10545C001002034651F8044B43F8044B9142F9D126
:10546C0010BD10B50B460446B1B1012A01F1100272
:10547C000AD1014653F8040B41F8040B9342F9D1BD
:10548C0001232361204610BD411E12F8010D01F8C5
:10549C00010F9A42F9D1F3E7102201F02BFDF1E74D
:1054AC0038B5044615461A46FFF7DBFFA5812046A2
:1054BC0038BD000008B5026922B98089003818BFD0
:1054CC00012008BD0249102201F0DCFCF6E700BF08
:1054DC0096720B000069704738B50C4614220021F7
:1054EC00054601F007FD23691BB9A3892B802846CB
:1054FC0038BD01232B7421462B4604F1100251F8C0
:10550C00040B43F8040B9142F9D1F0E78089704702
:10551C00704708B502690B699A4206D1102201F056
:10552C00B1FCB0FA80F0400908BD0020FCE7000097
:10553C0001232DE9F3410361344B0C460646024628
:10554C0003F1100153F8040B42F8040B8B42F9D110
:10555C0044B32421204601F015FD04284FF000052A
:10556C0023D1ADF8045001AFA51C063415F8020C7C
:10557C00FFF78DFEB0F1000812DB15F8010CFFF7F8
:10558C0086FE00280CDB023540EA0810A54207F81D
:10559C00010BEBD19DF8053033739DF80430737318
:1055AC000023336102B0BDE8F0814FF010082421D4
:1055BC00204601F0E7FCA84207D8424600213046BD
:1055CC0002B0BDE8F04101F095BCB8F1000FE9D094
:1055DC00605DFFF75CFE030615D4000108F1FF388F
:1055EC00C7B206F808702421204601F0CBFC013527
:1055FC00A84208D9605DFFF74AFE40B20028A4BF5C
:10560C00384306F808000135D1E700BF76720B006D
:10561C0013B504460191FFF707FF20460199FFF7E8
:10562C0087FF204602B010BD30B49DF808501AB167
:10563C00029530BCFFF76DBD006A30BC70471FB5DA
:10564C0004461F22002101F055FC00232362009325
:10565C00062201238DF80F2019460DF10F0220466A
:10566C00FFF7E2FF204604B010BD73B50A460E46A4
:10567C0001AB016A0446FFF737FD054678B1019886
:10568C00226A4119121A2144521B204401F00AFCCF
:10569C00206A401B206231462046FFF7E6FF02B02D
:1056AC0070BD000038B54FF6FF73002504464380EB
:1056BC000E22294605700571063001F01BFC04F121
:1056CC001400FFF7B1FE04F12800FFF7ADFE04490A
:1056DC0004F13C00FFF787FC6565204638BD00BF30
:1056EC00EF6F0B0010B5D0E9063203EBC202934208
:1056FC00184606D0046824888C4203F10803F6D1BE
:10570C0010BD0020FCE700002DE9F04100260660EA
:10571C00074628200C46FEF7B6FC051E05F10C08C2
:10572C000FD00123C5E90133084B2B604046FFF72E
:10573C007BFE0FCC2E6285F8246046460FC623688C
:10574C003360C7E900853846BDE8F08138720B003C
:10575C0070B50025056006463020FEF794FC044623
:10576C0088B10123C0E90133094B03604FF6FF7385
:10577C0083810E30FFF7E0FDC4E90655C4E90855F6
:10578C00C4E90A55A57574600C343460304670BD9C
:10579C0054720B0037B50D46044601A8FFF78CFD7B
:1057AC002A68D2F802302360D2F80630636001A870
:1057BC00FFF790FD204603B030BD30B5054687B0ED
:1057CC000C4601A8FFF778FD2A68236812881B880D
:1057DC009A420DD1294602A8FFF7DCFF214604A806
:1057EC00FFF7D8FF04A902A8FFF792FD044600B901
:1057FC00002401A8FFF76EFD204607B030BD000065
:10580C0010B504465420FEF73EFC014660B100235F
:10581C00C0E90033C0E90233C0E90433C0E9063300
:10582C000362C362C363C364216019B9094A0A20C5
:10583C00FFF74CFA0020FFF709F920B1054A0021C7
:10584C000A20FFF743FA216803480022FFF744F9C6
:10585C00204610BD194A0B00195C0B0010B50B4CFF
:10586C002378BFF35B8FDB070ED42046FEF711FCC9
:10587C0050B10748FFF7C4FF2046FEF70FFC054A5E
:10588C000549034801F0D2F9014810BD50E6032048
:10589C005CE603209CE50320855A0B0030B50368B9
:1058AC00093B012B8DB004460D4611D8FFF7D6FFEE
:1058BC00A1880068FFF716FF034658B92022CDE9EE
:1058CC0004200B4A00920B4904AA3220FFF706FA77
:1058DC000DB030BD6A6D002AFAD0D4E9032105F170
:1058EC004C00CDE90312AC6D04AA03A9A047EFE765
:1058FC0047710B0020710B0008B50020FFF7A6F8CC
:10590C0000EAE07008BD13B5044600216846CDE9F5
:10591C000011FFF7A3F86B4603CB206020466160B3
:10592C0002B010BD084611B90A46FFF79FB8096AC4
:10593C000022FAE707B5084629B90A4603B05DF814
:10594C0004EBFFF79BB801210190FFF78EFE019845
:10595C000022016AF2E738B504461546FFF7E2FF6C
:10596C0000280ADB29462046FFF7E4FF002804DB69
:10597C00BDE838400020FFF789B838BD38B50023A2
:10598C000446836008200D46FEF77DFB18B12B689A
:10599C0003606B684360034BE360034B2060A360C0
:1059AC00204638BDB9510B00D1510B000B68036078
:1059BC0013B15A6801325A60704710B551F8043B64
:1059CC00044640F8043BFFF7F1FF23680BB9FFF7DF
:1059DC00E5FB204610BD10B551F8043B044640F8D9
:1059EC00043BFFF7E3FF204610BD10B551F8043B14
:1059FC00044640F8043BFFF7D9FF204610BD10B514
:105A0C000446006808B1FFF72EFC204610BD10B507
:105A1C0004460430FFF7F3FF204610BD70B5D0E903
:105A2C000053044605EBC306AE4204D0281DFFF715
:105A3C00E6FF0835F8E72068FFF7F4F9204670BD5B
:105A4C0070B5D0E90053044605EBC306AE4204D052
:105A5C00281DFFF7D4FF0835F8E72068FFF7E2F9B7
:105A6C00204670BD10B504462430FFF7E9FF04F161
:105A7C001800FFF7D3FF10BDF8B50468064624B331
:105A8C0004F14400FFF7DBFB04F13400FFF7D7FB14
:105A9C0004F12400FFF7D3FBD4E9065305EBC3074D
:105AAC00AF4204D0281DFFF7AAFF0835F8E7A0691C
:105ABC00FFF7B8F904F10C00FFF7C2FF2046FFF71F
:105ACC00ADFF5421204601F0B6F83046F8BD13B5B1
:105ADC000023D1E90042C1E900330368009304605C
:105AEC004368426001A80193FFF789FF02B010BD23
:105AFC00826810B50AB901F0A2F8BDE81040C3687D
:105B0C0018478842F8B504460D46164614D99042FB
:105B1C0013D2A2F10806751AA1F108072C44B7425A
:105B2C0018D01CB131462046FFF75FFF301DFFF740
:105B3C0066FF083E083CF2E70CD0B5420AD01CB117
:105B4C0029462046FFF751FF281DFFF758FF08355F
:105B5C000834F2E7F8BDF7B5044646686846FFF727
:105B6C0044FFD4E901739F4212DB0137002F29DD7A
:105B7C00F800FFF74FF90546F0B1D4E9001201EB3C
:105B8C00C202FFF7BEFF2068FFF74CF92560A76043
:105B9C002368626803EBC60603EBC202314606F1CA
:105BAC000800FFF7AEFF1EB169463046FFF71DFF38
:105BBC00636801336360012501A8FFF720FF2846C5
:105BCC0003B0F0BD0025DEE7F8B5D0E9004305468B
:105BDC000F4604EBC306A64205D039462046FFF714
:105BEC00ECFD08B114B9F8BD0834F4E7201DFFF73B
:105BFC0006FFD5E9003204F1080103EBC20220468E
:105C0C00FFF77FFF6B68013B6B60ECE72DE9F04120
:105C1C0005468EB003A80C46FFF74EFB2E68042EEB
:105C2C006DD007D8032E2AD003A8FFF753FB0EB074
:105C3C00BDE8F081A6F10C03042BF5D8A989204608
:105C4C00FFF750FD07460028EED0E36C002BEBD09D
:105C5C001022002107A801F04DF90D2E06978DF8A2
:105C6C001C6002D0102E40F092806B6809930623C2
:105C7C000893236D06A904F144009847D4E704A8BF
:105C8C00FFF766FD049BAA891A806968049808319D
:105C9C000230FFF730FB04A906A8FFF7A6FE06A901
:105CAC0004F11800FFF757FF054607A8FFF7A7FEFA
:105CBC00202306938DB93E4B3E49009332202B4650
:105CCC0006AA0795FFF70AF8049B29461888FEF7E1
:105CDC00E5FE05A8FFF793FEA6E7374A00920023DE
:105CEC003449079306AA0120FEF7F8FFE36A002B5C
:105CFC00EFD004A904F12400FFF7FAFEE9E7A98923
:105D0C002046FFF7EFFC064600288DD00568D5E944
:105D1C0006324FF6FF71298003EBC2029A4203D080
:105D2C0053F8080B4180F9E7D5E9037307EBC30877
:105D3C00B84504D0381DFFF762FE0837F8E700239A
:105D4C002B61D5E9067307EBC308B84504D0381DA1
:105D5C00FFF755FE0837F8E70023EB61AB72E36BF6
:105D6C0023B1314604F13400FFF7C2FE0023202298
:105D7C00CDE90623114A00920E4906AA0120FEF72E
:105D8C00ADFF314604F11800FFF71EFF4CE70F2E54
:105D9C007FF46FAF6B6809932B7A03F00102C3F3A6
:105DAC0040038DF829308DF82820082360E700BFC8
:105DBC005F710B0020710B0085710B00A2710B0041
:105DCC0013B50B460246D0E900016C4684E803008B
:105DDC0093E8030082E8030094E8030083E80300DF
:105DEC0002B010BD38B505460C46FFF7E9FFAB68AD
:105DFC00A268AA60A360EB68E268EA60E36038BD61
:105E0C0070B50E468CB0044601921D46FFF74AFC55
:105E1C0033780199237104F13C00FFF7F8F804F191
:105E2C004C06CDB1109B029502A904A80393FFF771
:105E3C00A5FD002308A904A80A93FFF7D3FF314658
:105E4C0008A8FFF7CFFF08A8FFF7F9F904A8FFF798
:105E5C00F6F920460CB070BD0695EAE72DE9F04F37
:105E6C0089B01D46DDE9124380468A469346149953
:105E7C0003930022682002910692FEF704F9061E95
:105E8C0006F10C091CD001223746C6E90122174A3B
:105E9C0047F8202B02999BF80020039B8DF81420C7
:105EAC000091524605A94846FFF7AAFF0FCD0FC730
:105EBC002B683B600FCC06F134050FC523682B60B3
:105ECC0006A94046CDE90696FFF701FE07A8FFF7A5
:105EDC0096FDD8F8001031B9054A0A2009B0BDE882
:105EEC00F04FFEF7F3BE09B0BDE8F08F1C720B004B
:105EFC00194A0B008842F8B504460D46164614D9CB
:105F0C00904213D2A2F10806751AA1F108072C448D
:105F1C00B74218D01CB131462046FFF75CFD301D4E
:105F2C00FFF76DFD083E083CF2E70CD0B5420AD0F5
:105F3C001CB129462046FFF74EFD281DFFF75FFDDB
:105F4C0008350834F2E7F8BD70B50E1E054611DDB4
:105F5C00F000FEF75FFF044658B1D5E9001201EBE3
:105F6C00C202FFF7C7FF2868FEF75CFF2C60AE602B
:105F7C00012070BD0024F6E773B5044645686846F9
:105F8C00FFF729FDD4E90113994210DA23686268FE
:105F9C0003EBC50503EBC202294605F10800FFF728
:105FAC00A9FF8DB9636801336360012606E00131F6
:105FBC002046FFF7C9FF06460028E7D101A8FFF7E6
:105FCC001EFD304602B070BD69462846FFF703FD42
:105FDC00E8E78842F8B504460D46164614D99042B7
:105FEC0013D2A2F10806751AA1F108072C44B74286
:105FFC0018D01CB131462046FFF7DFFC301DFFF7EF
:10600C00FEFC083E083CF2E70CD0B5420AD01CB1AD
:10601C0029462046FFF7D1FC281DFFF7F0FC083578
:10602C000834F2E7F8BD70B50E1E054611DDF00020
:10603C00FEF7F0FE044658B1D5E9001201EBC2029E
:10604C00FFF7C7FF2868FEF7EDFE2C60AE6001205D
:10605C0070BD0024F6E773B5044645686846FFF743
:10606C00ACFCD4E90113994210DA2368626803EBA3
:10607C00C50503EBC202294605F10800FFF7A9FF8D
:10608C008DB9636801336360012606E00131204657
:10609C00FFF7C9FF06460028E7D101A8FFF7AFFCC0
:1060AC00304602B070BD69462846FFF786FCE8E72B
:1060BC002DE9F04F1746A1B080460AA80E46FFF70F
:1060CC00FBF83C68237953B939464046FFF775FC19
:1060DC000AA8FFF7FFF8404621B0BDE8F08F3368FF
:1060EC00D3E9035305EBC303039304F1280A04F12A
:1060FC00140B039B9D4221D0D5F80090584609F112
:10610C001401FFF706FAB8B109F128015046FFF760
:10611C0000FA88B12368D9F80020534033F47F4348
:10612C000AD12022CDE915235E4A009215AA5E49B8
:10613C003220FEF7D3FDC7E70835DAE75046FFF704
:10614C00B9F960B95949012215A815ADFFF789F9BC
:10615C000FCDD446ACE80F002B68CCF80030336878
:10616C00D3E9005305EBC30B5D45A94651466ED0F0
:10617C0055F8080BFFF7CDF90028F5D004F1140AF7
:10618C005046FFF797F988B9494B48491A880132AC
:10619C0092B21A8015A8012315ADFFF781F90FCD26
:1061AC00D446ACE80F002B68CCF80030414B15936B
:1061BC002822002116A800F09DFE514604A8FFF7E6
:1061CC008BF904AB18AA0DF1200C18685968154608
:1061DC0003C5083363452A46F7D11868286023792C
:1061EC008DF85830D9F800309B8AADF87430E36BD9
:1061FC001793314B0022A11D15A8CDE91E34FEF7D3
:10620C0061FC00287FF460AF0123237034683946A9
:10621C000C340DA8FFF7D1FB20460DA9FFF71BFF8F
:10622C0004460EA8FFF7EBFB002C7FF44DAF2023A8
:10623C00CDE90D34214B00930DAA234677E739465F
:10624C004046FFF7BAFB0CA8FFF7D9FB40E70BA8B9
:10625C00FFF75AFA514615A8FFF73EF90B9A00239F
:10626C00143215A90120FEF723FC0028E7D135686C
:10627C000BA90DA8FFF7AFFB28460DA9FFF77CFE75
:10628C0005460EA8FFF7BBFB002DD8D0326853682B
:10629C00126803F10053013B0CA802EBC309FFF792
:1062AC00AEFB6BE7C1710B0020710B0086720B000B
:1062BC0054E6032003002C00A9580B00EC710B00D2
:1062CC0010B5064C002320462360FEF70FFC204639
:1062DC00034A0449BDE8104000F0A8BC58E603206E
:1062EC009CE50320E5500B00F8B506460D468F18CB
:1062FC000024BD420CD0336815F8011B9B68304656
:10630C009847031E01DB1C44F3E7002C08BF1C4616
:10631C002046F8BD13B50446084659B1019100F06A
:10632C0029FE23680199DB680246204602B0BDE8CD
:10633C001040184702B010BD03689B68184738B569
:10634C000D210546FFF7F8FF0A2104462846FFF702
:10635C00F3FF204438BD30B58BB00023012A8DF8F3
:10636C00243098BF0A2209AC0D46B1FBF2F101FBB7
:10637C00125303F0FF03092B94BF30333733DBB2D6
:10638C00AA4204F8013DEFD92146FFF7C3FF0BB039
:10639C0030BD2DE9F04186B000AF05460E46381DE4
:1063AC00142114463B60FEF74DFD13280ED8391D01
:1063BC002846FFF7AFFF04461EB12846FFF7BFFF84
:1063CC00044420461837BD46BDE8F08100F10803AF
:1063DC0023F00703E846ADEB030D2246411C3B6856
:1063EC006846FEF72FFD69462846FFF793FF0446E3
:1063FC00C546E1E7002340681A461946FEF7BABCC9
:10640C00014B024A1A60704760E60320A6720B002B
:10641C00024B1A68024B1A60704700BF34E5032028
:10642C0064E603200021FEF769BC10B50446FEF7B4
:10643C0006FF204610BD00000348044A044900230F
:10644C00836000F0F3BB00BF68E603209CE50320EB
:10645C0037640B00014B1860704700BF38E5032010
:10646C0008B50B4B43B100F06BF903681B699847F7
:10647C00002801DDAFF30080064B43B100F0DEF9DC
:10648C0003681B699847002801DDAFF3008008BD45
:10649C00000000000000000008B5FFF7E1FFFEF768
:1064AC00C5FA014B186008BDD4E703200548064A1D
:1064BC00064908B5121A00F0F5FC054B054A1A609E
:1064CC0008BD00BF00F4032004F4032090750B00FA
:1064DC0000F403201E1C279A07B5002300931A46CC
:1064EC006FF07701FEF71CFC03B05DF804FB0000B5
:1064FC0007B543880A2B08D0502B0BD1094B1B68CE
:10650C004BB103B05DF804EB1847FFF7E5FF03B0A0
:10651C005DF804FB002300931A466FF07701FEF739
:10652C00FFFBF4E77CE6032010B512480021FEF7D0
:10653C00A1FC114B1A68114B9A42114B0CBF012252
:10654C0000221A7001D0FFF7B1FFFEF757FA04468C
:10655C0000F0D8FC0B4B13B12046AFF300800021A8
:10656C000848FEF74FFCBDE8104007480021FEF735
:10657C00CDBB00BF61640B0000F403201E1C279AE6
:10658C0078E6032000000000FD640B00704710B596
:10659C001821044600F04FFB204610BDF0B5037DDA
:1065AC00062B8DB00E4600F104074FF0000412D0FC
:1065BC0000F1080515F8011D0A223046FFF7CBFE45
:1065CC00AF42044419D0002CF4D02E213046FFF7F2
:1065DC00B3FE0444EEE72F236A4639460A208DF8B1
:1065EC000040FEF7A3FA684600F0C4FC336802468C
:1065FC00DB68694630469847044620460DB0F0BD2E
:10660C0010B5054B0446112240F8043B002100F064
:10661C0071FC204610BD00BFD0720B000346074A28
:10662C0010B543F8042B01F1100251F8044B43F858
:10663C00044B9142F9D10A781A7010BDD0720B003C
:10664C0010B59DF8084044EA032343EA024242EAAB
:10665C00016104234160037510BD000007B5064BB2
:10666C000360CB7800938B784A780978FFF7E8FFC2
:10667C0003B05DF804FB00BFD0720B00417470478F
:10668C00704708B50021007CFEF700FB40EAE07083
:10669C0008BD08B50121007CFEF7F8FA40EAE0706D
:1066AC0008BD08B5007CFEF7E9FA20EAE07008BDE9
:1066BC0008B5007CFEF7DAFA20EAE07008BD13B5E5
:1066CC000446007C0191FEF7D9FA0028019901DCFF
:1066DC00607C20B1207CFEF7E1FA20EAE07002B089
:1066EC0010BD007CFEF7E2BA10B51421044600F090
:1066FC00A2FA204610BD000010B54FF47A73044680
:10670C0008460021C4E90113044B236001232074C3
:10671C0063741146FEF79AFA204610BDE4720B0022
:10672C00007C0022FEF79ABA007CFEF7C7BA10B5BF
:10673C0014220446002100F0DDFB204610BD0000B1
:10674C0010B5104C88B003A8FFF7F1FF2178BFF308
:10675C005B8F11F0010111D120460191FDF799FCDD
:10676C00019958B103AA0848FFF7C6FF2046FDF768
:10677C0095FC064A0649044800F058FA024808B04D
:10678C0010BD00BF80E6032084E603209CE50320B7
:10679C008D660B0070474174704708B5007CFEF79E
:1067AC0005FA20EAE07008BD08B5007CFEF7D6F9C2
:1067BC0020EAE07008BD08B5007CFEF7DFF940EA7E
:1067CC00E07008BD08B5007CFEF7D0F940EAE07037
:1067DC0008BD007CFEF7DAB937B5457C04462DB10F
:1067EC00207C03B0BDE83040FEF7B0B9007C0191CD
:1067FC00FEF7DCF900280199F2DC284603B030BD25
:10680C0010B51421044600F016FA204610BD000005
:10681C0010B54FF0000C0446084611464FF47A723E
:10682C00C4E901C2044A22600122207462741A462F
:10683C00FEF784F9204610BD14730B0013B50E4CF3
:10684C002178BFF35B8F11F0010112D12046019129
:10685C00FDF71FFC019960B1084A094B0948FFF785
:10686C00D7FF2046FDF71AFC074A0849054800F0F7
:10687C00DDF9044802B010BD98E603209CE6032025
:10688C0020E70320A4E703209CE50320A1670B006D
:10689C007047F8B5064615460C468F18BC4206D014
:1068AC00336814F8011B9B6830469847F6E7284676
:1068BC00F8BD007C0022FEF781B9007C0021FEF7B8
:1068CC0085B9007C0021FEF789B9007C0021FEF718
:1068DC008DB9007C0021FEF791B910B51421044646
:1068EC0000F0A9F9204610BD10B54FF47A73044698
:1068FC0008460021C4E90113034B236020741146A0
:10690C00FEF78CF9204610BD44730B000022406842
:10691C001146FEF727BA002240681146FEF742BA2C
:10692C00002240681146FEF74DBA40680022FEF77F
:10693C0041BA4068002281F00101FEF72BBA002316
:10694C0040681A461946FEF71DBA002240681146E7
:10695C00FEF7F8B9406800220221FEF7FBB90023CC
:10696C0040681A46FEF7E6B9024B04225A60024A06
:10697C001A607047B8E703206C730B000023406863
:10698C001A46FEF7D7B9406800220221FEF7E2B999
:10699C00002240681146FEF7D5B900224068114626
:1069AC00FEF7E0B9002340681A461946FEF7E2B933
:1069BC00002340681A461946FEF7E4B940680021E6
:1069CC00FEF708BA40680021FEF70CBA40680022B6
:1069DC0081F00101FEF7DEB940680022FEF7EAB94A
:1069EC00002240681146FEF7EDB9002240681146BE
:1069FC00FEF7D8B92DE9F04395B014460D4607467D
:106A0C00FFF7FEFD00211C220DA8009100F072FA88
:106A1C0040230C9320466B460CAA0021FDF7C6FFC1
:106A2C00044600284BD1024601216868FEF79AF90A
:106A3C000221804622466868FEF794F9009E814642
:106A4C002146002E3BD0002939D17368022B03D08C
:106A5C000A2B11D0F669F4E7B8F1000FFAD071697E
:106A6C0006A8043107ADFFF7F9FD0FCD3C1D0FC48F
:106A7C002B6823704146EDE7B9F1000FEAD0746939
:106A8C00102201A800F036FA06238DF8143001AD5F
:106A9C0004F108031834186859682A4603C20833ED
:106AAC00A3421546F7D101A906A807ADFFF7B6FD1D
:106ABC000FCD3C1D0FC42B6823704946CAE70098C4
:106ACC00FDF76CFF384615B0BDE8F083024B034A66
:106ADC001A6000225A607047C0E70320A8730B00AD
:106AEC00232813B502D9002002B010BDA0F10B036E
:106AFC00022B1AD8174C2178BFF35B8F11F00101D0
:106B0C000BD120460191FDF7C4FA019928B1124826
:106B1C00FEF7F6F92046FDF7C1FA0F4B1878FEF791
:106B2C008DF80028DFD10120DEE7012809D800F01C
:106B3C0055F80021007CFEF769F880F00100C0B226
:106B4C00D2E709380128EED8FFF778FE007CFEF773
:106B5C0025F8F2E7C8E70320CCE70320232838B553
:106B6C0004460D460AD8FF2908D0FFF7B9FF28B113
:106B7C0029462046BDE83840FDF728BF38BD38B55A
:106B8C0004460D46FDF72AFFFF2810D0062804D82E
:106B9C004D2323FA00F0C30709D42046FFF7A0FFCA
:106BAC0028B129462046BDE83840FDF71FBF38BD47
:106BBC0038B5202514230446036085600561064919
:106BCC00284600F03AF804496060284600F035F891
:106BDC00E060204638BD00BFDC730B0030B50F4DB4
:106BEC002978BFF35B8F11F0010487B013D12846CD
:106BFC00FDF74FFA78B101A8FFF7DAFF01AA214699
:106C0C000748FFF771FE2846FDF748FA054A064982
:106C1C00034800F00BF8024807B030BDD8E703205A
:106C2C00DCE703209CE503209D680B000B46014626
:106C3C00184600F019B9FDF72ABAFDF726BA08B5BF
:106C4C00FEF708F9014900F0F9B800BFF8730B0022
:106C5C007FB500241023CDE90234036815469E69E4
:106C6C0012686B46CDE90044B0479DF8043003F040
:106C7C000603062B03BF009B2B600120204604B0AB
:106C8C0070BD0098904214BF012006207047000090
:106C9C0010B5034B0360044600F0CDF8204610BD40
:106CAC0038740B0010B50446FFF7F2FF204608219C
:106CBC00FFF7C1FF204610BD2DE9F0411F46DDE96D
:106CCC000834DDF8188098450646154607D1079913
:106CDC0000F0B4F818B165710020BDE8F0813946B8
:106CEC00304600F0ABF80028F6D00123C4F8008041
:106CFC002571A371F0E738B515461C4600F09EF8D7
:106D0C0020B10823E36006232560237138BD73B5D9
:106D1C0005460C4601921E4600F090F850B9032E21
:106D2C0008D82368019A5B692946204602B0BDE861
:106D3C007040184702B070BD10B5034B0360044699
:106D4C00FFF7A6FF204610BD98740B0010B5044643
:106D5C00FFF7F2FF20460C21FFF76DFF204610BD18
:106D6C00F7B5089F974205460E4614460AD0A86808
:106D7C0002680897156A31462246AC4603B0BDE856
:106D8C00F04060471946019300F058F8019B002829
:106D9C00EDD0062003B0F0BD2DE9F14F0D4619469C
:106DAC00DDE90A4BDDE90CA681461746984600F052
:106DBC0045F890B1002D3460377109DB61198A45B3
:106DCC000CBF06210121B171002001B0BDE8F08F8C
:106DDC000235F9D10123B371F6E7544506D1594672
:106DEC00484600F02BF808B17771EDE7D9F80800A8
:106DFC000368CDE90CA6CDE90A4BDC693A4643465B
:106E0C002946A44601B0BDE8F04F60472DE9F0419A
:106E1C0007460C4615461E46FFF76DFF48B9B86885
:106E2C0003689F692A4633462146BC46BDE8F041BB
:106E3C006047BDE8F081704700207047814208B57B
:106E4C000ED0406803782A2B0CD049680B782A2B7B
:106E5C0008BF013100F084F8B0FA80F0400908BD99
:106E6C000120FCE70020FAE710B5054C13462CB1C5
:106E7C000A4601460220AFF3008010BD2046FCE715
:106E8C000000000010B501390244904201D10020ED
:106E9C0005E0037811F8014FA34201D0181B10BD77
:106EAC000130F2E70A44914200F1FF3300D1704700
:106EBC0010B511F8014B03F8014F9142F9D110BDF7
:106ECC00884210B501EB020402D98442234607D84C
:106EDC00431EA14208D011F8012B03F8012FF8E74B
:106EEC00024401468A4200D110BD13F8014D02F84C
:106EFC00014DF7E702440346934200D1704703F873
:106F0C00011BF9E738B5104B1D68AB6B0446B3B9E0
:106F1C001820FDF77FFF0246A86320B90B4B0C48E5
:106F2C004221FDF79FFF0B490B4BC0E900130B4BA4
:106F3C0083600B23838100210120C2E90401AB6B28
:106F4C0000221C615A6138BD38E50320D1740B0056
:106F5C00E8740B000E33CDAB34126DE6ECDE05009D
:106F6C0010F8012B11F8013B012A28BF9A42F7D0E7
:106F7C00D01A7047034613F8012B002AFBD1181ABC
:106F8C000138704710B5024601448A42134603D0BB
:106F9C001C780132002CF8D1181A10BD1D400B00C2
:106FAC0059400B0081400B0085400B000000000095
:106FBC0052656365697665642064617461206672EC
:106FCC006F6D3A20253032583A253032583A2530F8
:106FDC0032583A253032583A253032583A25303228
:106FEC0058200A00313A203078253032582C203283
:106FFC003A203078253032582C20333A20307825FE
:10700C003032580A00627974652025692C20636F30
:10701C006C6F7220253036580A0053746172746993
:10702C006E6720757020424C4520436F6E6E656311
:10703C0074696F6E200A004172676F6E20424C4576
:10704C0020416464726573733A2025730A003645D7
:10705C003430303030312D423541332D46333933D5
:10706C002D453041392D453530453234444343416B
:10707C0039450036453430303030322D42354133CD
:10708C002D463339332D453041392D453530453278
:10709C003444434341394500364534303030303385
:1070AC002D423541332D463339332D453041392D61
:1070BC0045353045323444434341394500747800FA
:1070CC00727800002C01000018000000F401000090
:1070DC002C01000050000000000000000000000027
:1070EC00EF4E0B00E54E0B00DB4E0B00D14E0B00B0
:1070FC00C54E0B00B94E0B00C9690B00D1690B00D2
:10710C00AD4E0B00A54E0B009B4E0B00914E0B0091
:10711C00016A0B00776972696E672E626C650053A9
:10712C007461727420646973636F766572696E67DB
:10713C002073657276696365732E005065657220E5
:10714C00646576696365206973206D697373696E14
:10715C006721004661696C656420746F20617070F2
:10716C00656E6420706565722043656E7472616C27
:10717C00206465766963652E00436F6E6E6563747B
:10718C0065642062792043656E7472616C2064655D
:10719C00766963652E00446973636F6E6E65637404
:1071AC0065642062792072656D6F74652064657604
:1071BC006963652E004475706C6963617465642045
:1071CC006368617261637465726973746963206367
:1071DC00616E6E6F742062652061646465642E005C
:1071EC004661696C656420746F20617070656E64B3
:1071FC00206C6F63616C206368617261637465728B
:10720C0069737469632E0000000000000000000028
:10721C0045500B00A9500B005D520B00D3500B00D6
:10722C0049500B00000000000000000041500B0012
:10723C00B7500B0043500B00D9500B0069500B009A
:10724C0000000000000000003F500B00C5500B0078
:10725C00715A0B00DF500B0089500B00000000002E
:10726C0000000000000000000000FB349B5F800069
:10727C00008000100000000000007BE327747BF806
:10728C0015ACDD49A913000072F5FB349B5F80003F
:10729C000080001000000000000061707000255993
:1072AC002D256D2D25645425483A254D3A25532519
:1072BC007A0061736374696D650000000000000062
:1072CC0000000000A9650B0099650B009B650B0085
:1072DC0000000000000000008D660B00F5660B003E
:1072EC00CB660B00F5620B00BD660B008F660B00C6
:1072FC009F660B00EF660B00AF660B0089660B00F8
:10730C000000000000000000A1670B000D680B00DE
:10731C00E5670B00F5620B00B5670B00D1670B003E
:10732C00C3670B00DF670B00A3670B00A7670B009D
:10733C0000000000000000009D680B00E7680B00D7
:10734C00BF680B009F680B00C7680B00CF680B0071
:10735C00D7680B00DF680B00000000000000000085
:10736C006B690B0061690B0057690B0019690B0005
:10737C0001640B004B690B00C9690B00D1690B0050
:10738C003F690B0037690B002D690B0023690B005B
:10739C00016A0B00000000000000000089690B006E
:1073AC0093690B009D690B00A7690B00B1690B0079
:1073BC00BD690B00C9690B00D1690B00D9690B00C1
:1073CC00E5690B00ED690B00F7690B00016A0B0016
:1073DC0000537431395F53705F6D616B655F736817
:1073EC00617265645F7461670000000038740B00A3
:1073FC00DD730B0098740B000C740B00BC740B0049
:10740C004E31305F5F637878616269763131375F16
:10741C005F636C6173735F747970655F696E666FBF
:10742C00450000000000000000740B009D6C0B0078
:10743C00B16C0B00456E0B00456E0B001B6D0B0009
:10744C005D6C0B00036D0B00C56C0B008F6C0B009F
:10745C0098740B0068740B0000740B004E31305F95
:10746C005F637878616269763132305F5F73695F30
:10747C00636C6173735F747970655F696E666F4579
:10748C0000000000000000005C740B00456D0B0058
:10749C00596D0B00456E0B00456E0B001B6D0B0000
:1074AC005D6C0B00196E0B00A56D0B006D6D0B0068
:1074BC0038740B00C4740B00537439747970655FA5
:1074CC00696E666F005245454E54206D616C6C6F51
:1074DC006320737563636565646564002F6D6E74FA
:1074EC002F776F726B73706163652F776F726B732D
:1074FC00706163652F4743432D31302D7069706582
:10750C006C696E652F6A656E6B696E732D474343AC
:10751C002D31302D706970656C696E652D34385F56
:10752C0032303230313132345F31363036313830FE
:10753C003634312F7372632F6E65776C69622F6EE0
:10754C0065776C69622F6C6962632F7374646C6904
:10755C00622F72616E642E630000000091430B0079
:10756C0099490B00F94E0B00214F0B00CD620B001B
:10757C000D640B001D640B0045640B0075690B005A
:04758C00D96A0B00AD
:0475900000000000F7
:10759400BE720B003CE50320000000000000000068
:1075A40000000000000000000000000000000000D7
:1075B40000000000000000000000000000000000C7
:1075C40000000000000000000000000000000000B7
:1075D40000000000000000000000000000000000A7
:1075E4000000000000000000000000000000000097
:0875F40000000000000000008F
:1075FC00FFFFFFFF00000102030405060708090A4C
:10760C000B0C0D0E0F101112131415161718191A46
:08761C001B1C1D1E1F2028008D
:04762400785634124E
:04000003B000401CED
:00000001FF
