:02000002D0002C
:1040000000400D00647A0D00000006000C00050160
:084010000401BD0B00000000DB
:0440180058730D00CC
:10401C0009480A49884208B505D0094A824202D0AB
:10402C00121A03F067F80748074A0021121A03F026
:10403C0089F8014808BD00BF1CE50320D4790D00A8
:10404C0084E5032084E50320F0E7032070B5074ED8
:10405C00074C02F075FBA41BA4080025A54200D157
:10406C0070BD56F8043B98470135F7E7A4790D006D
:10407C00CC790D0000F0BEB808B500F055F9BDE8DC
:10408C00084002F01FBB00F069BF00F067BF00F0F2
:10409C006DBF0078B0FA80F04009704701230370BF
:1040AC00704710B50446006808B100F05FFF204669
:1040BC0010BD0EB403B503AB002153F8042B0193D0
:1040CC0002F07DFA02B05DF804EB03B0704700001B
:1040DC002DE9F04792B014460E46054602F03AFC24
:1040EC002146074606A801F061FC002106A801F054
:1040FC00A4F92146059008A801F058FC012108A854
:10410C0001F09BF9214604900AA801F04FFC022112
:10411C000AA801F092F9214680460CA801F046FC51
:10412C0003210CA801F089F9214681460EA801F063
:10413C003DFC04210EA801F080F92146824610A80E
:10414C0001F034FC052110A801F077F9CDE90089C4
:10415C00CDE902A0DDE904322049DFF8948038462D
:10416C00FFF7A7FF0024E7B2BE4204F1010406D911
:10417C0002F0F0FBEA5D4146FFF79BFFF3E702F02C
:10418C00E9FB1749174EFFF794FF284602F092FF00
:10419C00044602F0DFFB22461349FFF78AFF114861
:1041AC0000F060FC0D21002002F0C5FC0F4B322109
:1041BC0053F820700B4800F02FFC0025E9B2A14207
:1041CC0005F1010504DC3A46304600F0E1FBF5E769
:1041DC00044800F037FA12B0BDE8F0876C730D009C
:1041EC009E730D0000E60320A3730D006C740D008C
:1041FC00A0730D002DE9F0438FB002F0ABFB4FF430
:10420C00165102F097FB002000F08AFC4FF00009D9
:10421C00804643F697260027002000F081FCB0EB87
:10422C00080461EB0905AF4208BFA64207D302F0B0
:10423C0091FB02F083FB10B900F080FEECE702F07A
:10424C0089FB02F07BFB4FF4FA6002F001FA01F0FB
:10425C000FFC01F05BFC02F07DFB2D49FFF729FF01
:10426C0001F006FC2B4A014609A802F037F809A810
:10427C0001F0DBFC01F0FCFB274A014609A802F027
:10428C002DF809A801F0D1FC244904A801F084F907
:10429C0004A909A801F080F909A801F0C3F90446A2
:1042AC0009A854BB01F0DDF90094ADF80E0002230F
:1042BC001B480DF10E02032101F060FA01F0D8FB4E
:1042CC000022174901F051FC02F044FB044601F0B6
:1042DC00CFFB014604A801F020FC04A909A8002288
:1042EC0001F038F9099A0F492046FFF7E2FE09A8B8
:1042FC0000F0CAFE0FB0BDE8F08301F0B7F900235F
:10430C000246009307211023054801F037FAD5E740
:10431C00BF730D002CE6032018E6032094E5032060
:10432C00D4E50320DC730D00F8B54FF4807002F077
:10433C00F7FB364C364E20604FF4807002F0F0FBE9
:10434C0030604FF4807002F0EBFB2768314B324C3D
:10435C001860642597FBF5F305FB137103F130022C
:10436C000A23227097FBF3F203FB1272366891FB5F
:10437C00F3F1303230316170A27096FBF5F101F13E
:10438C003002227196FBF3F203FB126205FB116102
:10439C00303291FBF3F130316171A27190FBF5F287
:1043AC0002F1300105FB120292FBF3F23032627221
:1043BC0090FBF3F203FB120030302C272172A07219
:1043CC00E3721648164DE77000230C222146E77164
:1043DC00144E01F045FA00232B7002F0BBFA2B7837
:1043EC003146E25CFFF765FE2B780133DBB20B2B19
:1043FC002B70F2D902F0AEFA0B49FFF75AFEBDE86A
:10440C00F84041F2883002F023B900BF14E60320D3
:10441C00F8E50320D0E5032020E603202CE603205A
:10442C00FCE50320F3730D009E730D00F0B51646EA
:10443C0091B00022C0E9002204460D460BAF19468C
:10444C0006A801F0A9F81699384601F0A5F83378BA
:10445C008DF81430189B0293179B2046CDE90073FE
:10446C0005AA06AB294601F017FE204611B0F0BD97
:10447C002DE9F043354DDFF81881354C3549DFF81F
:10448C001491354E354F91B0284601F06BF93449F3
:10449C00404601F067F93349204601F063F91023D7
:1044AC00214606A88DF8143001F076F829460BA8A1
:1044BC0001F072F800240BAB009305AA06ABCDE912
:1044CC00014429494846FFF7B1FF32463946484670
:1044DC0002F0D2FC0423414606A88DF8143001F0FA
:1044EC005BF829460BA801F057F8204D204B01939F
:1044FC000BAB009305AA06AB1E4902942846FFF7A6
:10450C0095FF32463946284602F0B6FC1A4D1B4838
:10451C0001F03FF902231A466421284600F081F885
:10452C00324617492846174D02F0A6FC164BAB60D5
:10453C002C60AC80AC71022000F07CFC134932463C
:10454C00284602F099FC11B0BDE8F08394E50320F5
:10455C00BCE50320F6730D0084E50320375C0D00E9
:10456C001B740D0040740D0065740D0018E60320DB
:10457C00DD400D0068740D0000E60320D4E5032037
:10458C00A5450D0088E503200000FFFFAF400D009E
:10459C00A8E503202CE6032010B50446C06808B13A
:1045AC0000F0E4FC23781BB1E079002102F0FAFB67
:1045BC00204610BD38B50446C0680D4608B100F061
:1045CC00D5FCA379062B0CBF0420032010FB05F0AF
:1045DC0080B2A08000F0C2FCE06028B1A28800216B
:1045EC0002F0B0FD658038BDA0806080FBE737B578
:1045FC00037805460C461BB1C079002102F0D2FBB2
:10460C002B78EC715BB1A0B20121019002F0CAFBD6
:10461C000198002103B0BDE8304002F0D4BB03B0D8
:10462C0030BD70B50025044616468371C0E90355AC
:10463C0005700572FFF7BEFF20463146FFF7D7FF26
:10464C00204670BDC368002B00F08D812DE9F04F22
:10465C008379023BDBB2042B9CBFC84A52F823403F
:10466C0087B0054688BF322400F04AFA2B69C01A7D
:10467C00A042F9D3C24AAB8807CA06AC04E90700CA
:10468C00039CD4F800251AB9D4F86025002A7CDBE9
:10469C00049CD4F8002522B9D4F86025002AC0F275
:1046AC005281059CD4F80025002A00F03781B54BC7
:1046BC00B5481C68EB79C1681A0104EB0316A75CBA
:1046CC007378B24C41F08071C160226803F01F0313
:1046DC0043EA471301273A432260A988D5F80C8096
:1046EC00D4F804909F40002944D04FF0000E72463D
:1046FC004FF0A04118F801CB0820802663689B1A64
:10470C00462BFBD96268D1F808351CEA060F43EA40
:10471C000703C1F808352FD063689B1A282BFBD9E7
:10472C00D1F80C35013843EA07034FEA5606C1F8B5
:10473C000C35E3D1AB880EF1010E1FFA8EFE7345DA
:10474C00D8D84FF4307101FB03F163689B1A462BE8
:10475C00FBD96368A3EB09098945C0F0D9804FF4F4
:10476C00967000F0C5F9A988D5F80C80D4F804909F
:10477C000029BAD10A46E8E763689B1A112BCFD8F7
:10478C0063689B1A112BF7D9CAE7D4F86425002A61
:10479C00BFF67EAFD4F86825002ABFF679AFD4F8FF
:1047AC006C25002ABFF674AF1B0104331846009326
:1047BC0000F0D4FB00283FF47AAFAB88002B00F05C
:1047CC00DA80EA68013B12FA83FE02F1FF3C002317
:1047DC0048F2060248F20D011CF8017F17F0800F19
:1047EC000CBF9046884620F8138003F1010817F09F
:1047FC00400F1FFA88F80CBF93468B4620F818B070
:10480C0003F1020817F0200F1FFA88F80CBF92462C
:10481C008A4620F818A003F1030817F0100F1FFAAE
:10482C0088F80CBF9146894620F8189003F10409CA
:10483C001FFA89F917F0080F03F105080CBF92460F
:10484C008A461FFA88F817F0040F20F819A00CBF3D
:10485C009146894620F8189003F1060817F0020FCC
:10486C001FFA88F803F108060CBF914689460733F6
:10487C00FF0720F8189001969BB275D5E64520F8F5
:10488C001310BDF80430A7D1591C023389B29BB266
:10489C0049005B00009A4FF40047475256083949CB
:1048AC00C75200224FF0140CC4F80425C4F80C2590
:1048BC00C4F808C5C4F81425C4F81025C4F820059C
:1048CC00C4F82465C4F82825C4F82C25EB790E68A7
:1048DC0006EB031719017B78715C03F01F0343EAA5
:1048EC0041130121C4F86035C4F80015C4F8102137
:1048FC00A160D4F81031002BFBD000234FF0FF3215
:10490C00C4F81031C4F80035C4F8602500F02EFB53
:10491C0000F0F6F8286107B0BDE8F08FD4F86025F8
:10492C00002ABFF6C4AED4F86425002ABFF6BFAE89
:10493C00D4F86825002ABFF6BAAED4F86C25002A44
:10494C00BFF6B5AE30E7D4F86425002ABFF6A9AEA1
:10495C00D4F86825002ABFF6A4AED4F86C25002A3A
:10496C00BFF69FAE20E77047E64520F81320B3B2A0
:10497C007FF432AF88E7042302218BE7A8740D0083
:10498C009C740D0034E60320F0ED00E0001000E014
:10499C0043888B42F0B526D9057AC2F30743C2F39C
:1049AC000724D6B23DB16B436C436E43C3F307236C
:1049BC00C4F30724360A90F806C0C768BCF1060F8A
:1049CC000CBF042503256943ACF1020C7D18BCF126
:1049DC00060F1DD8DFE80CF0041C08040F040400BB
:1049EC007C546B70AE70F0BDFE2B28BFFE237B5445
:1049FC006E70AC70F7E77B546C70AE70037A120E6D
:104A0C0013B9D2B2EA70EEE75A43C2F30722F9E7C0
:104A1C007B546C70AE70E6E7037A4A1CD2B29342B8
:104A2C0070B51ED0013B13F0FF03C4680CD0FF29F6
:104A3C001FBF110201F1FF31B1FBF3F39BB204BFB5
:104A4C004FF6FF71B1FBF3F325468688291B89B21B
:104A5C008E4205D929785943091205F8011BF4E750
:104A6C00027270BD8288C068002102F06BBB00002E
:104A7C0008B500F015F8014B186008BD34E60320AA
:104A8C0008B5024B1B689B68019308BD68020300C4
:104A9C0008B5024B1B68DB68019308BD6802030074
:104AAC0008B5024B1B681B68019308BD2C02030060
:104ABC0008B5024B1B689B68019308BD2C020300D0
:104ACC0008B5024B1B68DB68019308BD2C02030080
:104ADC0008B5024B1B681B69019308BD2C0203002F
:104AEC0008B5024B1B685B68019308BD18020300F4
:104AFC0008B5024B1B68DB68019308BD1802030064
:104B0C0008B5024B1B681B69019308BD1802030012
:104B1C0008B5024B1B685B69019308BD18020300C2
:104B2C0008B5024B1B68DB6D019308BD180203002E
:104B3C0008B5024B1B689B68019308BD7802030003
:104B4C0008B5024B1B68DB69019308BD78020300B2
:104B5C0008B5024B1B681B6D019308BD780203005E
:104B6C0008B5024B1B689B6D019308BD78020300CE
:104B7C0008B5024B1B681B6E019308BD780203003D
:104B8C0008B5034B1B68D3F89830019308BD00009F
:104B9C007802030008B5034B1B68D3F8A8300193C7
:104BAC0008BD00007802030008B5034B1B68D3F85E
:104BBC00B430019308BD00007802030008B5034B24
:104BCC001B68D3F8D830019308BD000078020300AD
:104BDC0008B5034B1B68D3F8DC30019308BD00000B
:104BEC007802030008B5034B1B68D3F8EC30019333
:104BFC0008BD00007802030008B5034B1B68D3F80E
:104C0C00F030019308BD00007802030008B5034B97
:104C1C001B68D3F80031019308BD00007802030033
:104C2C0008B5034B1B68D3F80431019308BD000091
:104C3C007802030008B5024B1B685B6C019308BD3E
:104C4C004802030008B5024B1B689B6C019308BD1E
:104C5C004802030008B5024B1B68DB6C019308BDCE
:104C6C004802030008B5024B1B685B6D019308BD3D
:104C7C004802030008B5024B1B685B69019308BD31
:104C8C006402030008B5024B1B681B68019308BD46
:104C9C003C02030008B5024B1B68DB68019308BD9E
:104CAC003C02030008B5024B1B681B69019308BD4D
:104CBC003C02030008B5024B1B685B69019308BDFD
:104CCC003C02030008B5024B1B689B69019308BDAD
:104CDC003C02030008B5024B1B68DB69019308BD5D
:104CEC003C02030008B5024B1B681B6A019308BD0C
:104CFC003C02030008B5024B1B689B6A019308BD7C
:104D0C003C02030008B5024B1B681B6A019308BDEB
:104D1C002802030008B5024B1B685B6A019308BDAF
:104D2C002802030008B5024B1B689B6A019308BD5F
:104D3C002802030008B5024B1B68DB6A019308BD0F
:104D4C002802030008B5024B1B681B6B019308BDBE
:104D5C002802030008B5024B1B685B6B019308BD6E
:104D6C002802030008B5024B1B681B6C019308BD9D
:104D7C002802030008B5024B1B68DB69019308BDD0
:104D8C003002030008B5024B1B681B6A019308BD77
:104D9C003002030008B5024B1B681B68019308BD69
:104DAC004C02030008B5024B1B685B68019308BDFD
:104DBC004C02030008B5024B1B681B69019308BD2C
:104DCC004C02030008B5024B1B685B69019308BDDC
:104DDC004C02030008B5024B1B689B69019308BD8C
:104DEC004C02030008B5024B1B68DB69019308BD3C
:104DFC004C02030008B5024B1B681B6A019308BDEB
:104E0C004C02030008B5024B1B689B6A019308BD5A
:104E1C004C02030008B5024B1B685B6B019308BD89
:104E2C006002030008B5024B1B681B6D019308BDA3
:104E3C006002030008B5024B1B685B68019308BD58
:104E4C002002030008B5024B1B685B69019308BD87
:104E5C002002030008B5034B1B68D3F8883001937C
:104E6C0008BD00002002030008B5034B1B68D3F8F3
:104E7C009430019308BD00002002030008B5024BDA
:104E8C001B685B68019308BD4002030008B5024B28
:104E9C001B689B68019308BD4002030008B5024BD8
:104EAC001B68DB68019308BD4002030008B5024B88
:104EBC001B681B69019308BD4002030008B5024B37
:104ECC001B685B69019308BD4002030008B5024BE7
:104EDC001B689B69019308BD4002030008B5024B97
:104EEC001B68DB69019308BD4002030008B5024B47
:104EFC001B681B6A019308BD4002030008B5024BF6
:104F0C001B681B6B019308BD4002030008B5024BE4
:104F1C001B685B6B019308BD4002030008B5024B94
:104F2C001B681B6C019308BD4002030008B5024BC3
:104F3C001B685B6C019308BD4002030008B5024B73
:104F4C001B689B68019308BD4402030008B5024B23
:104F5C001B68DB6B019308BD4402030008B5024BD0
:104F6C001B681B68019308BD1C02030008B5024BAB
:104F7C001B685B68019308BD1C02030008B5024B5B
:104F8C001B689B68019308BD1C02030008B5024B0B
:104F9C001B685B6A019308BD1C02030008B5024B39
:104FAC001B68DB6A019308BD1C02030008B5024BA9
:104FBC001B685B6C019308BD1C0203000022406857
:104FCC001146FFF793BF002240681146FFF79EBFC2
:104FDC0040680022FFF792BF4068002281F0010177
:104FEC00FFF77CBF002340681A461946FFF76EBFD7
:104FFC00002340681A461946FFF760BF002240683C
:10500C001146FFF753BF002240681146FFF73EBF21
:10501C00406800220221FFF741BF002340681A4676
:10502C00FFF72CBF024B03225A60024A1A607047EA
:10503C0038E60320C4740D0010B5044608462170F0
:10504C00FFF798FE00236360204610BD10B5094B96
:10505C00094C022200201A60084B2060A080A0712D
:10506C00A360FFF7E7FE2046054A0649BDE810405D
:10507C0001F002BF4CE6032040E603200000FFFFD6
:10508C0084E50320AF400D0010B504460068FFF71F
:10509C006DFF204610BD10B50446006808B1FFF73F
:1050AC0065FF0023C4E90133236010BD38B5044605
:1050BC000D4600680131FFF761FF10B1C4E900052E
:1050CC00012038BD10B50368044623B143688B42F8
:1050DC0001D3012010BD2046FFF7E8FF0028F9D0CE
:1050EC00A368002BF5D122681370F2E737B50D4693
:1050FC00114601920446FFF7E5FF019A28B92046B4
:10510C00FFF7C9FF204603B030BDA26029462068D6
:10511C0001F0F0FF2268A3680021D154F2E70023CC
:10512C0013B5C0E9003304468360037341B10846EC
:10513C00019102F071F8019902462046FFF7D6FF63
:10514C00204602B010BD13B5044659B10846019172
:10515C0002F062F8019902462046FFF7C7FF20468D
:10516C0002B010BDFFF797FFF9E770477047704723
:10517C0070470000064B994210B500F10C0405D0A5
:10518C00084601F085FE002808BF0024204610BD0B
:10519C0040760D00064B994210B500F10C0405D079
:1051AC00084601F075FE002808BF0024204610BDFB
:1051BC0040760D00064B994210B500F10C0405D059
:1051CC00084601F065FE002808BF0024204610BDEB
:1051DC0040760D0010B56821044601F052FE2046C1
:1051EC0010BD10B52821044601F04BFE204610BD21
:1051FC0010B53021044601F044FE204610BDFEF7E8
:10520C0046BFFEF744BFFEF742BF10B50368044625
:10521C009B689847A368013BA3602BB92368204681
:10522C00DB68BDE81040184710BD10B50446006897
:10523C0008B1FFF707FD204610BD000010B5044B68
:10524C0004461868FFF706FD0123237010BD00BF4C
:10525C0058E6032010B5044B04461868FFF702FD0E
:10526C000023237010BD00BF58E60320F0B50025C5
:10527C00EC1C8C420DD86E1C445D875D974205D1A9
:10528C002644B14205D31D60601CF0BD0134254499
:10529C00EEE70020F9E72DE9F34704469DF8287066
:1052AC001E46894601AB90460A46016AFFF7DEFFAF
:1052BC00256AB31C17BB08B35F193F1A1F2F19D8E7
:1052CC00DDF8049009F1020AA5EB0902121A00EBB1
:1052DC00090106EB0A0092B22144204401F018FFA8
:1052EC00731C04F809303246414604EB0A0001F005
:1052FC0001FF2762206A02B0BDE8F0872B441F2B08
:10530C00F8D8731C6355A81C25442062324685F8D6
:10531C0001904146204401F0EDFE236A33442362A0
:10532C00E8E70000024A00210A20FFF773BD00BF26
:10533C00FD4A0D00022A38B5044607D0032A11D0C5
:10534C00012A01D10B682360002038BD08200D68AC
:10535C00FEF799FE03460028F5D095E8030083E894
:10536C000300F0E700680028EED0082101F089FD69
:10537C00EAE730B40D4611461A46036809682868F6
:10538C00D3E90043A44630BC604730B5013802EB8A
:10539C004101134610F8014F240904F13005392D51
:1053AC0088BF04F1370503F8025B047804F00F049E
:1053BC0004F13005392D88BF04F13705994203F803
:1053CC00015CE7D1104630BD10B58368044613B1BB
:1053DC00032201469847204610BD10B504465830AC
:1053EC00FFF7F2FF04F14800BDE81040FFF74CBE98
:1053FC00A0F13003DAB2092A01D818467047A0F19F
:10540C006103052B01D857387047A0F14103052BD8
:10541C0094BF37384FF0FF30704710B50023044667
:10542C000370FFF70BFF204610BD10B50378044640
:10543C000BB1FFF70FFF204610BD052994BF405C50
:10544C000020704782B00346086849686A4603C268
:10545C006A4603CA18601846596002B0704708B50E
:10546C0082798B799A4206D1062201F035FEB0FA88
:10547C0080F0400908BD0020FCE74FF0FF330360CB
:10548C00838000207047002108B50160416002460E
:10549C00FFF7F3FF9171104608BD10B5431D01399C
:1054AC001C7801F8014F834203F1FF33F8D110BD92
:1054BC0070B5144688B01A460D46002948D0A4B1E0
:1054CC0001A9FFF7EAFF9AB103AA062101A8661EFB
:1054DC00FFF75BFF112E28BF1126324603A9284681
:1054EC0001F008FE0023AB55741C204608B070BDBB
:1054FC0003AA012101A8FFF748FF3A260DF10F027C
:10550C0001210DF105008DF80E60FFF73EFF0DF146
:10551C00120201210DF106008DF81160FFF735FF25
:10552C000DF1150201210DF107008DF81460FFF744
:10553C002CFF06AA012102A88DF81760FFF725FFA2
:10554C008DF81A600DF11B0201210DF10900BEE767
:10555C000C46CAE710B586B004461346084612221C
:10556C0001A9FFF7A5FF01A92046FFF7D8FD2046AA
:10557C0006B010BD01220261064A11680160516833
:10558C0041601189927A827200220181C0F80B204D
:10559C00C273704748760D0010B50B69036101F1B9
:1055AC001002034651F8044B43F8044B9142F9D1D5
:1055BC0010BD10B50B460446B1B1012A01F1100221
:1055CC000AD1014653F8040B41F8040B9342F9D16C
:1055DC0001232361204610BD411E12F8010D01F874
:1055EC00010F9A42F9D1F3E7102201F0ABFDF1E77C
:1055FC0038B5044615461A46FFF7DBFFA581204651
:10560C0038BD000008B5026922B98089003818BF7E
:10561C00012008BD0249102201F05EFDF6E700BF33
:10562C0068760D000069704738B50C4614220021CD
:10563C00054601F087FD23693BB9627B2B74237B04
:10564C0043EA02232B80284638BD01232B7404F136
:10565C0010022B4654F8041B43F8041B9442F9D156
:10566C00F1E7427B007B40EA02207047704708B5A7
:10567C0002690B699A4206D1102201F02DFDB0FA95
:10568C0080F0400908BD0020FCE7000001232DE953
:10569C00F3410361324B1A6802605A68426000257C
:1056AC001A899B7A028104468372C0F80B50C57329
:1056BC000E4621B32421304601F0B6FD042821D139
:1056CC00ADF8045001AFB51C063615F8020CFFF707
:1056DC008FFEB0F1000810DB15F8010CFFF788FE07
:1056EC0000280ADB023540EA0810AE4207F8010B2D
:1056FC00EBD1BDF804305BBAA3810023236102B067
:10570C00BDE8F08110272421304601F08DFDA84220
:10571C0006D827440023BC42F1D007F8013DFAE734
:10572C00002FECD0705DFFF763FE030615D400016B
:10573C00013F5FFA80F804F807802421304601F01D
:10574C0073FD0135A84208D9705DFFF751FE40B2D8
:10575C000028A4BF40EA0800E0550135D3E700BF9C
:10576C0048760D0013B504460191FFF703FF204660
:10577C000199FFF78BFF204602B010BD30B49DF8A5
:10578C00085012B9006A30BC7047029530BCFFF764
:10579C0082BD1FB50446024600F11F01002302F82A
:1057AC00013B9142FBD123620093062201238DF829
:1057BC000F2019460DF10F022046FFF7DFFF2046A0
:1057CC0004B010BD73B50A460E4601AB016A04461F
:1057DC00FFF74CFD054678B10198226A4119121A5F
:1057EC002144521B204401F085FC206A401B20629E
:1057FC0031462046FFF7E6FF02B070BD38B54FF6D4
:10580C00FF730025044643800E222946057005715E
:10581C00063001F097FC04F11400FFF7ABFE04F125
:10582C002800FFF7A7FE044904F13C00FFF777FCC2
:10583C006565204638BD00BF9F730D0010B5D0E9DB
:10584C00063203EBC2029342184606D00468248841
:10585C008C4203F10803F6D110BD0020FCE70000D8
:10586C00F0B5064685B01F460D46002950D0002ADB
:10587C004ED004682378F42A28BFF42243B323794A
:10588C00980709D5A08903920023FFF78DF900280A
:10589C00039A03DA05B0F0BD6FF077003468237912
:1058AC00D90609D5012F07D0A0890023294605B0B8
:1058BC00BDE8F040FFF7AAB99B06EBD5022FE9D063
:1058CC00A0890023294605B0BDE8F040FFF7A8B930
:1058DC0060884FF6FF7188421CD021794E0701D5A4
:1058EC00012F04D10B0709D46FF07700D2E7A189FF
:1058FC00009313462A46FFF76BF9CBE7022FF3D040
:10590C000023A189009313462A46FFF757F9C1E7F4
:10591C000248BFE76FF0D100BCE700BFF2FEFFFF0B
:10592C002DE9F04100260660074628200C46FEF7BC
:10593C00AAFB051E05F10C080FD00123C5E90133A4
:10594C00084B2B604046FFF715FE0FCC2E6285F8F6
:10595C00246046460FC623683360C7E90085384685
:10596C00BDE8F08110760D0070B500250560064687
:10597C003020FEF788FB044688B10123C0E90133CF
:10598C00094B03604FF6FF7383810E30FFF77BFDED
:10599C00C4E90655C4E90855C4E90A55A5757460EF
:1059AC000C343460304670BD2C760D0037B50D4686
:1059BC00044601A8FFF731FD2A6852F8023F236024
:1059CC005368636001A8FFF730FD204603B030BD7B
:1059DC0030B5054687B00C4601A8FFF71EFD2A68B6
:1059EC00236812881B889A420DD1294602A8FFF71A
:1059FC00DDFF214604A8FFF7D9FF04A902A8FFF791
:105A0C002EFD044600B9002401A8FFF70EFD204628
:105A1C0007B030BD10B504465420FEF734FB0146E8
:105A2C0060B10023C0E90033C0E90233C0E904339C
:105A3C00C0E906330362C362C363C364216019B94E
:105A4C00094A0A20FFF7E6F90020FFF771F820B1A8
:105A5C00054A00210A20FFF7DDF9216803480022DE
:105A6C00FFF7CAF8204610BDFD4A0D00215E0D005F
:105A7C0010B50B4C2378BFF35B8FDB070ED420469D
:105A8C00FEF707FB50B10748FFF7C4FF2046FEF7AF
:105A9C0005FB054A0549034801F0EEF9014810BD24
:105AAC0050E603205CE6032084E50320A15C0D0096
:105ABC0030B50368093B012B8DB004460D4611D857
:105ACC00FFF7D6FFA1880068FFF7B8FE034658B968
:105ADC002022CDE904200B4A00920B4904AA322063
:105AEC00FFF7A0F90DB030BD6A6D002AFAD0D4E9E9
:105AFC00032105F14C00CDE90312AC6D04AA03A9F6
:105B0C00A047EFE71F750D00F8740D0008B50020D5
:105B1C00FFF70EF800EAE07008BD13B5044600214B
:105B2C006846CDE90011FFF70BF86B4603CB2060FC
:105B3C002046616002B010BD084611B90A46FFF755
:105B4C0007B8096A0022FAE707B5084629B90A46D8
:105B5C0003B05DF804EBFFF703B801210190FFF7E8
:105B6C0031FE01980022016AF2E738B50446154669
:105B7C00FFF7E2FF00280ADB29462046FFF7E4FF87
:105B8C00002804DBBDE838400020FEF7F1BF38BD2B
:105B9C0038B500230446836008200D46FEF773FADF
:105BAC0018B12B6803606B684360034BE360034BD5
:105BBC002060A360204638BD7F530D0041530D007B
:105BCC000B68036013B15A6801325A60704710B504
:105BDC0051F8043B044640F8043BFFF7F1FF2368FF
:105BEC000BB9FFF79FFB204610BD10B551F8043BD5
:105BFC00044640F8043BFFF7E3FF204610BD10B508
:105C0C0051F8043B044640F8043BFFF7D9FF20460B
:105C1C0010BD10B50446006828B14368013B4360D1
:105C2C000BB9FFF7F2FA204610BD10B5044604304C
:105C3C00FFF7EFFF204610BD70B5D0E900530446C6
:105C4C0005EBC306AE4204D0281DFFF7E2FF083572
:105C5C00F8E72068FFF78AF9204670BD70B5D0E9E7
:105C6C000053044605EBC306AE4204D0281DFFF7D3
:105C7C00D0FF0835F8E72068FFF778F9204670BDAB
:105C8C0010B504462430FFF7E9FF04F11800FFF7C4
:105C9C00D3FF10BDF8B50468064624B304F14400E4
:105CAC00FFF792FB04F13400FFF78EFB04F12400A4
:105CBC00FFF78AFBD4E9065305EBC307AF4204D0C8
:105CCC00281DFFF7A6FF0835F8E7A069FFF74EF986
:105CDC0004F10C00FFF7C2FF2046FFF7ADFF542183
:105CEC00204601F0CEF83046F8BD826810B50AB9EE
:105CFC0001F0CBF8BDE81040C36818478842F8B5EE
:105D0C0004460D46164614D9904213D2A2F1080649
:105D1C00751AA1F108072C44B74218D01CB13146B2
:105D2C002046FFF76CFF301DFFF773FF083E083C61
:105D3C00F2E70CD0B5420AD01CB129462046FFF739
:105D4C005EFF281DFFF765FF08350834F2E7F8BD44
:105D5C002DE9F041D0E900430546884604EBC30722
:105D6C00A74203D100263046BDE8F08141462046CB
:105D7C00FFF72EFE064608B90834F1E7002CF1D0E7
:105D8C00201DFFF746FFD5E9003204F1080103EBB3
:105D9C00C2022046FFF7B2FF6B68013B6B60E2E783
:105DAC00F7B5044646686846FFF729FFD4E9017346
:105DBC009F4212DB0137002F29DDF800FFF7CEF8E8
:105DCC000546F0B1D4E9001201EBC202FFF796FFD1
:105DDC002068FFF7CBF82560A7602368626803EBA7
:105DEC00C60603EBC202314606F10800FFF786FF38
:105DFC001EB169463046FFF702FF636801336360EA
:105E0C00012501A8FFF705FF284603B0F0BD0025CA
:105E1C00DEE700002DE9F04105468EB003A80C46E4
:105E2C00FFF7FBFA2E68042E6BD007D8032E28D070
:105E3C0003A8FFF7FAFA0EB0BDE8F081A6F10C0347
:105E4C00032BF5D8A9892046FFF7F8FC0746002854
:105E5C00EED0E36C002BEBD01022002107A801F050
:105E6C0071F90D2E06978DF81C6040F092806B68CE
:105E7C00099306230893236D06A904F1440098475F
:105E8C00D6E704A8FFF770FD049BAA891A806968FD
:105E9C00049808310230FFF7D5FA04A906A8FFF7D9
:105EAC00AEFE06A904F11800FFF77AFF054607A815
:105EBC00FFF7AFFE202306938DB93E4B3E4900936E
:105ECC0032202B4606AA0795FEF7ACFF049B294609
:105EDC001888FEF755FE05A8FFF79BFEA8E7374A82
:105EEC00009200233449079306AA0120FEF79AFF7B
:105EFC00E36A002BEFD004A904F12400FFF7F5FEB0
:105F0C00E9E7A9892046FFF799FC064600288FD0BF
:105F1C000568D5E906314FF6FF722A8003EBC10103
:105F2C00994203D053F8080B4280F9E7D5E9037383
:105F3C0007EBC308B84504D0381DFFF76AFE0837D5
:105F4C00F8E700232B61D5E9067307EBC308B845C6
:105F5C0004D0381DFFF75DFE0837F8E70023EB612E
:105F6C00AB72E36B23B1314604F13400FFF7BDFE95
:105F7C0000232022CDE90623114A00920E4906AADD
:105F8C000120FEF74FFF314604F11800FFF7E0FE49
:105F9C004EE70F2E7FF46FAF6B6809932B7A03F0EB
:105FAC000102C3F340038DF829308DF82820082313
:105FBC0060E700BF37750D00F8740D005D750D00BE
:105FCC007A750D0013B500230446D1E90002C1E92E
:105FDC0000332368009320606368626001A801931A
:105FEC00FFF717FE204602B010BD13B50B46024654
:105FFC00D0E900016C4684E8030093E8030082E8D2
:10600C00030094E8030083E8030002B010BD38B528
:10601C0005460C46FFF7E9FFAB68A268AA60A360CF
:10602C00EB68E268EA60E36038BD1FB50023044604
:10603C00084669460293FFF7EAFF21466846FFF7D8
:10604C00E6FF6846FFF7C0F9204604B010BD70B5F6
:10605C000E4688B0044601921D46FFF7CFFB3378FD
:10606C000199237104F13C00FFF76DF804F14C0623
:10607C0085B10C9B029502A904A80393FFF788FD38
:10608C0004A93046FFF7D1FF04A8FFF79DF920467D
:10609C0008B070BD0695F3E72DE9F04786B00746CA
:1060AC001D4668200023894692460493FDF7EBFFBA
:1060BC00061E06F10C081DD001233446C6E9013337
:1060CC00154B44F8203B9AF800308DF80C30109B9F
:1060DC0000934A460F9B03A94046FFF7B8FF0FCD2C
:1060EC000FC42B680E9D23600FCD06F134040FC432
:1060FC002B68236004A93846CDE90486FFF762FFBC
:10610C0005A8FFF786FD396819B9044A0A20FEF77D
:10611C0081FE06B0BDE8F087F4750D00FD4A0D0058
:10612C008842F8B504460D46164614D9904213D24F
:10613C00A2F10806751AA1F108072C44B74218D031
:10614C001CB131462046FFF750FD301DFFF761FDB5
:10615C00083E083CF2E70CD0B5420AD01CB12946E7
:10616C002046FFF742FD281DFFF753FD0835083484
:10617C00F2E7F8BD70B50E1E054611DDF000FEF716
:10618C00EDFE044658B1D5E9001201EBC202FFF74F
:10619C00C7FF2868FEF7EAFE2C60AE60012070BDD8
:1061AC000024F6E773B5044645686846FFF71DFD05
:1061BC00D4E90113994210DA2368626803EBC50530
:1061CC0003EBC202294605F10800FFF7A9FF8DB9C0
:1061DC00636801336360012606E001312046FFF756
:1061EC00C9FF06460028E7D101A8FFF712FD30468B
:1061FC0002B070BD69462846FFF7F7FCE8E7884215
:10620C00F8B504460D46164614D9904213D2A2F1A5
:10621C000806751AA1F108072C44B74218D01CB116
:10622C0031462046FFF7D3FC301DFFF7F2FC083E49
:10623C00083CF2E70CD0B5420AD01CB129462046E6
:10624C00FFF7C5FC281DFFF7E4FC08350834F2E71E
:10625C00F8BD70B50E1E054611DDF000FEF77EFE92
:10626C00044658B1D5E9001201EBC202FFF7C7FF93
:10627C002868FEF77BFE2C60AE60012070BD002408
:10628C00F6E773B5044645686846FFF7A0FCD4E909
:10629C000113994210DA2368626803EBC50503EB1E
:1062AC00C202294605F10800FFF7A9FF8DB9636802
:1062BC0001336360012606E001312046FFF7C9FF78
:1062CC0006460028E7D101A8FFF7A3FC304602B030
:1062DC0070BD69462846FFF77AFCE8E72DE9F04FD8
:1062EC001746A1B080460AA80E46FFF796F83C6800
:1062FC00237953B939464046FFF769FC0AA8FFF7E2
:10630C0094F8404621B0BDE8F08F3368D3E90353CD
:10631C0005EBC303039304F1280A04F1140B039B4C
:10632C009D4221D0D5F80090584609F11401FFF791
:10633C009EF9B8B109F128015046FFF798F988B1D8
:10634C002368D9F80020534033F47F430AD120222C
:10635C00CDE915235E4A009215AA5E493220FEF75C
:10636C0061FDC7E70835DAE75046FFF74BF960B92E
:10637C005949012215A815ADFFF71BF90FCDD446CD
:10638C00ACE80F002B68CCF800303368D3E900532D
:10639C0005EBC30B5D45A94651466ED055F8080B6D
:1063AC00FFF765F90028F5D004F1140A5046FFF701
:1063BC0029F988B9494B48491A88013292B21A8096
:1063CC0015A8012315ADFFF713F90FCDD446ACE892
:1063DC000F002B68CCF800302822002116A800F002
:1063EC00B1FE3F4B1593514604A8FFF71DF904ABC2
:1063FC0018AA0DF1200C18685968154603C5083306
:10640C0063452A46F7D11868286023798DF85830EF
:10641C00D9F800309B8AADF87430E36B1793314B8D
:10642C000022A11D15A8CDE91E34FEF7DBFB0028C8
:10643C007FF460AF01232370346839460C340DA807
:10644C00FFF7C5FB20460DA9FFF71BFF04460EA85E
:10645C00FFF7DFFB002C7FF44DAF2023CDE90D348B
:10646C00214B00930DAA234677E739464046FFF7A8
:10647C00AEFB0CA8FFF7CDFB40E70BA8FFF750FADB
:10648C00514615A8FFF7D0F80B9A0023143215A922
:10649C000120FEF77FFB0028E7D135680BA90DA87A
:1064AC00FFF7A3FB28460DA9FFF77CFE05460EA8B7
:1064BC00FFF7AFFB002DD8D032685368126803F198
:1064CC000053013B0CA802EBC309FFF7A2FB6BE7DF
:1064DC0099750D00F8740D0058760D0054E60320E4
:1064EC0001002C00BD5A0D00C4750D0010B5064CF2
:1064FC00002320462360FEF79DFB2046034A0449F7
:10650C00BDE8104000F0B8BC58E6032084E5032039
:10651C0037520D00F8B506460D468F180024BD42C3
:10652C000CD0336815F8011B9B6830469847031E46
:10653C0001DB1C44F3E7002C08BF1C462046F8BDC9
:10654C0013B50446084659B1019100F065FE236865
:10655C000199DB680246204602B0BDE8104018479E
:10656C0002B010BD03689B68184738B50D2105466D
:10657C00FFF7F8FF0A2104462846FFF7F3FF2044F3
:10658C0038BD30B58BB000238DF82430012A98BF6C
:10659C000A2209AC0D46B1FBF2F101FB125303F0D8
:1065AC00FF03092B94BF30333733DBB2AA4204F814
:1065BC00013DEFD92146FFF7C3FF0BB030BD2DE9EC
:1065CC00F04186B000AF05460E46381D1421144626
:1065DC003B60FEF7DBFC13280ED8391D2846FFF76D
:1065EC00AFFF04461EB12846FFF7BFFF0444204608
:1065FC001837BD46BDE8F08100F1080323F007030E
:10660C00E846ADEB030D2246411C3B686846FEF79D
:10661C00BDFC69462846FFF793FF0446C546E1E7F3
:10662C00002340681A461946FEF748BC014B024A43
:10663C001A60704760E6032078760D00024B1A68EA
:10664C00024B1A60704700BF1CE5032064E6032070
:10665C000021FEF7F7BB10B50446FEF7B5FE204649
:10666C0010BD00000348044A04490023836000F075
:10667C0003BC00BF68E6032084E5032063660D00BD
:10668C00014B1860704700BF20E5032008B50B4B89
:10669C0043B100F05FF903681B699847002801DDDE
:1066AC00AFF30080064B43B100F0D2F903681B69CD
:1066BC009847002801DDAFF3008008BD0000000002
:1066CC000000000008B5FFF7E1FFFEF721FA014BCF
:1066DC00186008BDD4E703200248034A0349121A84
:1066EC0000F008BD00F4032004F40320D0790D0061
:1066FC0007B5002300931A466FF07701FEF7B4FB41
:10670C0003B05DF804FB000007B543880A2B08D0E2
:10671C00502B0BD1094B1B684BB103B05DF804EB4C
:10672C001847FFF7E5FF03B05DF804FB0023009367
:10673C001A466FF07701FEF797FBF4E77CE603202F
:10674C0038B5124C1248134D0021FEF72FFC23686C
:10675C00AB42114B0CBF012200221A7002D0FFF782
:10676C00BBFF2560FEF7BCF9044600F0F3FC0B4BB5
:10677C0013B12046AFF3008000210848FEF7E6FB7A
:10678C00BDE8384006480021FEF764BB00F4032046
:10679C008D660D001E1C279A78E603200000000071
:1067AC0015670D00704710B51821044600F069FB01
:1067BC00204610BDF0B5037D062B8DB00E4600F1C2
:1067CC0004074FF0000412D000F1080515F8011D64
:1067DC000A223046FFF7D5FEAF42044419D0002CF4
:1067EC00F4D02E213046FFF7BDFE0444EEE72F23F4
:1067FC006A4639460A208DF80040FEF73BFA684697
:10680C0000F00AFD33680246DB686946304698475B
:10681C00044620460DB0F0BD10B5054B04461122C0
:10682C0040F8043B002100F08DFC204610BD00BF59
:10683C00A0760D000346074A10B543F8042B01F16E
:10684C00100251F8044B43F8044B9142F9D10A78E9
:10685C001A7010BDA0760D0010B59DF8084044EAE2
:10686C00032343EA024242EA0161042341600375B7
:10687C0010BD000013B5054B0360CB7800938B78EB
:10688C004A780978FFF7E8FF02B010BDA0760D003A
:10689C0041747047704708B50021007CFEF79AFAE6
:1068AC0040EAE07008BD08B50121007CFEF792FAC1
:1068BC0040EAE07008BD08B5007CFEF783FA20EAD8
:1068CC00E07008BD08B5007CFEF774FA20EAE070B1
:1068DC0008BD13B50446007C0191FEF773FA00283D
:1068EC00019901DC607C20B1207CFEF77BFA20EA68
:1068FC00E07002B010BD007CFEF77CBA10B514211C
:10690C00044600F0BEFA204610BD000010B54FF44E
:10691C007A73044608460021C4E90113044B236032
:10692C000123207463741146FEF734FA204610BD1F
:10693C00B4760D00007C0022FEF734BA007CFEF722
:10694C0061BA10B514220446002100F0FBFB20466E
:10695C0010BD000010B5104C88B003A8FFF7F1FF74
:10696C002178BFF35B8F11F0010111D12046019109
:10697C00FDF78FFB019958B103AA0848FFF7C6FF32
:10698C002046FDF78BFB064A0649044800F074FAD2
:10699C00024808B010BD00BF80E6032084E6032047
:1069AC0084E50320A1680D0070474174704708B559
:1069BC00007CFEF79FF920EAE07008BD08B5007C6A
:1069CC00FEF770F920EAE07008BD08B5007CFEF710
:1069DC0079F940EAE07008BD08B5007CFEF76AF969
:1069EC0040EAE07008BD007CFEF774B937B5457C11
:1069FC0004462DB1207C03B0BDE83040FEF74AB907
:106A0C00007C0191FEF776F900280199F2DC28460A
:106A1C0003B030BD10B51421044600F032FA204604
:106A2C0010BD000010B54FF0000C0446084611468E
:106A3C004FF47A72C4E901C2044A22600122207424
:106A4C0062741A46FEF71EF9204610BDE4760D005E
:106A5C0013B50E4C2178BFF35B8F11F0010112D1ED
:106A6C0020460191FDF715FB019960B1084A094BCD
:106A7C000948FFF7D7FF2046FDF710FB074A0849E6
:106A8C00054800F0F9F9044802B010BD98E603205F
:106A9C009CE6032020E70320A4E7032084E50320E1
:106AAC00B5690D007047F8B5064615460C468F18AB
:106ABC00BC4206D0336814F8011B9B6830469847DB
:106ACC00F6E72846F8BD007C0022FEF71BB9007CD7
:106ADC000021FEF71FB9007C0021FEF723B9007CD2
:106AEC000021FEF727B9007C0021FEF72BB910B569
:106AFC001421044600F0C5F9204610BD10B54FF422
:106B0C007A73044608460021C4E90113034B236041
:106B1C0020741146FEF726F9204610BD14770D009F
:106B2C0010B5044628B100F039FB90FBF4F303FBDD
:106B3C001404204610BD884210B5044603DA081A26
:106B4C00FFF7EEFF0444204610BD002240681146BA
:106B5C00FEF7ACB9002240681146FEF7C7B9002217
:106B6C0040681146FEF7D2B940680022FEF7C6B95C
:106B7C004068002281F00101FEF7B0B900234068A3
:106B8C001A461946FEF7A2B9002240681146FEF7D4
:106B9C007DB9406800220221FEF780B900234068CD
:106BAC001A46FEF76BB90000024B04225A60024AE7
:106BBC001A607047B8E703203C770D00002340684B
:106BCC001A46FEF75BB9406800220221FEF766B94F
:106BDC00002240681146FEF759B900224068114660
:106BEC00FEF764B9002340681A461946FEF766B9E9
:106BFC00002340681A461946FEF768B94068002120
:106C0C00FEF78CB940680021FEF790B9406800226D
:106C1C0081F00101FEF762B940680022FEF76EB9FF
:106C2C00002240681146FEF771B9002240681146F7
:106C3C00FEF75CB92DE9F043002495B016460D46DD
:106C4C000746FFF7E9FD214618220EA8009400F034
:106C5C0079FA4023CDE90C3421466B460CAA304618
:106C6C00FDF716FF044600284CD102460121686846
:106C7C00FEF71CF90221804622466868FEF716F9D9
:106C8C00009E81462146002E3CD000293AD17368E3
:106C9C00022B03D00A2B11D0F669F4E7B8F1000FE0
:106CAC000AD0716906A8043107ADFFF7E3FD0FCDDB
:106CBC003C1D0FC42B6823704146EDE7B9F1000F62
:106CCC0001D14946E8E77469102201A800F03AFAAC
:106CDC0006238DF8143001AD04F10803183418683C
:106CEC0059682A4603C20833A3421546F7D101A9B5
:106CFC0006A807ADFFF79EFD0FCD3C1D0FC42B68FA
:106D0C002370DEE70098FDF7BBFE384615B0BDE8F2
:106D1C00F0830000024B034A1A6000225A6070474D
:106D2C00C0E7032078770D00232813B502D9002083
:106D3C0002B010BDA0F10B03022B1AD8174C21780E
:106D4C00BFF35B8F11F001010BD120460191FDF7D0
:106D5C00A0F9019928B11248FEF76EF92046FDF70B
:106D6C009DF90F4B1878FEF70DF80028DFD10120A4
:106D7C00DEE7012809D800F057F80021007CFDF768
:106D8C00E9FF80F00100C0B2D2E709380128EED843
:106D9C00FFF75EFE007CFDF7A5FFF2E7C8E70320D6
:106DAC00CCE70320232838B504460D460AD8FF2922
:106DBC0008D0FFF7B9FF28B129462046BDE8384076
:106DCC00FDF776BE38BD38B504460D46FDF778FEA6
:106DDC00FF2810D0062804D84D2323FA00F0C3074F
:106DEC0009D42046FFF7A0FF28B129462046BDE86C
:106DFC003840FDF76DBE38BD38B5002320254380E3
:106E0C00142304460380856005610649284600F07A
:106E1C003AF804496060284600F035F8E0602046F6
:106E2C0038BD00BFAC770D0030B50F4D2978BFF3DE
:106E3C005B8F11F0010487B013D12846FDF729F9B7
:106E4C0078B101A8FFF7D8FF01AA21460748FFF740
:106E5C0055FE2846FDF722F9054A0649034800F07D
:106E6C000BF8024807B030BDD8E70320DCE703205D
:106E7C0084E50320B16A0D000B460146184600F06C
:106E8C001DB9FDF704B9FDF700B908B5FEF786F892
:106E9C00014900F0F9B800BFC8770D007FB5002498
:106EAC001023CDE90234036800949E698DF80440E8
:106EBC0015466B461268B0479DF8043003F0060384
:106ECC00062B03BF009B2B600120204604B070BD35
:106EDC000098904214BF01200620704710B5034B58
:106EEC000360044600F0CDF8204610BD08780D0074
:106EFC0010B50446FFF7F2FF20460821FFF7C1FF4B
:106F0C00204610BD2DE9F0411F46DDE90834DDF8BF
:106F1C00188098450646154607D1079900F0B4F835
:106F2C0018B165710020BDE8F0813946304600F09B
:106F3C00ABF80028F6D00123C4F800802571A371AA
:106F4C00F0E738B515461C4600F09EF820B1082332
:106F5C00E36006232560237138BD73B505460C46E6
:106F6C0001921E4600F090F850B9032E08D8236801
:106F7C00019A5B692946204602B0BDE8704018476B
:106F8C0002B070BD10B5034B03600446FFF7A6FFBB
:106F9C00204610BD68780D0010B50446FFF7F2FFCF
:106FAC0020460C21FFF76DFF204610BDF7B5089F5A
:106FBC00974205460E4614460AD0A8680268089700
:106FCC00156A31462246AC4603B0BDE8F040604736
:106FDC001946019300F058F8019B0028EDD00620CB
:106FEC0003B0F0BD2DE9F14F0D461946DDE90A4B12
:106FFC00DDE90CA681461746984600F045F890B19D
:10700C00002D3460377109DB61198A450CBF0621EC
:10701C000121B171002001B0BDE8F08F0235F9D12A
:10702C000123B371F6E7544506D15946484600F0A2
:10703C002BF808B17771EDE7D9F808000368CDE9B2
:10704C000CA6CDE90A4BDC693A4643462946A446D0
:10705C0001B0BDE8F04F60472DE9F04107460C4602
:10706C0015461E46FFF76DFF48B9B86803689F695F
:10707C002A4633462146BC46BDE8F0416047BDE890
:10708C00F081704700207047814208B50ED04068EF
:10709C0003782A2B0CD049680B782A2B08BF0131B6
:1070AC0000F0B0F8B0FA80F0400908BD0120FCE710
:1070BC000020FAE70A22002100F03EB910B5054C79
:1070CC0013462CB10A4601460220AFF3008010BDD6
:1070DC002046FCE70000000030B501390024A24234
:1070EC0001D1002005E0035D01340D5DAB42F6D00B
:1070FC00581B30BD0A44914200F1FF3300D1704758
:10710C0010B511F8014B03F8014F9142F9D110BDA4
:10711C00884210B501EB020402D98442234607D8F9
:10712C00431EA14208D011F8012B03F8012FF8E7F8
:10713C00024401468A4200D110BD13F8014D02F8F9
:10714C00014DF7E702440346934200D1704703F820
:10715C00011BF9E738B50D4B1D68AB6B04467BB9C9
:10716C001820FDF7FBFE0A4A0A4BA863C0E900236E
:10717C00094B83600B23838101220023C0E9042384
:10718C00AB6B00221C615A6138BD00BF20E50320A7
:10719C000E33CDAB34126DE6ECDE0500134B10B59F
:1071AC001C68A36B7BB91820FDF7D8FE104A114B55
:1071BC00A063C0E90023104B83600B238381012261
:1071CC000023C0E90423A16B0C480A694B690C4CE1
:1071DC00504304FB0300A2FB04345A1C044444F146
:1071EC000000C1E9042020F0004010BD20E5032080
:1071FC000E33CDAB34126DE6ECDE05002DF4515898
:10720C002D7F954C10F8012B11F8013B012A28BF5A
:10721C009A42F7D0D01A7047034613F8012B002A74
:10722C00FBD1181A0138704710B5024601448A4246
:10723C00134601D1181A10BD1C780132002CF6D15E
:10724C00F8E700002DE9F0473A4E86468C4660463A
:10725C001CF8014BA55D15F00805F8D12D2C33D188
:10726C009CF800404FF0010800F1020C002B5CD0A0
:10727C00102B0CD1302C0AD19CF8000000F0DF0050
:10728C0058284DD19CF8014010230CF1020C08F148
:10729C000047013F0026B7FBF3F9304603FB197A90
:1072AC00A4F13005092D18D82C46A34224DD751CF9
:1072BC0007D081451DD301D1A2451ADB00FB034049
:1072CC0001261CF8014BEBE72B2C08BF9CF8004067
:1072DC00A84608BF00F1020CC8E7A4F14105192D1E
:1072EC0001D8373CE1E7A4F16105192D04D8573CCE
:1072FC00DBE74FF0FF36E4E7731C06D12223CEF810
:10730C000030384642B9BDE8F087B8F1000F00D024
:10731C004042002AF7D00EB10CF1FF311160F2E7B8
:10732C003024002BB3D10823B1E7302CA4D00A238E
:10733C00ADE700BFA2780D0013460A46014602488D
:10734C000068FFF77FBF00BF20E503201D400D0044
:10735C0059400D0081400D0085400D0000000000DB
:10736C005265636569766564206461746120667238
:10737C006F6D3A20253032583A253032583A253044
:10738C0032583A253032583A253032583A25303274
:10739C0058200A00255800546865206461746120E7
:1073AC0066726F6D204164616672756974203D2050
:1073BC002569005374617274696E67207570204280
:1073CC004C4520436F6E6E656374696F6E200A00C6
:1073DC004172676F6E20424C452041646472657344
:1073EC00733A2025730A002563003645343030305B
:1073FC0030312D423541332D463339332D45304113
:10740C00392D4535304532344443434139450036F6
:10741C00453430303030322D423541332D463339FE
:10742C00332D453041392D453530453234444343B5
:10743C004139450036453430303030332D423541FA
:10744C00332D463339332D453041392D45353045B3
:10745C00323444434341394500747800727800005B
:10746C000000FF0000A5FF0000FFFF0000800000EF
:10747C00FF00000082004B00D300940049C6F200CC
:10748C00CBC0FF002191ED001E69D2004763FF00C5
:10749C0000C0014000100240002002402C010000FE
:1074AC0018000000F40100002C0100005000000046
:1074BC00000000000000000027500D001D500D00C2
:1074CC0013500D0009500D00FD4F0D00F14F0D0034
:1074DC00096C0D00116C0D00E54F0D00DD4F0D001A
:1074EC00D34F0D00C94F0D00416C0D0077697269C7
:1074FC006E672E626C6500537461727420646973DC
:10750C00636F766572696E67207365727669636501
:10751C00732E005065657220646576696365206919
:10752C0073206D697373696E6721004661696C65C0
:10753C006420746F20617070656E64207065657274
:10754C002043656E7472616C206465766963652E88
:10755C0000436F6E6E6563746564206279204365C9
:10756C006E7472616C206465766963652E00446983
:10757C0073636F6E6E6563746564206279207265E7
:10758C006D6F7465206465766963652E0044757053
:10759C006C696361746564206368617261637465AE
:1075AC007269737469632063616E6E6F74206265B7
:1075BC002061646465642E004661696C65642074A6
:1075CC006F20617070656E64206C6F63616C2063FA
:1075DC00686172616374657269737469632E00000B
:1075EC0000000000000000007D510D00E1510D0075
:1075FC00E7530D000B520D0081510D0000000000EF
:10760C000000000079510D00EF510D007B510D0071
:10761C000F520D00A1510D000000000000000000F1
:10762C0077510D00FD510D008D5C0D0013520D00B6
:10763C00C1510D000000000000000000FB349B5FF6
:10764C008000008000100000000000007BE3277425
:10765C007BF815ACDD49A913000072F5FB349B5F78
:10766C0080000080001000000000000061707000BD
:10767C0025592D256D2D25645425483A254D3A253F
:10768C0053257A0061736374696D65000000000016
:10769C0000000000C1670D00B1670D00B3670D005D
:1076AC000000000000000000A1680D0009690D0039
:1076BC00DF680D0021650D00D1680D00A3680D0079
:1076CC00B3680D0003690D00C3680D009D680D00C3
:1076DC000000000000000000B5690D00216A0D00DB
:1076EC00F9690D0021650D00C9690D00E5690D00F2
:1076FC00D7690D00F3690D00B7690D00BB690D006A
:10770C000000000000000000B16A0D00FB6A0D00D3
:10771C00D36A0D00B36A0D00DB6A0D00E36A0D003D
:10772C00EB6A0D00F36A0D00000000000000000081
:10773C00A96B0D009F6B0D00956B0D00576B0D0029
:10774C002D660D00896B0D00096C0D00116C0D0080
:10775C007D6B0D00756B0D006B6B0D00616B0D007F
:10776C00416C0D000000000000000000C96B0D0012
:10777C00D36B0D00DD6B0D00E76B0D00F16B0D0095
:10778C00FD6B0D00096C0D00116C0D00196C0D00DA
:10779C00256C0D002D6C0D00376C0D00416C0D002F
:1077AC0000537431395F53705F6D616B655F736843
:1077BC00617265645F7461670000000008780D00F9
:1077CC00AD770D0068780D00DC770D008C780D001E
:1077DC004E31305F5F637878616269763131375F43
:1077EC005F636C6173735F747970655F696E666FEC
:1077FC004500000000000000D0770D00E96E0D0080
:10780C00FD6E0D0091700D0091700D00676F0D00F5
:10781C00A96E0D004F6F0D00116F0D00DD6E0D0088
:10782C0068780D0038780D00D0770D004E31305F40
:10783C005F637878616269763132305F5F73695F5C
:10784C00636C6173735F747970655F696E666F45A5
:10785C0000000000000000002C780D00916F0D005E
:10786C00A56F0D0091700D0091700D00676F0D00EC
:10787C00A96E0D0065700D00F16F0D00B96F0D0054
:10788C0008780D0094780D00537439747970655F25
:10789C00696E666F000020202020202020202028E8
:1078AC0028282828202020202020202020202020AC
:1078BC0020202020202088101010101010101010E4
:1078CC001010101010100404040404040404040424
:1078DC0010101010101010414141414141010101A3
:1078EC00010101010101010101010101010101017C
:1078FC000110101010101042424242424202020289
:10790C00020202020202020202020202020202024B
:10791C0002101010102000000000000000000000F9
:10792C00000000000000000000000000000000004B
:10793C00000000000000000000000000000000003B
:10794C00000000000000000000000000000000002B
:10795C00000000000000000000000000000000001B
:10796C00000000000000000000000000000000000B
:10797C0000000000000000000000000000000000FB
:10798C0000000000000000000000000000000000EB
:10799C0000000000000000007D440D007D4A0D0039
:1079AC0031500D0059500D00F9640D0039660D0071
:1079BC0049660D0071660D00B56B0D00216D0D0053
:0479CC0000000000B7
:0479D00000000000B3
:1079D40090760D0024E50320000000000000000064
:1079E4000000000000000000000000000000000093
:1079F4000000000000000000000000000000000083
:107A04000000000000000000000000000000000072
:107A14000000000000000000000000000000000062
:107A24000000000000000000000000000000000052
:087A340000000000000000004A
:107A3C00FFFFFFFF00000102030405060708090A07
:107A4C000B0C0D0E0F101112131415161718191A02
:087A5C001B1C1D1E1F20280049
:047A6400785634120A
:04000003D000401CCD
:00000001FF
