:02000002B0004C
:1040000000400B0004770B00000006000C000502C6
:0840100004011F0C0000000078
:04401800206A0B000F
:10401C0009480A49884208B505D0094A824202D0AB
:10402C00121A02F0A3FC0748074A0021121A02F0E8
:10403C00ABFC014808BD00BF84E1032064720B0097
:10404C00FCE5032000E60320F4E7032070B5074EDF
:10405C00074C01F077FCA41BA4080025A54200D155
:10406C0070BD56F8043B98470135F7E738720B00E2
:10407C005C720B0000F036B808B500F0B7F8BDE87C
:10408C00084001F017BC01F07FB801F085B80000C2
:10409C0008B5034A00210C2000F0B2FFFEE700BF78
:1040AC006D4D0B000078B0FA80F040097047012389
:1040BC0003707047704710B50446006808B101F0F2
:1040CC006BF8204610BD0EB403B503AB002153F8BA
:1040DC00042B019301F0D3FA02B05DF804EB03B0AA
:1040EC007047000008B501F035FD4FF4165101F092
:1040FC0025FDB9EE080A01F00FFB01F025F810B10F
:10410C00002001F029F83C220221074800F064FB52
:10411C00054800F0F1FA4FF4FA6001F091FBBDE8AC
:10412C000840014800F070BA10E6032010B58CB0BE
:10413C00294C2A49684601F0CEF9284904A801F017
:10414C00CAF9204600F060FA2046012100F0C5FDB6
:10415C002046012100F0C6FD00221146204600F049
:10416C00B9FD1F492046FFF7AEFF01F04EFB02469A
:10417C00C31708A801F0F0FA08A9684601F0DCF9A9
:10418C0008A801F05DF913230B22694608A801F079
:10419C00DBF908A904A801F0CFF908A801F050F93F
:1041AC0001220021204600F0A0FD01F0D3FC009A72
:1041BC000C49FFF788FF049A0B492046FFF783FF51
:1041CC00204600F099FA04A801F03AF9684601F08B
:1041DC0037F90CB010BD00BF10E6032068710B005E
:1041EC00346A0B00466A0B00576A0B0010B5074C7B
:1041FC0000F0BEFD2368C01A41F28833984204D9FE
:10420C00FFF794FF00F0B4FD206010BD34E60320EE
:10421C0010B52421044601F04EFF204610BD0000CD
:10422C0010B50D4C0421204600F0D8F90B4A0C496E
:10423C0020460C4C01F03AFF0023C4E90033A3F5EF
:10424C008033A360022000F0EBFE2046034A0649AF
:10425C00BDE8104001F02ABF10E6032000E6032061
:10426C00C1400B0004E60320C3400B00F0B5457EB3
:10427C00BDF81440022D69D0032D00F09980012D5A
:10428C006CD10589D2432A4412B2002A5DDBB0F905
:10429C000850954259DD0029BEBF5B181BB20021A6
:1042AC00B0F90A00CD188542C4BF431A1BB2002BCB
:1042BC004BDDC1F3C400DFF820C102EBC01211F0DA
:1042CC000701DBB20CEB02001AD0C1F10805404E1D
:1042DC00EDB2AB42775D3FBFA5EB030EFF2646FA6E
:1042EC000EF637401CF80260012C0CBF3E43BE4357
:1042FC00AB420CF8026028D308390B44DBB2803097
:10430C00072B19D9012C4FF0FF3518BF0025EDB242
:10431C0000F180011A46083AD2B2072A01F8805CF3
:10432C0001F18001F7D8A3F10802C2F3C4020132F3
:10433C0000EBC21003F007033BB1264AD25C0378B2
:10434C00012C0CBF134393430370F0BD4589D2433A
:10435C002A44CD180189491B12B209B2002AF4DB98
:10436C00B0F90A509542F0DD0029BEBF5B181BB2B4
:10437C000021B0F90870CE18BE42C4BF6B1A1BB234
:10438C00002BE2DDD010802510FB051112480144F2
:10439C0002F0070001228240012CD2B20B440CD156
:1043AC008B42D2D011F8010B104301F8010CF7E746
:1043BC00CD184189491B09B267E7D243D2B28B426F
:1043CC00C3D011F8010B104001F8010CF7E700BF46
:1043DC008CE1032084E1032094E10320F0B5457EB9
:1043EC00BDF81440022D34D0032D00F09B80012D1C
:1043FC0037D1D5180289521B12B20029C0F2918014
:10440C00B0F90A508D4240F38C80002ABEBF9B1835
:10441C001BB20022B0F90870D618BE42C4BFAB1A4A
:10442C001BB2002B7DDDC810802510FB05224548F2
:10443C00024401F0070001218140012CC9B2134450
:10444C0075D19A426DD012F8010B084302F8010C99
:10445C00F7E70589C9432944D5184289521B09B28B
:10446C0012B200295DDBB0F908508D4259DD002AEB
:10447C00BEBF9B181BB20022B0F90A00D5188542AA
:10448C00C4BF831A1BB2002B4BDDC2F3C400DFF890
:10449C00B4C001EBC01112F00702DBB20CEB01004F
:1044AC001AD0C2F10805284EEDB2AB42775D3FBF82
:1044BC00A5EB030EFF2646FA0EF637401CF80160FA
:1044CC00012C0CBF3E43BE43AB420CF8016028D319
:1044DC00083A1344DBB28030072B19D9012C4FF06A
:1044EC00FF3518BF0025EDB200F180011A46083ADD
:1044FC00D2B2072A01F8805C01F18001F7D8A3F150
:10450C000802C2F3C402013200EBC21003F007032D
:10451C003BB10E4AD25C0378012C0CBF134393437E
:10452C000370F0BD4589C943294409B265E7C94305
:10453C00C9B29A42F5D012F8010B084002F8010CEE
:10454C00F7E700BF94E103208CE1032084E1032012
:10455C00F8B50D1E064614461F462DDB00F0CAFBAF
:10456C00A84229DD002C27DB304600F0C6FBA04218
:10457C0022DD304600F0BCFB02281ED0032825D0DB
:10458C00012804D13389E2431A442C4615B2002C7D
:10459C002246B8BFE21DD210802112FB01550E49F4
:1045AC00012204F007044B5702FA04F464B2974258
:1045BC000CBF2343A3434B55F8BD31897289013994
:1045CC00E4434D1B14442DB224B2E0E77389013B44
:1045DC005B1B25461CB2DAE794E1032038B5402278
:1045EC0004460D46802100F0A7FA064B2360FF23FA
:1045FC0084F8213063774FF6FF73E38384F82050FF
:10460C00204638BD6C6A0B0002484FF480620021D2
:10461C0002F0BAB994E1032013B50B4C2178BFF327
:10462C005B8F11F001010BD120460191FFF73AFD90
:10463C00019928B1054800F02BFE2046FFF737FD05
:10464C00024802B010BD00BF38E603203CE6032050
:10465C0007B590F8223043B10191FFF7DDFF0199C6
:10466C0003B05DF804EB00F0C7BE0B46817F407FC2
:10467C00012203B05DF804EB01F0B8BC38B590F939
:10468C001D30013304460D461DD090F92100012147
:10469C0080B201F092FC94F91F00002180B201F06D
:1046AC008CFC94F92100002180B201F086FC294693
:1046BC002046FFF7CDFF94F921000121BDE83840D9
:1046CC0080B201F07ABC01F0C9FC94F91B1001F026
:1046DC0031FB01F0C3FC036800219B68984701F093
:1046EC00BDFC036829469B68984701F0B7FCBDE800
:1046FC00384001F026BB0000F8B521210446FFF735
:10470C00BDFF00212046FFF7B9FF7F212046FFF7B0
:10471C00B5FF22212046FFF7B1FF00212046FFF70D
:10472C00ADFF07212046FFF7A9FF94F91D30294F53
:10473C0001332AD094F92100012180B201F03DFC13
:10474C0094F91F00012180B201F037FC94F921008B
:10475C00002180B201F031FC012000F001FB4FF48C
:10476C008065013D17F8011B2046ADB2FFF770FFC5
:10477C00002DF6D1012000F0F3FA94F9210001216B
:10478C00BDE8F84080B201F018BC002501F066FCD1
:10479C0094F91B1001F0CEFA01F060FC0368402183
:1047AC009B68984705F11006B6B201F057FC0368F8
:1047BC00795D9B6898476B1C9DB2AE42F5D101F0B8
:1047CC004DFC01F0BEFAB6F5806F00D1F8BD354650
:1047DC00DCE700BF94E1032038B590F91D30017778
:1047EC00013304460D46C27600F0C98090F91F00D3
:1047FC00012180B201F0D0FB94F92100012180B29B
:10480C0001F0CAFB94F82230002B00F0A68094F93A
:10481C002100012180B201F0D0FBFFF7FDFE012148
:10482C0000F054FDFFF7F8FE102100F0BFFDFFF77C
:10483C00F3FE002100F05EFDFFF7EEFE00F032FD0E
:10484C0094F92000012180B201F0A6FB94F920001C
:10485C00012180B201F0B1FB012000F0F1FF94F9CD
:10486C002000002180B201F0A8FB0A2000F0E8FF34
:10487C0094F92000012180B201F09FFB2046AE216B
:10488C00FFF7FCFE2046D521FFF7F8FE20468021DD
:10489C00FFF7F4FE2046A821FFF7F0FE20463F214B
:1048AC00FFF7ECFE2046D321FFF7E8FE204600215F
:1048BC00FFF7E4FE20464021FFF7E0FE8D21204665
:1048CC00FFF7DCFE012D0CBF102114212046FFF751
:1048DC00D5FE20462021FFF7D1FE20460021FFF710
:1048EC00CDFE2046A121FFF7C9FE2046C821FFF7C7
:1048FC00C5FE2046DA21FFF7C1FE20461221FFF744
:10490C00BDFE81212046FFF7B9FE012D0CBF9F2172
:10491C00CF212046FFF7B2FED9212046FFF7AEFE8D
:10492C00012D0CBF2221F1212046FFF7A7FE2046C6
:10493C00DB21FFF7A3FE20464021FFF79FFE204618
:10494C00A421FFF79BFE2046A621FFF797FE2046E9
:10495C00AF21BDE83840FFF791BE94F91D0001214D
:10496C0080B201F019FB94F91E00012180B201F014
:10497C0013FB94F82230002B3FF462AF47E701F0B1
:10498C006DFB01F0CDF95BE72DE9F04F85B01F46CB
:10499C00BDF93880BDF83C30A8EB0209A7EB010A41
:1049AC00B9F1000FB8BFC9F10009BAF1000FB8BFD7
:1049BC00CAF1000AD14583460C46154604DD3A4639
:1049CC002C4647460D469046BC4205DD2A464546D8
:1049DC00904622463C4617463E1BB2B20092A8EBCC
:1049EC00050282EAE271A1EBE271C6F3C03202FA6F
:1049FC0086F64545B4BF01224FF0FF320191761087
:104A0C000292BC421CDCDBF800200393D145D2F8A7
:104A1C001080C7BF294622462A4621465846C04721
:104A2C00019A039BB61AB1B236B2002E05DA029A7D
:104A3C001544009A56182DB236B2013424B2E0E770
:104A4C0005B0BDE8F08F2DE9F347BDF82C80076861
:104A5C00BDF92890CDF800800446FF6916468A46B9
:104A6C001D46B8472368CDF8008009F1FF32324467
:104A7C00DF6951462B46204612B2B8472368CDF861
:104A8C0000809F6932464B4651462046B8476B1E04
:104A9C0003EB0A012368CDF828809D6932464B460A
:104AAC0009B22046AC4602B0BDE8F047604737B5C6
:104ABC00013B13440468BDF8185001951BB20093D8
:104ACC0064690B46A04703B030BD37B5BDF818502C
:104ADC000468CDE90025013B0B4464691BB2A04777
:104AEC0003B030BD2DE9F347BDF92890BDF82C80FB
:104AFC00054692460C46CE18B4420BDA2B68CDF81C
:104B0C0000809F6921464B46524628460134B847DF
:104B1C0024B2F1E702B0BDE8F08713B50268019149
:104B2C00B0F90E100091546AB0F90C300022114605
:104B3C00A04702B010BD704730B54281C2814FF022
:104B4C00FF320024054D4261012244600560018161
:104B5C00818104610283827630BD00BFA06F0B009F
:104B6C002DE9F04F2DED028B8DB007460491BDF869
:104B7C0060100591BDF864100691B0F90C10049802
:104B8C009DF86850814252DDB7F90E1091424EDD0E
:104B9C00062111FB0504002C49DD02EBC504002C99
:104BAC0045DD03EB83030B9393B2079308339BB25E
:104BBC00089100240993052C1CBF2C4B0B9A079EC3
:104BCC0016BF1B1900239B5C0393049AABB20A9388
:104BDC0004FB05F313FA82F31BB204EB020A08EE92
:104BEC00103AB0460FFA85F90FFA8AFA039BDB07E5
:104BFC002FD5012D3B681FD1D3F810B0059B32B2D5
:104C0C0051463846D847039B5B0803930A9B0136F1
:104C1C009844099BB6B2B3421FFA88F8E6D1089BB8
:104C2C00013B013413F0FF0364B20893C3D10DB000
:104C3C00BDEC028BBDE8F08F059ACDE9009218EE21
:104C4C00101AD3F824B00FFA88F24B463846D847DE
:104C5C00D9E7DDE905239342D5D0012D3B6803D17B
:104C6C00D3F810B0069BCAE7069AE6E79C6A0B00DD
:104C7C0030B50A2985B0044607D1027E638A03EB5E
:104C8C00C20363820023238221E00D291FD0037EFF
:104C9C000293C38A0193838A0093B0F912200B46C6
:104CAC00B0F91010FFF75CFF207E238A00EB400167
:104CBC0003EB4103A17E1BB20246238239B1B4F946
:104CCC000C106FF0050505FB00118B42D6DC0120A2
:104CDC0005B030BD018242827047012938BF0121E5
:104CEC0001767047C182818270478182C28270478F
:104CFC00407E7047B0F90C007047B0F90E00704759
:104D0C0008B5024B1B689B68019308BD6802030041
:104D1C0008B5024B1B68DB68019308BD68020300F1
:104D2C0008B5024B1B689B68019308BD2C0203005D
:104D3C0008B5024B1B68DB68019308BD2C0203000D
:104D4C0008B5024B1B681B69019308BD2C020300BC
:104D5C0008B5024B1B685B68019308BD1802030081
:104D6C0008B5024B1B68DB68019308BD18020300F1
:104D7C0008B5024B1B685B69019308BD1802030060
:104D8C0008B5024B1B689B6D019308BD180203000C
:104D9C0008B5024B1B685B6E019308BD180203003B
:104DAC0008B5024B1B685B6C019308BD48020300FD
:104DBC0008B5024B1B689B6C019308BD48020300AD
:104DCC0008B5024B1B685B69019308BD64020300C4
:104DDC0008B5024B1B681B68019308BD3C0203001D
:104DEC0008B5024B1B68DB68019308BD3C0203004D
:104DFC0008B5024B1B681B69019308BD3C020300FC
:104E0C0008B5024B1B685B69019308BD3C020300AB
:104E1C0008B5024B1B689B69019308BD3C0203005B
:104E2C0008B5024B1B68DB69019308BD3C0203000B
:104E3C0008B5024B1B681B6A019308BD3C020300BA
:104E4C0008B5024B1B689B6A019308BD3C0203002A
:104E5C0008B5024B1B68DB68019308BD28020300F0
:104E6C0008B5024B1B689B69019308BD280203001F
:104E7C0008B5024B1B68DB69019308BD28020300CF
:104E8C0008B5024B1B681B6A019308BD280203007E
:104E9C0008B5024B1B685B6A019308BD280203002E
:104EAC0008B5024B1B689B6A019308BD28020300DE
:104EBC0008B5024B1B68DB6A019308BD280203008E
:104ECC0008B5024B1B681B6B019308BD280203003D
:104EDC0008B5024B1B685B6B019308BD28020300ED
:104EEC0008B5024B1B681B6C019308BD280203001C
:104EFC0008B5024B1B681B68019308BD3002030008
:104F0C0008B5024B1B689B68019308BD3002030077
:104F1C0008B5024B1B68DB68019308BD3002030027
:104F2C0008B5024B1B681B69019308BD30020300D6
:104F3C0008B5024B1B685B69019308BD3002030086
:104F4C0008B5024B1B68DB69019308BD30020300F6
:104F5C0008B5024B1B681B6A019308BD30020300A5
:104F6C0008B5024B1B685B6A019308BD3002030055
:104F7C0008B5024B1B681B6C019308BD3002030083
:104F8C0008B5024B1B685B6C019308BD3002030033
:104F9C0008B5024B1B681B68019308BD4C0203004B
:104FAC0008B5024B1B685B68019308BD4C020300FB
:104FBC0008B5024B1B681B69019308BD4C0203002A
:104FCC0008B5024B1B685B69019308BD4C020300DA
:104FDC0008B5024B1B689B69019308BD4C0203008A
:104FEC0008B5024B1B68DB69019308BD4C0203003A
:104FFC0008B5024B1B681B6A019308BD4C020300E9
:10500C0008B5024B1B685B6B019308BD6002030083
:10501C0008B5024B1B681B68019308BD20020300F6
:10502C0008B5024B1B685B68019308BD20020300A6
:10503C0008B5024B1B685B69019308BD2002030095
:10504C0008B5024B1B689B6D019308BD2002030041
:10505C0008B5034B1B68D3F88830019308BD0000DA
:10506C002002030008B5034B1B68D3F8943001935E
:10507C0008BD00002002030008B5024B1B685B68EA
:10508C00019308BD4002030008B5024B1B689B68E6
:10509C00019308BD4002030008B5024B1B68DB6896
:1050AC00019308BD4002030008B5024B1B681B6945
:1050BC00019308BD4002030008B5024B1B685B69F5
:1050CC00019308BD4002030008B5024B1B689B69A5
:1050DC00019308BD4002030008B5024B1B68DB6955
:1050EC00019308BD4002030008B5024B1B681B6A04
:1050FC00019308BD4002030008B5024B1B681B6BF3
:10510C00019308BD4002030008B5024B1B685B6BA2
:10511C00019308BD4002030008B5024B1B681B6CD1
:10512C00019308BD4002030008B5024B1B685B6C81
:10513C00019308BD4002030008B5024B1B689B6835
:10514C00019308BD4402030008B5024B1B685B6960
:10515C00019308BD4402030008B5024B1B68DB6ACF
:10516C00019308BD4402030008B5024B1B681B6B7E
:10517C00019308BD4402030008B5024B1B68DB6BAE
:10518C00019308BD4402030008B5024B1B681B6861
:10519C00019308BD1C02030008B5024B1B685B6839
:1051AC00019308BD1C02030008B5024B1B689B68E9
:1051BC00019308BD1C02030008B5024B1B681B6958
:1051CC00019308BD1C02030008B5024B1B685B6A07
:1051DC00019308BD1C02030008B5024B1B681B6C35
:1051EC00019308BD1C02030008B5024B1B685B6CE5
:1051FC00019308BD1C02030008B5024B1B68DB6C55
:10520C00019308BD1C020300002240681146FFF701
:10521C006BBF002240681146FFF776BF4068002242
:10522C00FFF76ABF4068002281F00101FFF754BF0D
:10523C00002340681A461946FFF746BF0023406812
:10524C001A461946FFF738BF002240681146FFF78F
:10525C002BBF002240681146FFF716BF40680022A2
:10526C000221FFF719BF002340681A46FFF704BF5D
:10527C00024B03225A60024A1A60704744E603202C
:10528C00D86F0B000021FFF77BBE0021FFF770BE2B
:10529C0010B5044608462170FFF752FE00236360E8
:1052AC00204610BD13B504460078FFF7EEFF58B941
:1052BC00207801904FF6FF71FFF71AFE019802B0AB
:1052CC00BDE81040FFF7DEBF02B010BD13B50446B9
:1052DC0000780191FFF7D9FF019948B92078019026
:1052EC00FFF70EFE019802B0BDE81040FFF7CABFF1
:1052FC0002B010BD13B5044600780191FFF7C5FF4D
:10530C00019948B920780190FFF702FE019802B08C
:10531C00BDE81040FFF7B6BF02B010BD400830B575
:10532C001860002418688842E5B206D90134082CAC
:10533C0002D040081860F5E70725024B5B5D13703F
:10534C0030BD00BF0C700B002DE9F04188B000237C
:10535C000446007802930E461746FFF796FF054663
:10536C0000BB94F800800146142203A801F00CFB4A
:10537C000B232A4603A94046ADF80C30FFF7F0FD8D
:10538C0004988DF8075002AB0DF1070207FB06F1EC
:10539C00FFF7C4FF20789DF80710FFF7C1FD2078B8
:1053AC00FFF770FF029808B0BDE8F08138B50446ED
:1053BC0000780D46FFF769FF0346D0B9616899B1D3
:1053CC000C4A12F8010B854202D00133082BF8D19C
:1053DC000133DBB20122D9402046FFF7B5FF20781C
:1053EC00BDE83840FFF74EBF20782946FFF798FDFF
:1053FC00F5E738BD0C700B0008B50078FFF798FD89
:10540C00C0B208BD10B5094B094C02221A6000202D
:10541C00084BA360C4E90000FFF702FE2046064AD1
:10542C000649BDE8104000F041BE00BF58E603201D
:10543C004CE603200000FFFF00E60320C3400B00F6
:10544C0010B504460068FFF7A7FE204610BD10B546
:10545C000446006808B1FFF79FFE0023C4E901333E
:10546C00236010BD38B504460D4600680131FFF7C6
:10547C009BFE10B1C4E90005012038BD10B50368CE
:10548C00044623B143688B4201D3012010BD204652
:10549C00FFF7E8FF0028F9D0A368002BF5D12268AC
:1054AC001370F2E737B50D46114601920446FFF72B
:1054BC00E5FF019A28B92046FFF7C9FF204603B043
:1054CC0030BDA2602946206801F050FA2268A3681A
:1054DC000021D154F2E7002313B5C0E90033044690
:1054EC008360037341B10846019101F08BFA019975
:1054FC0002462046FFF7D6FF204602B010BD38B555
:10550C00054600680C4668B16A688B689A4207D3F6
:10551C00096801F06FFAA368AB600023A36038BD83
:10552C00FFF73AFE23682B6063686B60A368AB607F
:10553C000023C4E90033F1E7884210B5044601D0DA
:10554C00FFF7DDFF204610BDF8B59A420F461D4609
:10555C000C4988BF13461446064684BF2C461D468C
:10556C00FFF7B9FFBB68A3420AD33968AB4294BFBB
:10557C00C4EB0302C4EB050221443046FFF792FF53
:10558C003046F8BD68710B0010B50446006808B1D0
:10559C00FFF70EFC204610BD10B58368044613B10E
:1055AC00032201469847204610BD000010B5064C5A
:1055BC00002320462360FFF7F3FB2046034A0449EF
:1055CC00BDE8104000F072BD5CE6032000E603204D
:1055DC0095550B00F8B506460D468F180024BD42B4
:1055EC000CD0336815F8011B9B6830469847031E96
:1055FC0001DB1C44F3E7002C08BF1C462046F8BD19
:10560C0013B50446084659B1019101F0FBF9236822
:10561C000199DB680246204602B0BDE810401847ED
:10562C0002B010BD03689B68184738B50D210546BC
:10563C00FFF7F8FF0A2104462846FFF7F3FF204442
:10564C0038BD30B58BB00023012A8DF8243098BFBB
:10565C000A2209AC0D46B1FBF2F101FB125303F027
:10566C00FF03092B94BF30333733DBB2AA4204F863
:10567C00013DEFD92146FFF7C3FF0BB030BD2DE93B
:10568C00F04186B000AF05460E46381D1421144675
:10569C003B60FFF799FD13280ED8391D2846FFF7FC
:1056AC00AFFF04461EB12846FFF7BFFF0444204657
:1056BC001837BD46BDE8F08100F1080323F007035D
:1056CC00E846ADEB030D2246411C3B686846FFF7EC
:1056DC007BFD69462846FFF793FF0446C546E1E784
:1056EC00002340681A461946FFF7E6BC014B024AF4
:1056FC001A60704760E6032014700B0008B5002098
:10570C00FFF732FD28B1FFF71FFD80F00100C0B29A
:10571C0008BD0120FCE70000FAEE087AB4EEE70AB7
:10572C00F1EE10FA08B511D4F2EE0C7AB4EEE70AE9
:10573C00F1EE10FA0ADCDFED067A60EE277A17EE4E
:10574C00900A01F0ABF8034BC3E9000108BD00BFA0
:10575C000000614570E6032030B593B0CDE900231D
:10576C00194B0446D3E90010019B521843EB00037C
:10577C001648D0E90010521843EB0003CDE9002382
:10578C0024220DEB0200002101F0FEF8002509A9EE
:10579C006846FFF731FD1622294603A8029501F051
:1057AC00F3F802A909A801F0ADF802A801F02AF952
:1057BC0012AB184402A900F8415C2046FFF78BFE9F
:1057CC00204613B030BD00BF70E6032068E603200E
:1057DC0010B50020FFF7D4FA0446A0B9FFF718FC67
:1057EC00012810D12046FFF72BFC60B9FFF786FF8C
:1057FC0010B9FFF7A1FCF9E7FFF780FFBDE81040F7
:10580C000020FFF7BDBA204610BD1FB5FFF7E0FF23
:10581C0010220021684601F0B7F800216846FFF716
:10582C00B7FA009805B05DF804FB0000024B1A684B
:10583C00024B1A60704700BF94E5032064E6032016
:10584C000021FFF7F5BB10B50446FFF7A5FE204677
:10585C0010BD00000348044A04490023836000F093
:10586C0025BC00BF78E6032000E6032053580B004C
:10587C00014B1860704700BF98E5032008B50B4B2F
:10588C0043B100F067F903681B699847002801DDF4
:10589C00AFF30080064B43B100F0DAF903681B69E3
:1058AC009847002801DDAFF3008008BD0000000020
:1058BC000000000008B5FFF7E1FFFFF759FA014BB4
:1058CC00186008BDD8E703200548064A064908B504
:1058DC00121A01F04BF8054B054A1A6008BD00BFBF
:1058EC0000F4032004F4032060720B0000F4032086
:1058FC001E1C279A07B5002300931A466FF07701F8
:10590C00FFF7B0FB03B05DF804FB000007B543885C
:10591C000A2B08D0502B0BD1094B1B684BB103B091
:10592C005DF804EB1847FFF7E5FF03B05DF804FBE7
:10593C00002300931A466FF07701FFF793FBF4E70F
:10594C008CE6032010B512480021FFF74DFC114BDB
:10595C001A68114B9A42114B0CBF012200221A708B
:10596C0001D0FFF7B1FFFFF7F3F9044601F014F88B
:10597C000B4B13B12046AFF3008000210848FFF712
:10598C00FBFBBDE8104007480021FFF761BB00BFDF
:10599C007D580B0000F403201E1C279A88E6032078
:1059AC000000000019590B00704710B5182104466F
:1059BC0000F081FB204610BDF0B5037D062B8DB0A9
:1059CC000E4600F104074FF0000412D000F1080558
:1059DC0015F8011D0A223046FFF733FEAF4204448E
:1059EC0019D0002CF4D02E213046FFF71BFE0444B6
:1059FC00EEE72F236A4639460A208DF80040FFF760
:105A0C00DFF9684600F0FEFF33680246DB68694642
:105A1C0030469847044620460DB0F0BD10B5054BF6
:105A2C000446112240F8043B002100F0ADFF204653
:105A3C0010BD00BF3C700B000346074A10B543F87D
:105A4C00042B01F1100251F8044B43F8044B914222
:105A5C00F9D10A781A7010BD3C700B0010B59DF886
:105A6C00084044EA032343EA024242EA0161042368
:105A7C004160037510BD000007B5064B0360CB7881
:105A8C0000938B784A780978FFF7E8FF03B05DF84C
:105A9C0004FB00BF3C700B0041747047704708B5A5
:105AAC000021007CFFF794FA40EAE07008BD08B5CD
:105ABC000121007CFFF78CFA40EAE07008BD08B5C4
:105ACC00007CFFF77DFA20EAE07008BD08B5007C89
:105ADC00FFF76EFA20EAE07008BD13B50446007CAF
:105AEC000191FFF76DFA0028019901DC607C20B16F
:105AFC00207CFFF775FA20EAE07002B010BD007C44
:105B0C00FFF776BA10B51421044600F0D4FA2046FB
:105B1C0010BD000010B54FF47A73044608460021FE
:105B2C00C4E90113044B23600123207463741146F0
:105B3C00FFF72EFA204610BD50700B00007C00229F
:105B4C00FFF72EBA10B514220446002100F01CFFFA
:105B5C00204610BD10B5104C88B003A8FFF7F2FF1B
:105B6C002178BFF35B8F11F0010111D12046019117
:105B7C00FEF798FA019958B103AA0848FFF7CAFF33
:105B8C002046FEF794FA064A0649044800F08EFABD
:105B9C00024808B010BD00BF90E6032094E6032035
:105BAC0000E60320A95A0B0070474174704708B5F2
:105BBC00007CFFF745F920EAE07008BD08B5007CD1
:105BCC00FFF716F920EAE07008BD08B5007CFFF776
:105BDC001FF940EAE07008BD08B5007CFFF710F92A
:105BEC0040EAE07008BD007CFFF71AB937B5457C78
:105BFC0004462DB1207C03B0BDE83040FFF7F0B86F
:105C0C00007C0191FFF71CF900280199F2DC284671
:105C1C0003B030BD10B51421044600F04CFA2046F8
:105C2C0010BD000010B54FF0000C0446084611469C
:105C3C004FF47A72C4E901C2044A22600122207432
:105C4C0062741A46FFF7C4F8204610BD80700B0032
:105C5C0013B50E4C2178BFF35B8F11F0010112D1FB
:105C6C0020460191FEF71EFA019960B1084A094BD2
:105C7C000948FFF7D7FF2046FEF719FA074A0849EB
:105C8C00054800F013FA044802B010BDA8E6032042
:105C9C00ACE6032030E70320B4E7032000E6032042
:105CAC00B55B0B007047F8B5064615460C468F18C9
:105CBC00BC4206D0336814F8011B9B6830469847E9
:105CCC00F6E72846F8BD007C0022FFF7D9B8007C27
:105CDC000021FFF7DDB8007C0021FFF7E1B8007C64
:105CEC000021FFF7E5B8007C0021FFF7E9B810B5FB
:105CFC001421044600F0DFF9204610BD10B54FF416
:105D0C007A73044608460021C4E90113034B23604F
:105D1C0020741146FFF7E4F8204610BDB0700B005C
:105D2C000023007C1A461946FFF792B8007C00222B
:105D3C00FFF796B8C9B2FFF7F9BF007C0022FFF756
:105D4C0097B80121FFF7F9BF002240681146FFF711
:105D5C00ABB9002240681146FFF7C6B90022406873
:105D6C001146FFF7D1B940680022FFF7C5B940686A
:105D7C00002281F00101FFF7AFB9002340681A46F9
:105D8C001946FFF7A1B9002240681146FFF77CB90C
:105D9C00406800220221FFF77FB9002340681A46B1
:105DAC00FFF76AB9024B04225A60024A1A60704724
:105DBC00C8E70320D8700B00002340681A46FFF791
:105DCC005BB9406800220221FFF766B900224068E7
:105DDC001146FFF759B9002240681146FFF764B924
:105DEC00002340681A461946FFF766B9002340683D
:105DFC001A461946FFF768B940680021FFF78CB9BD
:105E0C0040680021FFF790B94068002281F0010141
:105E1C00FFF762B940680022FFF76EB900224068B4
:105E2C001146FFF771B9002240681146FFF75CB9C3
:105E3C002DE9F04395B014460D460746FFF7EEFDED
:105E4C0000211C220DA8009100F09EFD40230C9314
:105E5C0020466B460CAA0021FEF75AFF0446002888
:105E6C004BD1024601216868FFF71EF902218046DA
:105E7C0022466868FFF718F9009E81462146002EDD
:105E8C003BD0002939D17368022B03D00A2B11D0D7
:105E9C00F669F4E7B8F1000FFAD0716906A804317D
:105EAC0007ADFFF7E9FD0FCD3C1D0FC42B68237028
:105EBC004146EDE7B9F1000FEAD07469102201A850
:105ECC0000F062FD06238DF8143001AD04F10803D7
:105EDC001834186859682A4603C20833A342154679
:105EEC00F7D101A906A807ADFFF7A6FD0FCD3C1D04
:105EFC000FC42B6823704946CAE70098FEF700FFD1
:105F0C00384615B0BDE8F083024B034A1A600022F4
:105F1C005A607047D0E7032014710B00232813B587
:105F2C0002D9002002B010BDA0F10B03022B1AD82D
:105F3C00174C2178BFF35B8F11F001010BD1204678
:105F4C000191FEF7AFF8019928B11248FFF7A0F9BB
:105F5C002046FEF7ACF80F4B1878FEF7F9FF002837
:105F6C00DFD10120DEE7012809D800F077F8002105
:105F7C00007CFEF7ADFF80F00100C0B2D2E709381B
:105F8C000128EED8FFF764FE007CFEF751FFF2E724
:105F9C0038E603203CE60320232838B504460D469A
:105FAC000AD8FF2908D0FFF7B9FF28B129462046A7
:105FBC00BDE83840FEF7B4BE38BD38B504460D46D2
:105FCC00FEF7B6FEFF2810D0062804D84D2323FA7E
:105FDC0000F0C30709D42046FFF7A0FF28B12946DB
:105FEC002046BDE83840FEF7ABBE38BD2DE9F04188
:105FFC0090461F46072406460D46C4F10701B8F12A
:10600C00000F12D147FA01F101F001013046FFF700
:10601C00D4FF01212846FFF7D0FF00212846FFF7C7
:10602C00CCFF013CE9D2BDE8F08147FA04F1EBE783
:10603C0038B52025142304460360856005610649A4
:10604C00284600F03AF804496060284600F035F81C
:10605C00E060204638BD00BF48710B0030B50F4DD5
:10606C002978BFF35B8F11F0010487B013D1284658
:10607C00FEF718F878B101A8FFF7DAFF01AA21465C
:10608C000748FFF73BFE2846FEF711F8054A06497C
:10609C00034800F00BF8024807B030BDDCE70320E2
:1060AC00E0E7032000E60320B15C0B000B46014641
:1060BC00184600F04DBCFDF7E8BFFDF7E4BF00004B
:1060CC0081F0004102E000BF83F0004330B54FEA9D
:1060DC0041044FEA430594EA050F08BF90EA020F0A
:1060EC001FBF54EA000C55EA020C7FEA645C7FEA9D
:1060FC00655C00F0E2804FEA5454D4EB5555B8BFC0
:10610C006D420CDD2C4480EA020281EA030382EA30
:10611C00000083EA010180EA020281EA0303362DC2
:10612C0088BF30BD11F0004F4FEA01314FF4801C95
:10613C004CEA113102D0404261EB410113F0004FA7
:10614C004FEA03334CEA133302D0524263EB43035E
:10615C0094EA050F00F0A780A4F10104D5F1200EFC
:10616C000DDB02FA0EFC22FA05F2801841F1000157
:10617C0003FA0EF2801843FA05F359410EE0A5F12B
:10618C0020050EF1200E012A03FA0EFC28BF4CF05C
:10619C00020C43FA05F3C01851EBE37101F0004512
:1061AC0007D54FF0000EDCF1000C7EEB00006EEB1F
:1061BC000101B1F5801F1BD3B1F5001F0CD34908A9
:1061CC005FEA30004FEA3C0C04F101044FEA445200
:1061DC0012F5800F80F09A80BCF1004F08BF5FEA87
:1061EC00500C50F1000041EB045141EA050130BD67
:1061FC005FEA4C0C404141EB0101013C28BFB1F579
:10620C00801FE9D291F0000F04BF01460020B1FAC3
:10621C0081F308BF2033A3F10B03B3F120020CDA96
:10622C000C3208DD02F1140CC2F10C0201FA0CF074
:10623C0021FA02F10CE002F11402D8BFC2F1200CD9
:10624C0001FA02F120FA0CFCDCBF41EA0C0190408F
:10625C00E41AA2BF01EB0451294330BD6FEA0404D8
:10626C001F3C1CDA0C340EDC04F11404C4F12002C3
:10627C0020FA04F001FA02F340EA030021FA04F3D5
:10628C0045EA030130BDC4F10C04C4F1200220FA2C
:10629C0002F001FA04F340EA0300294630BD21FA6A
:1062AC0004F0294630BD94F0000F83F4801306BF30
:1062BC0081F480110134013D4EE77FEA645C18BF24
:1062CC007FEA655C29D094EA050F08BF90EA020FBB
:1062DC0005D054EA000C04BF1946104630BD91EAB3
:1062EC00030F1EBF0021002030BD5FEA545C05D1B6
:1062FC004000494128BF41F0004130BD14F58004F5
:10630C003CBF01F5801130BD01F0004545F0FE4168
:10631C0041F470014FF0000030BD7FEA645C1ABF9D
:10632C00194610467FEA655C1CBF0B46024650EAD4
:10633C00013406BF52EA033591EA030F41F4002100
:10634C0030BD00BF90F0000F04BF0021704730B586
:10635C004FF4806404F132044FF000054FF000015B
:10636C0050E700BF90F0000F04BF0021704730B51C
:10637C004FF4806404F1320410F0004548BF4042F1
:10638C004FF000013EE700BF42004FEAE2014FEA46
:10639C0031014FEA02701FBF12F07F4393F07F4F21
:1063AC0081F06051704732F07F4208BF704793F024
:1063BC007F4F04BF41F40021704730B54FF4607437
:1063CC0001F0004521F000411CE700BF50EA01023A
:1063DC0008BF704730B54FF000050AE050EA0102E3
:1063EC0008BF704730B511F0004502D5404261EB53
:1063FC0041014FF4806404F132045FEA915C3FF494
:10640C00D8AE4FF003025FEADC0C18BF03325FEA30
:10641C00DC0C18BF033202EBDC02C2F1200300FAE1
:10642C0003FC20FA02F001FA03FE40EA0E0021FA06
:10643C0002F11444BDE600BF70B54FF0FF0C4CF4F4
:10644C00E06C1CEA11541DBF1CEA135594EA0C0FA6
:10645C0095EA0C0F00F0DEF82C4481EA030621EAE1
:10646C004C5123EA4C5350EA013518BF52EA03351C
:10647C0041F4801143F4801338D0A0FB02CE4FF0CE
:10648C000005E1FB02E506F00042E0FB03E54FF0FE
:10649C000006E1FB03569CF0000F18BF4EF0010EF6
:1064AC00A4F1FF04B6F5007F64F5407404D25FEAF2
:1064BC004E0E6D4146EB060642EAC62141EA5551A5
:1064CC004FEAC52040EA5E504FEACE2EB4F1FD0CE7
:1064DC0088BFBCF5E06F1ED8BEF1004F08BF5FEA65
:1064EC00500E50F1000041EB045170BD06F0004617
:1064FC0046EA010140EA020081EA0301B4EB5C04C4
:10650C00C2BFD4EB0C0541EA045170BD41F48011BB
:10651C004FF0000E013C00F3AB8014F1360FDEBFE0
:10652C00002001F0004170BDC4F10004203C35DABC
:10653C000C341BDC04F11404C4F1200500FA05F33F
:10654C0020FA04F001FA05F240EA020001F00042E0
:10655C0021F0004110EBD37021FA04F642EB060156
:10656C005EEA430E08BF20EAD37070BDC4F10C0480
:10657C00C4F1200500FA04F320FA05F001FA04F244
:10658C0040EA020001F0004110EBD37041F1000130
:10659C005EEA430E08BF20EAD37070BDC4F120053B
:1065AC0000FA05F24EEA020E20FA04F301FA05F2A3
:1065BC0043EA020321FA04F001F0004121FA04F24B
:1065CC0020EA020000EBD3705EEA430E08BF20EA1B
:1065DC00D37070BD94F0000F0FD101F00046400055
:1065EC0041EB010111F4801F08BF013CF7D041EAD7
:1065FC00060195F0000F18BF704703F000465200DB
:10660C0043EB030313F4801F08BF013DF7D043EAAB
:10661C000603704794EA0C0F0CEA135518BF95EA61
:10662C000C0F0CD050EA410618BF52EA4306D1D1E8
:10663C0081EA030101F000414FF0000070BD50EA07
:10664C00410606BF1046194652EA430619D094EA91
:10665C000C0F02D150EA013613D195EA0C0F05D17B
:10666C0052EA03361CBF104619460AD181EA0301CF
:10667C0001F0004141F0FE4141F470014FF0000087
:10668C0070BD41F0FE4141F4780170BD70B54FF022
:10669C00FF0C4CF4E06C1CEA11541DBF1CEA1355A2
:1066AC0094EA0C0F95EA0C0F00F0A7F8A4EB050484
:1066BC0081EA030E52EA03354FEA013100F088807B
:1066CC004FEA03334FF0805545EA131343EA126344
:1066DC004FEA022245EA111545EA10654FEA0026F9
:1066EC000EF000419D4208BF964244F1FD0404F5B2
:1066FC00407402D25B084FEA3202B61A65EB03050E
:10670C005B084FEA32024FF480104FF4002CB6EBCA
:10671C00020E75EB030E22BFB61A754640EA0C004A
:10672C005B084FEA3202B6EB020E75EB030E22BF8A
:10673C00B61A754640EA5C005B084FEA3202B6EBCB
:10674C00020E75EB030E22BFB61A754640EA9C008A
:10675C005B084FEA3202B6EB020E75EB030E22BF5A
:10676C00B61A754640EADC0055EA060E18D04FEA18
:10677C00051545EA16754FEA06164FEAC30343EAB8
:10678C0052734FEAC2025FEA1C1CC0D111F4801F85
:10679C000BD141EA00014FF000004FF0004CB6E77E
:1067AC0011F4801F04BF01430020B4F1FD0C88BF1D
:1067BC00BCF5E06F3FF6AFAEB5EB030C04BFB6EB28
:1067CC00020C5FEA500C50F1000041EB045170BD1B
:1067DC000EF0004E4EEA113114EB5C04C2BFD4EB48
:1067EC000C0541EA045170BD41F480114FF0000ECC
:1067FC00013C90E645EA060E8DE60CEA135594EA48
:10680C000C0F08BF95EA0C0F3FF43BAF94EA0C0F4A
:10681C000AD150EA01347FF434AF95EA0C0F7FF4BF
:10682C0025AF104619462CE795EA0C0F06D152EA13
:10683C0003353FF4FDAE1046194622E750EA4106F7
:10684C0018BF52EA43067FF4C5AE50EA41047FF408
:10685C000DAF52EA43057FF4EBAE12E74A0011D2BA
:10686C0012F5001211D20DD56FF47873B3EB62529E
:10687C000ED44FEAC12343F0004343EA505323FAAA
:10688C0002F070474FF00000704750EA013002D11F
:10689C004FF0FF3070474FF00000704707EE900A42
:1068AC00F5EEC07AF1EE10FA01D400F00BB8F1EE6F
:1068BC00677A08B517EE900A00F004F8404261EBD5
:1068CC00410108BDD0B5FFF75FFD0C4B0022064619
:1068DC000F46FFF7B1FDFFF7C1FF0446FFF732FD8E
:1068EC00074B0022FFF7A8FD02460B4630463946FF
:1068FC00FFF7EAFBFFF7B2FF2146D0BD0000F03DE9
:10690C000000F04110B50C4641690369826986B0FC
:10691C0001F26C71049101680391416802918168E4
:10692C000191C1680091074903EB43030B440649ED
:10693C0002EB42020A4420460449FEF73DFC204685
:10694C0006B010BD7E710B0069710B0049710B0014
:10695C0010B5054C13462CB10A4601460220AFF384
:10696C00008010BD2046FCE7000000000A44914264
:10697C0000F1FF3300D1704710B511F8014B03F84B
:10698C00014F9142F9D110BD02440346934200D10C
:10699C00704703F8011BF9E738B5104B1D68AB6B5A
:1069AC000446B3B91820FEF7EFFB0246A86320B9E2
:1069BC000B4B0C484221FEF70FFC0B490B4BC0E96B
:1069CC0000130B4B83600B23838100210120C2E950
:1069DC000401AB6B00221C615A6138BD98E50320A1
:1069EC00A2710B00B9710B000E33CDAB34126DE6F6
:1069FC00ECDE0500034611F8012B03F8012B002AED
:106A0C00F9D17047034613F8012B002AFBD1181A51
:106A1C00013870471D400B0059400B0081400B00A2
:106A2C0085400B00000000004D79206E616D6520E3
:106A3C00697320427269616E0A00554E49582044B0
:106A4C006174652069732025730A0054696D652093
:106A5C0069732025730A000000000000000000008C
:106A6C00C1400B001D420B007D4C0B00E1550B008F
:106A7C005D450B0095490B00E9430B0079420B0077
:106A8C00534A0B00F14A0B00274B0B00434B0B00F6
:106A9C0000000000003E5B4F5B3E3E6B4F6B3E1CAC
:106AAC003E7C3E1C183C7E3C181C577D571C1C5EC3
:106ABC007F5E1C00183C1800FFE7C3E7FF0018249A
:106ACC001800FFE7DBE7FF30483A060E2629792944
:106ADC0026407F050507407F05253F5A3CE73C5A79
:106AEC007F3E1C1C08081C1C3E7F14227F22145F56
:106AFC005F005F5F06097F017F006689956A6060B1
:106B0C0060606094A2FFA29408047E040810207EAA
:106B1C00201008082A1C08081C2A08081E1010102F
:106B2C00100C1E0C1E0C30383E3830060E3E0E0675
:106B3C00000000000000005F0000000700070014C8
:106B4C007F147F14242A7F2A122313086462364987
:106B5C005620500008070300001C2241000041226F
:106B6C001C002A1C7F1C2A08083E08080080703074
:106B7C0000080808080800006060002010080402E3
:106B8C003E5149453E00427F4000724949494621E9
:106B9C0041494D331814127F1027454545393C4A5D
:106BAC004949314121110907364949493646494974
:106BBC00291E0000140000004034000000081422BC
:106BCC00411414141414004122140802015909062A
:106BDC003E415D594E7C1211127C7F494949363E2B
:106BEC00414141227F4141413E7F494949417F0911
:106BFC000909013E414151737F0808087F00417F1C
:106C0C0041002040413F017F081422417F40404019
:106C1C00407F021C027F7F0408107F3E4141413EB1
:106C2C007F090909063E4151215E7F091929462633
:106C3C004949493203017F01033F4040403F1F2037
:106C4C0040201F3F4038403F63140814630304780E
:106C5C0004036159494D43007F414141020408102E
:106C6C0020004141417F0402010204404040404069
:106C7C00000307080020545478407F2844443838D7
:106C8C0044444428384444287F3854545418000849
:106C9C007E090218A4A49C787F0804047800447D23
:106CAC0040002040403D007F1028440000417F40C0
:106CBC00007C047804787C08040478384444443814
:106CCC00FC1824241818242418FC7C0804040848F4
:106CDC005454542404043F44243C4040207C1C2045
:106CEC0040201C3C4030403C44281028444C9090A0
:106CFC00907C4464544C44000836410000007700FA
:106D0C0000004136080002010204023C2623263C06
:106D1C001EA1A161123A4040207A38545455592191
:106D2C00555579412154547841215554784020547B
:106D3C005579400C1E5272123955555559395454C7
:106D4C00545939555454580000457C410002457D36
:106D5C00420001457C40F0292429F0F0282528F038
:106D6C007C545545002054547C547C0A097F49328C
:106D7C00494949323248484832324A4848303A4107
:106D8C0041217A3A42402078009DA0A07D394444AC
:106D9C0044393D4040403D3C24FF2424487E494337
:106DAC00662B2FFC2F2BFF0929F620C0887E0903A8
:106DBC0020545479410000447D413048484A3238CF
:106DCC004040227A007A0A0A727D0D19317D2629FB
:106DDC00292F28262929292630484D4020380808F3
:106DEC00080808080808382F10C8ACBA2F10283427
:106DFC00FA00007B000008142A142222142A14081A
:106E0C00AA005500AAAA55AA55AA000000FF001016
:106E1C001010FF00141414FF001010FF00FF1010CE
:106E2C00F010F0141414FC001414F700FF0000FF11
:106E3C0000FF1414F404FC141417101F10101F106E
:106E4C001F1414141F00101010F0000000001F106D
:106E5C001010101F10101010F010000000FF101078
:106E6C0010101010101010FF10000000FF14000084
:106E7C00FF00FF00001F10170000FC04F41414178F
:106E8C0010171414F404F40000FF00F71414141475
:106E9C00141414F700F7141414171410101F101FE7
:106EAC00141414F4141010F010F000001F101F0034
:106EBC0000001F14000000FC140000F010F0101073
:106ECC00FF10FF141414FF141010101F000000000A
:106EDC00F010FFFFFFFFFFF0F0F0F0F0FFFFFF00FE
:106EEC0000000000FFFF0F0F0F0F0F384444384411
:106EFC007C2A2A3E147E02020606027E027E026371
:106F0C00554941633844443C04407E201E2006020F
:106F1C007E020299A5E7A5991C2A492A1C4C7201EC
:106F2C00724C304A4D4D303048784830BC625A462D
:106F3C003D3E494949007E0101017E2A2A2A2A2A1E
:106F4C0044445F444440514A444040444A51400008
:106F5C0000FF0103E080FF000008086B6B0836128D
:106F6C00362436060F090F06000018180000001012
:106F7C0010003040FF0101001F01011E00191D17F8
:106F8C0012003C3C3C3C00000000000000000000F3
:106F9C000000000000000000000000007D4C0B0011
:106FAC00E1550B009D400B0095490B00BB4A0B00B3
:106FBC00D74A0B00534A0B00F14A0B00274B0B002E
:106FCC00434B0B00000000000000000073520B004C
:106FDC0069520B005F520B0055520B0049520B00CB
:106FEC003D520B00055E0B000D5E0B0031520B0089
:106FFC0029520B001F520B0015520B003D5E0B006B
:10700C0000081018202830386170700025592D2583
:10701C006D2D25645425483A254D3A2553257A0083
:10702C0061736374696D650000000000000000006E
:10703C00C5590B00B5590B00B7590B0000000000E7
:10704C0000000000A95A0B00115B0B00E75A0B0063
:10705C00E1550B00D95A0B00AB5A0B00BB5A0B0075
:10706C000B5B0B00CB5A0B00A55A0B000000000069
:10707C0000000000B55B0B00215C0B00F95B0B0002
:10708C00E1550B00C95B0B00E55B0B00D75B0B00FC
:10709C00F35B0B00B75B0B00BB5B0B00000000004D
:1070AC0000000000B15C0B00FB5C0B00D35C0B0020
:1070BC00B35C0B00DB5C0B00E35C0B00EB5C0B00CC
:1070CC00F35C0B000000000000000000A75D0B004B
:1070DC009D5D0B00935D0B00555D0B00ED560B0099
:1070EC00875D0B00055E0B000D5E0B007B5D0B00DE
:1070FC00735D0B00695D0B005F5D0B003D5E0B006B
:10710C000000000000000000C55D0B00CF5D0B000F
:10711C00D95D0B00E35D0B00ED5D0B00F95D0B0021
:10712C00055E0B000D5E0B00155E0B00215E0B0067
:10713C00295E0B00335E0B003D5E0B0000252E33E9
:10714C007320252E337325336420252E32643A2583
:10715C002E32643A252E32642025640A0053756E53
:10716C004D6F6E54756557656454687546726953F6
:10717C0061744A616E4665624D61724170724D6117
:10718C00794A756E4A756C4175675365704F6374B7
:10719C004E6F764465635245454E54206D616C6C60
:1071AC006F6320737563636565646564002F6D6E32
:1071BC00742F776F726B73706163652F776F726B5F
:1071CC0073706163652F4743432D31302D706970A7
:1071DC00656C696E652F6A656E6B696E732D4743BE
:1071EC00432D31302D706970656C696E652D3438A6
:1071FC005F32303230313132345F31363036313803
:10720C00303634312F7372632F6E65776C69622F51
:10721C006E65776C69622F6C6962632F7374646C32
:10722C0069622F72616E642E630000002D420B00A8
:10723C007D520B0011540B00B9550B00F9560B0085
:10724C0039580B0061580B00B15D0B00155F0B003A
:04725C00000000002E
:04726000000000002A
:10726400000103070F1F3F7F0080C0E0F0F8FCFE21
:10727400000000000000000000000000000000000A
:1072840000000000000000000000000000000000FA
:1072940000000000000000000000000000000000EA
:1072A400000000000000000000000000000000805A
:1072B40080800000000000000000000000000000CA
:1072C400008080C0C000000000000000000000003A
:1072D40000000000000000000000000000000000AA
:1072E400000000000000000000000000000000009A
:1072F400000000000000000000000000000000008A
:107304000000000080C0E0F0F8FCF8E0000000009D
:1073140000000000000000000000000000808080E9
:10732400808000808000000000808080808000FFDA
:10733400FFFF00000000808080800000808000004B
:1073440080FFFF80800080800080808080008080BB
:107354000000000000808000008C8E84000080F813
:10736400F8F88000000000000000000000000000A9
:10737400F0F0F0F0F0F0F0F0F0F0F0F0E0E0C080C9
:1073840000E0FCFEFFFFFF7FFFFFFFFFFF000000A8
:107394000000000000000000000000FEFFC7010123
:1073A400010183FFFF00007CFEC70101010183FF8F
:1073B400FFFF0038FEC78301010183C7FFFF000000
:1073C40001FFFF010100FFFF0701010100007FFF32
:1073D40080000000FFFF7F0000FFFFFF000001FFAF
:1073E400FFFF01000000000000000000000000009A
:1073F400030F3F7F7FFFFFFFFFFFFFFFE7C7C78F3D
:107404008F9FBFFFFFC3C0F0FFFFFFFFFFFCFCFC2B
:10741400FCFCFCFCFCF8F8F0F0E0C0000103030302
:10742400030301030300000000010303030301013C
:10743400030100000001030303030101030300002F
:10744400000303000000030300000000000000012B
:107454000303030303010000000103010000000310
:107464000301000000000000000000000000000014
:1074740000000080C0E0F0F9FFFFFFFFFF3F1F0F97
:1074840087C7F7FFFF1F1F3DFCF8F8F8F87C7DFF66
:10749400FFFFFFFFFFFFFF7F3F0F070030300000BB
:1074A40000000000000000000000000000000000D8
:1074B40000000000FEFEFC000000000000000000D0
:1074C40000000000000000000000000000E0C00018
:1074D4000000000000000000000030300000000048
:1074E4000000000000000000000000000000000098
:1074F40000C0FEFFFFFFFFFFFFFFFFFF7F7F3F1F77
:107504000F071F7FFFFFF8F8FFFFFFFFFFFEF8E004
:10751400000000010000000000000000FEFE00006A
:1075240000FCFEFC0C06060EFCF80000F0F81C0E35
:107534000606060CFFFFFF0000FEFE00000000FC34
:10754400FEFC00183C7E66E6CE84000006FFFF06C3
:1075540006FCFEFC0C0606060000FEFE0000C0F859
:10756400FC4E4646464E7C7840183C76E6CECC80AF
:107574000000000000000000000000000000000007
:107584000000000001070F1F1F3F3F3F3F1F0F0375
:107594000000000000000000000000000F0F0000C9
:1075A400000F0F0F000000000F0F000003070E0C68
:1075B40018180C060F0F0F0000010F0E0C180C0FFB
:1075C400070100040E0C180C0F070000000F0F0039
:1075D400000F0F0F0000000000000F0F0000000755
:1075E400070C0C181C0C060600040E0C180C0F07D4
:1075F4000000000000000000000000000000000087
:107604000000000000000000000000000000000076
:107614000000000000000000000000000000000066
:107624000000000000000000000000000000000056
:107634000000000000000000000000000000000046
:107644000000000000000000000000000000000036
:107654000000000000000000000000000000000026
:107664000000000000000000000000000000000016
:107674002C700B009CE503200000000000000000BB
:1076840000000000000000000000000000000000F6
:1076940000000000000000000000000000000000E6
:1076A40000000000000000000000000000000000D6
:1076B40000000000000000000000000000000000C6
:1076C40000000000000000000000000000000000B6
:0876D4000000000000000000AE
:1076DC00FFFFFFFF00000102030405060708090A6B
:1076EC000B0C0D0E0F101112131415161718191A66
:0876FC001B1C1D1E1F202800AD
:04770400785634126D
:04000003B000401CED
:00000001FF
