:02000002D0002C
:1040000000400D00A4750D00000006000C00050125
:084010000401BD0B00000000DB
:04401800B46F0D0074
:10401C0009480A49884208B505D0094A824202D0AB
:10402C00121A02F04DFF0748074A0021121A02F03B
:10403C006FFF014808BD00BF34E5032014750D0067
:10404C009CE503209CE50320F0E7032070B5074EA8
:10405C00074C02F075FAA41BA4080025A54200D158
:10406C0070BD56F8043B98470135F7E7E4740D0032
:10407C000C750D0000F0D0B808B500F067F9BDE87C
:10408C00084002F01FBA00F0C9BE00F0C7BE00F035
:10409C00CDBE0078B0FA80F0400970470123037060
:1040AC00704710B50446006808B100F0BFFE20460A
:1040BC0010BD0EB403B503AB002153F8042B0193D0
:1040CC0002F07DF902B05DF804EB03B0704700001C
:1040DC002DE9F04792B014460D46074602F03AFB24
:1040EC002146064606A801F061FB002106A801F056
:1040FC0004F92146059008A801F058FB012108A8F5
:10410C0001F0FBF8214604900AA801F04FFB0221B4
:10411C000AA801F0F2F8214680460CA801F046FBF3
:10412C0003210CA801F0E9F8214681460EA801F004
:10413C003DFB04210EA801F0E0F82146824610A8B0
:10414C0001F034FB052110A801F0D7F8CDE9008966
:10415C00CDE902A0DDE904322849DFF8B080304611
:10416C00FFF7A7FF0024E6B2AE4204F1010406D229
:10417C0002F0F0FABA5D4146FFF79BFFF3E702F05D
:10418C00E9FA1F491F4DDFF88890DFF88880FFF7A8
:10419C0090FF1D48202100F0D1FB1B4800F0F4FBE0
:1041AC00002606EB4602FB1D99189B5A2B808B7838
:1041BC00AB7002F0CFFAAB7800932A786B78494653
:1041CC00FFF777FF6C782B78240244EA0344AB7832
:1041DC001C4302F0BFFA324623464146FFF769FF03
:1041EC00B1B209482246013600F064FB402ED8D10A
:1041FC00054800F0B9F912B0BDE8F087C86F0D00A2
:10420C00FA6F0D000CE6032010E6032017700D006A
:10421C00FC6F0D001D700D002DE9F0438FB002F006
:10422C0099FA4FF4165102F085FA002000F00AFCBE
:10423C004FF00009804643F697260027002000F037
:10424C0001FCB0EB080461EB0905AF4208BFA642C4
:10425C0007D302F07FFA02F071FA10B900F0CEFD2C
:10426C00ECE702F077FA02F069FA4FF4FA6002F028
:10427C00EFF801F0FDFA01F049FB02F06BFA2D4961
:10428C00FFF717FF01F0F4FA2B4A014609A801F0D9
:10429C0025FF09A801F0C9FB01F0EAFA274A0146FB
:1042AC0009A801F01BFF09A801F0BFFB244904A8D1
:1042BC0001F0D2F804A909A801F0CEF809A801F080
:1042CC0011F9044609A854BB01F02BF90094ADF880
:1042DC000E0002231B480DF10E02032101F0AEF972
:1042EC0001F0C6FA0022174901F03FFB02F032FA46
:1042FC00044601F0BDFA014604A801F00EFB04A926
:10430C0009A8002201F086F8099A0F492046FFF708
:10431C00D0FE09A800F018FE0FB0BDE8F08301F044
:10432C0005F900230246009307211023054801F0EC
:10433C0085F9D5E732700D002CE6032024E6032026
:10434C00ACE50320E8E503204F700D007047F0B595
:10435C00164691B00022C0E9002204460D460BAF70
:10436C00194606A801F078F81699384601F074F849
:10437C0033788DF81430189B0293179B2046CDE9A7
:10438C00007305AA06AB294601F086FD204611B044
:10439C00F0BD00002DE9F043354DDFF81881354CA8
:1043AC003549DFF81491354E354F91B0284601F060
:1043BC0039F93449404601F035F93349204601F0CA
:1043CC0031F91023214606A88DF8143001F044F879
:1043DC0029460BA801F040F800240BAB009305AA6A
:1043EC0006ABCDE9014429494846FFF7B0FF3246F8
:1043FC003946484602F02AFC0423414606A88DF8AB
:10440C00143001F029F829460BA801F025F8204DAD
:10441C00204B01930BAB009305AA06AB1E490294EB
:10442C002846FFF794FF32463946284602F00EFC28
:10443C001A4D1B4801F00DF902231A466421284637
:10444C0000F081F8324617492846174D02F0FEFB62
:10445C00164BAB602C60AC80AC71022000F04AFCB7
:10446C0013493246284602F0F1FB11B0BDE8F08347
:10447C00ACE50320D4E5032066700D009CE5032019
:10448C00375A0D008B700D00B0700D00D5700D00FB
:10449C0024E60320DD400D00D8700D0010E603204B
:1044AC00E8E50320C9440D00A0E503200000FFFF50
:1044BC00AF400D00C0E503202CE6032010B50446E8
:1044CC00C06808B100F0B2FC23781BB1E079002180
:1044DC0002F052FB204610BD38B50446C0680D46AC
:1044EC0008B100F0A3FCA379062B0CBF0420032019
:1044FC0010FB05F080B2A08000F090FCE06028B1C9
:10450C00A288002102F004FD658038BDA080608087
:10451C00FBE737B5037805460C461BB1C079002183
:10452C0002F02AFB2B78EC715BB1A0B20121019057
:10453C0002F022FB0198002103B0BDE8304002F0EC
:10454C002CBB03B030BD70B50025044616468371F4
:10455C00C0E9035505700572FFF7BEFF20463146D2
:10456C00FFF7D7FF204670BDC368002B00F08D818C
:10457C002DE9F04F8379023BDBB2042B9CBFC84A78
:10458C0052F8234087B0054688BF322400F04AFA1F
:10459C002B69C01AA042F9D3C24AAB8807CA06AC31
:1045AC0004E90700039CD4F800251AB9D4F8602557
:1045BC00002A7CDB049CD4F8002522B9D4F86025B1
:1045CC00002AC0F25281059CD4F80025002A00F084
:1045DC003781B54BB5481C68EB79C1681A0104EBFF
:1045EC000316A75C7378B24C41F08071C1602268ED
:1045FC0003F01F0343EA471301273A432260A988BB
:10460C00D5F80C80D4F804909F40002944D04FF08A
:10461C00000E72464FF0A04118F801CB08208026FE
:10462C0063689B1A462BFBD96268D1F808351CEAE3
:10463C00060F43EA0703C1F808352FD063689B1AAD
:10464C00282BFBD9D1F80C35013843EA07034FEA84
:10465C005606C1F80C35E3D1AB880EF1010E1FFAEA
:10466C008EFE7345D8D84FF4307101FB03F16368AB
:10467C009B1A462BFBD96368A3EB09098945C0F04B
:10468C00D9804FF4967000F0C5F9A988D5F80C8044
:10469C00D4F804900029BAD10A46E8E763689B1A5B
:1046AC00112BCFD863689B1A112BF7D9CAE7D4F812
:1046BC006425002ABFF67EAFD4F86825002ABFF621
:1046CC0079AFD4F86C25002ABFF674AF1B01043304
:1046DC001846009300F0A2FB00283FF47AAFAB8899
:1046EC00002B00F0DA80EA68013B12FA83FE02F13B
:1046FC00FF3C002348F2060248F20D011CF8017F32
:10470C0017F0800F0CBF9046884620F8138003F1F9
:10471C00010817F0400F1FFA88F80CBF93468B4620
:10472C0020F818B003F1020817F0200F1FFA88F8D0
:10473C000CBF92468A4620F818A003F1030817F024
:10474C00100F1FFA88F80CBF9146894620F8189074
:10475C0003F104091FFA89F917F0080F03F1050892
:10476C000CBF92468A461FFA88F817F0040F20F8FF
:10477C0019A00CBF9146894620F8189003F1060841
:10478C0017F0020F1FFA88F803F108060CBF9146C8
:10479C0089460733FF0720F8189001969BB275D510
:1047AC00E64520F81310BDF80430A7D1591C02338C
:1047BC0089B29BB249005B00009A4FF40047475204
:1047CC0056083949C75200224FF0140CC4F804257E
:1047DC00C4F80C25C4F808C5C4F81425C4F8102571
:1047EC00C4F82005C4F82465C4F82825C4F82C2581
:1047FC00EB790E6806EB031719017B78715C03F0FB
:10480C001F0343EA41130121C4F86035C4F80015B5
:10481C00C4F81021A160D4F81031002BFBD0002378
:10482C004FF0FF32C4F81031C4F80035C4F86025DD
:10483C0000F0FCFA00F0F6F8286107B0BDE8F08F44
:10484C00D4F86025002ABFF6C4AED4F86425002A3B
:10485C00BFF6BFAED4F86825002ABFF6BAAED4F8BE
:10486C006C25002ABFF6B5AE30E7D4F86425002AD3
:10487C00BFF6A9AED4F86825002ABFF6A4AED4F8CA
:10488C006C25002ABFF69FAE20E77047E64520F85E
:10489C001320B3B27FF432AF88E7042302218BE7F5
:1048AC00E8700D00DC700D0034E60320F0ED00E044
:1048BC00001000E043888B42F0B526D9057AC2F38C
:1048CC000743C2F30724D6B23DB16B436C436E432E
:1048DC00C3F30723C4F30724360A90F806C0C7684D
:1048EC00BCF1060F0CBF042503256943ACF1020C87
:1048FC007D18BCF1060F1DD8DFE80CF0041C080471
:10490C000F0404007C546B70AE70F0BDFE2B28BFFE
:10491C00FE237B546E70AC70F7E77B546C70AE70FA
:10492C00037A120E13B9D2B2EA70EEE75A43C2F30D
:10493C000722F9E77B546C70AE70E6E7037A4A1CE9
:10494C00D2B2934270B51ED0013B13F0FF03C46882
:10495C000CD0FF291FBF110201F1FF31B1FBF3F3A2
:10496C009BB204BF4FF6FF71B1FBF3F3254686886B
:10497C00291B89B28E4205D929785943091205F8A9
:10498C00011BF4E7027270BD8288C068002102F03E
:10499C00BFBA000008B500F015F8014B186008BD4F
:1049AC0034E6032008B5024B1B689B68019308BDD5
:1049BC006802030008B5024B1B68DB68019308BD55
:1049CC006802030008B5024B1B681B68019308BD05
:1049DC002C02030008B5024B1B689B68019308BDB1
:1049EC002C02030008B5024B1B68DB68019308BD61
:1049FC002C02030008B5024B1B681B69019308BD10
:104A0C002C02030008B5024B1B685B68019308BDC0
:104A1C001802030008B5024B1B68DB68019308BD44
:104A2C001802030008B5024B1B681B69019308BDF3
:104A3C001802030008B5024B1B685B69019308BDA3
:104A4C001802030008B5024B1B68DB6D019308BD0F
:104A5C001802030008B5024B1B689B68019308BD44
:104A6C007802030008B5024B1B68DB69019308BD93
:104A7C007802030008B5024B1B681B6D019308BD3F
:104A8C007802030008B5024B1B689B6D019308BDAF
:104A9C007802030008B5024B1B681B6E019308BD1E
:104AAC007802030008B5034B1B68D3F898300193C8
:104ABC0008BD00007802030008B5034B1B68D3F84F
:104ACC00A830019308BD00007802030008B5034B21
:104ADC001B68D3F8EC30019308BD0000780203008A
:104AEC0008B5034B1B68D3F8F030019308BD0000E8
:104AFC007802030008B5024B1B685B6C019308BD80
:104B0C004802030008B5024B1B689B6C019308BD5F
:104B1C004802030008B5024B1B68DB6C019308BD0F
:104B2C004802030008B5024B1B685B6D019308BD7E
:104B3C004802030008B5024B1B685B69019308BD72
:104B4C006402030008B5024B1B681B68019308BD87
:104B5C003C02030008B5024B1B68DB68019308BDDF
:104B6C003C02030008B5024B1B681B69019308BD8E
:104B7C003C02030008B5024B1B685B69019308BD3E
:104B8C003C02030008B5024B1B689B69019308BDEE
:104B9C003C02030008B5024B1B68DB69019308BD9E
:104BAC003C02030008B5024B1B681B6A019308BD4D
:104BBC003C02030008B5024B1B689B6A019308BDBD
:104BCC003C02030008B5024B1B681B6A019308BD2D
:104BDC002802030008B5024B1B685B6A019308BDF1
:104BEC002802030008B5024B1B689B6A019308BDA1
:104BFC002802030008B5024B1B68DB6A019308BD51
:104C0C002802030008B5024B1B681B6B019308BDFF
:104C1C002802030008B5024B1B685B6B019308BDAF
:104C2C002802030008B5024B1B681B6C019308BDDE
:104C3C002802030008B5024B1B68DB69019308BD11
:104C4C003002030008B5024B1B681B6A019308BDB8
:104C5C003002030008B5024B1B681B68019308BDAA
:104C6C004C02030008B5024B1B685B68019308BD3E
:104C7C004C02030008B5024B1B681B69019308BD6D
:104C8C004C02030008B5024B1B685B69019308BD1D
:104C9C004C02030008B5024B1B689B69019308BDCD
:104CAC004C02030008B5024B1B68DB69019308BD7D
:104CBC004C02030008B5024B1B681B6A019308BD2C
:104CCC004C02030008B5024B1B689B6A019308BD9C
:104CDC004C02030008B5024B1B685B6B019308BDCB
:104CEC006002030008B5024B1B681B6D019308BDE5
:104CFC006002030008B5024B1B685B68019308BD9A
:104D0C002002030008B5024B1B685B69019308BDC8
:104D1C002002030008B5034B1B68D3F888300193BD
:104D2C0008BD00002002030008B5034B1B68D3F834
:104D3C009430019308BD00002002030008B5024B1B
:104D4C001B685B68019308BD4002030008B5024B69
:104D5C001B689B68019308BD4002030008B5024B19
:104D6C001B68DB68019308BD4002030008B5024BC9
:104D7C001B681B69019308BD4002030008B5024B78
:104D8C001B685B69019308BD4002030008B5024B28
:104D9C001B689B69019308BD4002030008B5024BD8
:104DAC001B68DB69019308BD4002030008B5024B88
:104DBC001B681B6A019308BD4002030008B5024B37
:104DCC001B681B6B019308BD4002030008B5024B26
:104DDC001B685B6B019308BD4002030008B5024BD6
:104DEC001B681B6C019308BD4002030008B5024B05
:104DFC001B685B6C019308BD4002030008B5024BB5
:104E0C001B689B68019308BD4402030008B5024B64
:104E1C001B68DB6B019308BD4402030008B5024B11
:104E2C001B681B68019308BD1C02030008B5024BEC
:104E3C001B685B68019308BD1C02030008B5024B9C
:104E4C001B689B68019308BD1C02030008B5024B4C
:104E5C001B685B6A019308BD1C02030008B5024B7A
:104E6C001B68DB6A019308BD1C02030008B5024BEA
:104E7C001B685B6C019308BD1C0203000022406898
:104E8C001146FFF793BF002240681146FFF79EBF03
:104E9C0040680022FFF792BF4068002281F00101B8
:104EAC00FFF77CBF002340681A461946FFF76EBF18
:104EBC00002340681A461946FFF760BF002240687D
:104ECC001146FFF753BF002240681146FFF73EBF63
:104EDC00406800220221FFF741BF002340681A46B8
:104EEC00FFF72CBF024B03225A60024A1A6070472C
:104EFC0038E6032004710D0010B5044608462170F5
:104F0C00FFF798FE00236360204610BD10B5094BD7
:104F1C00094C022200201A60084B2060A080A0716E
:104F2C00A360FFF7E7FE2046054A0649BDE810409E
:104F3C0001F08CBE4CE6032040E603200000FFFF8E
:104F4C009CE50320AF400D0010B504460068FFF748
:104F5C006DFF204610BD10B50446006808B1FFF780
:104F6C0065FF0023C4E90133236010BD38B5044646
:104F7C000D4600680131FFF761FF10B1C4E900056F
:104F8C00012038BD10B50368044623B143688B4239
:104F9C0001D3012010BD2046FFF7E8FF0028F9D00F
:104FAC00A368002BF5D122681370F2E737B50D46D4
:104FBC00114601920446FFF7E5FF019A28B92046F5
:104FCC00FFF7C9FF204603B030BDA2602946206818
:104FDC0001F076FF2268A3680021D154F2E7002388
:104FEC0013B5C0E9003304468360037341B108462E
:104FFC00019101F0C3FF019902462046FFF7D6FF4D
:10500C00204602B010BD13B5044659B108460191B3
:10501C0001F0B4FF019902462046FFF7C7FF204676
:10502C0002B010BDFFF797FFF9E770477047704764
:10503C0070470000064B994210B500F10C0405D0E6
:10504C00084601F00FFE002808BF0024204610BDC2
:10505C0080720D00064B994210B500F10C0405D07E
:10506C00084601F0FFFD002808BF0024204610BDB3
:10507C0080720D00064B994210B500F10C0405D05E
:10508C00084601F0EFFD002808BF0024204610BDA3
:10509C0080720D0010B56821044601F0DCFD20463D
:1050AC0010BD10B52821044601F0D5FD204610BDD9
:1050BC0010B53021044601F0CEFD204610BDFEF7A0
:1050CC00E6BFFEF7E4BFFEF7E2BF10B50368044687
:1050DC009B689847A368013BA3602BB923682046C3
:1050EC00DB68BDE81040184710BD10B504460068D9
:1050FC0008B1FFF707FD204610BD000010B5044BAA
:10510C0004461868FFF706FD0123237010BD00BF8D
:10511C0058E6032010B5044B04461868FFF702FD4F
:10512C000023237010BD00BF58E60320F0B5002506
:10513C00EC1C8C420DD86E1C445D875D974205D1EA
:10514C002644B14205D31D60601CF0BD01342544DA
:10515C00EEE70020F9E72DE9F34704469DF82870A7
:10516C001E46894601AB90460A46016AFFF7DEFFF0
:10517C00256AB31C17BB08B35F193F1A1F2F19D828
:10518C00DDF8049009F1020AA5EB0902121A00EBF2
:10519C00090106EB0A0092B22144204401F09EFE64
:1051AC00731C04F809303246414604EB0A0001F046
:1051BC0087FE2762206A02B0BDE8F0872B441F2BC4
:1051CC00F8D8731C6355A81C25442062324685F818
:1051DC0001904146204401F073FE236A334423625C
:1051EC00E8E70000024A00210A20FFF773BD00BF68
:1051FC00214A0D00022A38B5044607D0032A11D0E3
:10520C00012A01D10B682360002038BD08200D68ED
:10521C00FEF739FF03460028F5D095E8030083E834
:10522C000300F0E700680028EED0082101F013FD20
:10523C00EAE730B40D4611461A4603680968286837
:10524C00D3E90043A44630BC604730B5013802EBCB
:10525C004101134610F8014F240904F13005392D92
:10526C0088BF04F1370503F8025B047804F00F04DF
:10527C0004F13005392D88BF04F13705994203F844
:10528C00015CE7D1104630BD10B58368044613B1FC
:10529C00032201469847204610BD10B504465830ED
:1052AC00FFF7F2FF04F14800BDE81040FFF74CBED9
:1052BC00A0F13003DAB2092A01D818467047A0F1E0
:1052CC006103052B01D857387047A0F14103052B1A
:1052DC0094BF37384FF0FF30704710B500230446A9
:1052EC000370FFF70BFF204610BD10B50378044682
:1052FC000BB1FFF70FFF204610BD052994BF405C92
:10530C000020704782B00346086849686A4603C2A9
:10531C006A4603CA18601846596002B0704708B54F
:10532C0082798B799A4206D1062201F0BBFDB0FA44
:10533C0080F0400908BD0020FCE74FF0FF3303600C
:10534C00838000207047002108B50160416002464F
:10535C00FFF7F3FF9171104608BD10B5431D0139DD
:10536C001C7801F8014F834203F1FF33F8D110BDD3
:10537C0070B5144688B01A460D46002948D0A4B121
:10538C0001A9FFF7EAFF9AB103AA062101A8661E3C
:10539C00FFF75BFF112E28BF1126324603A92846C2
:1053AC0001F08EFD0023AB55741C204608B070BD77
:1053BC0003AA012101A8FFF748FF3A260DF10F02BD
:1053CC0001210DF105008DF80E60FFF73EFF0DF188
:1053DC00120201210DF106008DF81160FFF735FF67
:1053EC000DF1150201210DF107008DF81460FFF786
:1053FC002CFF06AA012102A88DF81760FFF725FFE4
:10540C008DF81A600DF11B0201210DF10900BEE7A8
:10541C000C46CAE710B586B004461346084612225D
:10542C0001A9FFF7A5FF01A92046FFF7D8FD2046EB
:10543C0006B010BD01220261064A11680160516874
:10544C0041601189927A827200220181C0F80B208E
:10545C00C273704788720D0010B50B69036101F1BE
:10546C001002034651F8044B43F8044B9142F9D116
:10547C0010BD10B50B460446B1B1012A01F1100262
:10548C000AD1014653F8040B41F8040B9342F9D1AD
:10549C0001232361204610BD411E12F8010D01F8B5
:1054AC00010F9A42F9D1F3E7102201F031FDF1E737
:1054BC0038B5044615461A46FFF7DBFFA581204692
:1054CC0038BD000008B5026922B98089003818BFC0
:1054DC00012008BD0249102201F0E4FCF6E700BFF0
:1054EC00A8720D000069704738B50C4614220021D3
:1054FC00054601F00DFD23693BB9627B2B74237BC0
:10550C0043EA02232B80284638BD01232B7404F177
:10551C0010022B4654F8041B43F8041B9442F9D197
:10552C00F1E7427B007B40EA02207047704708B5E8
:10553C0002690B699A4206D1102201F0B3FCB0FA51
:10554C0080F0400908BD0020FCE7000001232DE994
:10555C00F3410361324B1A6802605A6842600025BD
:10556C001A899B7A028104468372C0F80B50C5736A
:10557C000E4621B32421304601F008FD042821D128
:10558C00ADF8045001AFB51C063615F8020CFFF748
:10559C008FFEB0F1000810DB15F8010CFFF788FE48
:1055AC0000280ADB023540EA0810AE4207F8010B6E
:1055BC00EBD1BDF804305BBAA3810023236102B0A8
:1055CC00BDE8F08110272421304601F0DFFCA84211
:1055DC0006D827440023BC42F1D007F8013DFAE776
:1055EC00002FECD0705DFFF763FE030615D40001AD
:1055FC00013F5FFA80F804F807802421304601F05F
:10560C00C5FC0135A84208D9705DFFF751FE40B2C8
:10561C000028A4BF40EA0800E0550135D3E700BFDD
:10562C0088720D0013B504460191FFF703FF204665
:10563C000199FFF78BFF204602B010BD30B49DF8E6
:10564C00085012B9006A30BC7047029530BCFFF7A5
:10565C0082BD1FB50446024600F11F01002302F86B
:10566C00013B9142FBD123620093062201238DF86A
:10567C000F2019460DF10F022046FFF7DFFF2046E1
:10568C0004B010BD73B50A460E4601AB016A044660
:10569C00FFF74CFD054678B10198226A4119121AA0
:1056AC002144521B204401F00BFC206A401B206259
:1056BC0031462046FFF7E6FF02B070BD38B54FF615
:1056CC00FF730025044643800E22294605700571A0
:1056DC00063001F01DFC04F11400FFF7ABFE04F1E1
:1056EC002800FFF7A7FE044904F13C00FFF777FC04
:1056FC006565204638BD00BFFB6F0D0010B5D0E9C5
:10570C00063203EBC2029342184606D00468248882
:10571C008C4203F10803F6D110BD0020FCE7000019
:10572C002DE9F04100260660074628200C46FEF7BE
:10573C00AAFC051E05F10C080FD00123C5E90133A5
:10574C00084B2B604046FFF775FE0FCC2E6285F898
:10575C00246046460FC623683360C7E90085384687
:10576C00BDE8F08150720D0070B50025056006464D
:10577C003020FEF788FC044688B10123C0E90133D0
:10578C00094B03604FF6FF7383810E30FFF7DBFD8F
:10579C00C4E90655C4E90855C4E90A55A5757460F1
:1057AC000C343460304670BD6C720D0037B50D464C
:1057BC00044601A8FFF791FD2A6852F8023F2360C6
:1057CC005368636001A8FFF790FD204603B030BD1D
:1057DC0030B5054687B00C4601A8FFF77EFD2A6858
:1057EC00236812881B889A420DD1294602A8FFF71C
:1057FC00DDFF214604A8FFF7D9FF04A902A8FFF793
:10580C008EFD044600B9002401A8FFF76EFD20466A
:10581C0007B030BD10B504465420FEF734FC0146E9
:10582C0060B10023C0E90033C0E90233C0E904339E
:10583C00C0E906330362C362C363C364216019B950
:10584C00094A0A20FFF746FA0020FFF703F920B1B6
:10585C00054A00210A20FFF73DFA2168034800227F
:10586C00FFF73EF9204610BD214A0D00215C0D00CA
:10587C0010B50B4C2378BFF35B8FDB070ED420469F
:10588C00FEF707FC50B10748FFF7C4FF2046FEF7B0
:10589C0005FC054A0549034801F0D8F9014810BD3B
:1058AC0050E603205CE603209CE50320A15A0D0082
:1058BC0030B50368093B012B8DB004460D4611D859
:1058CC00FFF7D6FFA1880068FFF718FF034658B909
:1058DC002022CDE904200B4A00920B4904AA322065
:1058EC00FFF700FA0DB030BD6A6D002AFAD0D4E98A
:1058FC00032105F14C00CDE90312AC6D04AA03A9F8
:10590C00A047EFE75F710D0038710D0008B500205E
:10591C00FFF7A0F800EAE07008BD13B504460021BB
:10592C006846CDE90011FFF79DF86B4603CB20606C
:10593C002046616002B010BD084611B90A46FFF757
:10594C0099B8096A0022FAE707B5084629B90A4648
:10595C0003B05DF804EBFFF795B801210190FFF758
:10596C0091FE01980022016AF2E738B5044615460B
:10597C00FFF7E2FF00280ADB29462046FFF7E4FF89
:10598C00002804DBBDE838400020FFF783B838BDA1
:10599C0038B500230446836008200D46FEF773FBE0
:1059AC0018B12B6803606B684360034BE360034BD7
:1059BC002060A360204638BD3F520D0001520D00FF
:1059CC000B68036013B15A6801325A60704710B506
:1059DC0051F8043B044640F8043BFFF7F1FF236801
:1059EC000BB9FFF7FFFB204610BD10B551F8043B77
:1059FC00044640F8043BFFF7E3FF204610BD10B50A
:105A0C0051F8043B044640F8043BFFF7D9FF20460D
:105A1C0010BD10B50446006828B14368013B4360D3
:105A2C000BB9FFF752FB204610BD10B504460430ED
:105A3C00FFF7EFFF204610BD70B5D0E900530446C8
:105A4C0005EBC306AE4204D0281DFFF7E2FF083574
:105A5C00F8E72068FFF7EAF9204670BD70B5D0E989
:105A6C000053044605EBC306AE4204D0281DFFF7D5
:105A7C00D0FF0835F8E72068FFF7D8F9204670BD4D
:105A8C0010B504462430FFF7E9FF04F11800FFF7C6
:105A9C00D3FF10BDF8B50468064624B304F14400E6
:105AAC00FFF7F2FB04F13400FFF7EEFB04F12400E6
:105ABC00FFF7EAFBD4E9065305EBC307AF4204D06A
:105ACC00281DFFF7A6FF0835F8E7A069FFF7AEF928
:105ADC0004F10C00FFF7C2FF2046FFF7ADFF542185
:105AEC00204601F0B8F83046F8BD826810B50AB906
:105AFC0001F0B5F8BDE81040C36818478842F8B506
:105B0C0004460D46164614D9904213D2A2F108064B
:105B1C00751AA1F108072C44B74218D01CB13146B4
:105B2C002046FFF76CFF301DFFF773FF083E083C63
:105B3C00F2E70CD0B5420AD01CB129462046FFF73B
:105B4C005EFF281DFFF765FF08350834F2E7F8BD46
:105B5C002DE9F041D0E900430546884604EBC30724
:105B6C00A74203D100263046BDE8F08141462046CD
:105B7C00FFF72EFE064608B90834F1E7002CF1D0E9
:105B8C00201DFFF746FFD5E9003204F1080103EBB5
:105B9C00C2022046FFF7B2FF6B68013B6B60E2E785
:105BAC00F7B5044646686846FFF729FFD4E9017348
:105BBC009F4212DB0137002F29DDF800FFF72EF989
:105BCC000546F0B1D4E9001201EBC202FFF796FFD3
:105BDC002068FFF72BF92560A7602368626803EB48
:105BEC00C60603EBC202314606F10800FFF786FF3A
:105BFC001EB169463046FFF702FF636801336360EC
:105C0C00012501A8FFF705FF284603B0F0BD0025CC
:105C1C00DEE700002DE9F04105468EB003A80C46E6
:105C2C00FFF75BFB2E68042E6BD007D8032E28D011
:105C3C0003A8FFF75AFB0EB0BDE8F081A6F10C03E8
:105C4C00032BF5D8A9892046FFF758FD07460028F5
:105C5C00EED0E36C002BEBD01022002107A801F052
:105C6C0057F90D2E06978DF81C6040F092806B68EA
:105C7C00099306230893236D06A904F14400984761
:105C8C00D6E704A8FFF770FD049BAA891A806968FF
:105C9C00049808310230FFF735FB04A906A8FFF77A
:105CAC00AEFE06A904F11800FFF77AFF054607A817
:105CBC00FFF7AFFE202306938DB93E4B3E49009370
:105CCC0032202B4606AA0795FFF70CF8049B2946B1
:105CDC001888FEF7E7FE05A8FFF79BFEA8E7374AF2
:105CEC00009200233449079306AA0120FEF7FAFF1D
:105CFC00E36A002BEFD004A904F12400FFF7F5FEB2
:105D0C00E9E7A9892046FFF7F9FC064600288FD061
:105D1C000568D5E906314FF6FF722A8003EBC10105
:105D2C00994203D053F8080B4280F9E7D5E9037385
:105D3C0007EBC308B84504D0381DFFF76AFE0837D7
:105D4C00F8E700232B61D5E9067307EBC308B845C8
:105D5C0004D0381DFFF75DFE0837F8E70023EB6130
:105D6C00AB72E36B23B1314604F13400FFF7BDFE97
:105D7C0000232022CDE90623114A00920E4906AADF
:105D8C000120FEF7AFFF314604F11800FFF7E0FEEB
:105D9C004EE70F2E7FF46FAF6B6809932B7A03F0ED
:105DAC000102C3F340038DF829308DF82820082315
:105DBC0060E700BF77710D0038710D009D710D000B
:105DCC00BA710D0013B500230446D1E90002C1E9F4
:105DDC0000332368009320606368626001A801931C
:105DEC00FFF717FE204602B010BD13B50B46024656
:105DFC00D0E900016C4684E8030093E8030082E8D4
:105E0C00030094E8030083E8030002B010BD38B52A
:105E1C0005460C46FFF7E9FFAB68A268AA60A360D1
:105E2C00EB68E268EA60E36038BD1FB50023044606
:105E3C00084669460293FFF7EAFF21466846FFF7DA
:105E4C00E6FF6846FFF720FA204604B010BD70B597
:105E5C000E4688B0044601921D46FFF72FFC33789E
:105E6C000199237104F13C00FFF7CDF804F14C06C5
:105E7C0085B10C9B029502A904A80393FFF788FD3A
:105E8C0004A93046FFF7D1FF04A8FFF7FDF920461F
:105E9C0008B070BD0695F3E72DE9F04786B00746CC
:105EAC001D4668200023894692460493FEF7EBF8C2
:105EBC00061E06F10C081DD001233446C6E9013339
:105ECC00154B44F8203B9AF800308DF80C30109BA1
:105EDC0000934A460F9B03A94046FFF7B8FF0FCD2E
:105EEC000FC42B680E9D23600FCD06F134040FC434
:105EFC002B68236004A93846CDE90486FFF762FFBE
:105F0C0005A8FFF786FD396819B9044A0A20FEF77F
:105F1C00E1FE06B0BDE8F08734720D00214A0D0099
:105F2C008842F8B504460D46164614D9904213D251
:105F3C00A2F10806751AA1F108072C44B74218D033
:105F4C001CB131462046FFF750FD301DFFF761FDB7
:105F5C00083E083CF2E70CD0B5420AD01CB12946E9
:105F6C002046FFF742FD281DFFF753FD0835083486
:105F7C00F2E7F8BD70B50E1E054611DDF000FEF718
:105F8C004DFF044658B1D5E9001201EBC202FFF7F0
:105F9C00C7FF2868FEF74AFF2C60AE60012070BD79
:105FAC000024F6E773B5044645686846FFF71DFD07
:105FBC00D4E90113994210DA2368626803EBC50532
:105FCC0003EBC202294605F10800FFF7A9FF8DB9C2
:105FDC00636801336360012606E001312046FFF758
:105FEC00C9FF06460028E7D101A8FFF712FD30468D
:105FFC0002B070BD69462846FFF7F7FCE8E7884217
:10600C00F8B504460D46164614D9904213D2A2F1A7
:10601C000806751AA1F108072C44B74218D01CB118
:10602C0031462046FFF7D3FC301DFFF7F2FC083E4B
:10603C00083CF2E70CD0B5420AD01CB129462046E8
:10604C00FFF7C5FC281DFFF7E4FC08350834F2E720
:10605C00F8BD70B50E1E054611DDF000FEF7DEFE34
:10606C00044658B1D5E9001201EBC202FFF7C7FF95
:10607C002868FEF7DBFE2C60AE60012070BD0024AA
:10608C00F6E773B5044645686846FFF7A0FCD4E90B
:10609C000113994210DA2368626803EBC50503EB20
:1060AC00C202294605F10800FFF7A9FF8DB9636804
:1060BC0001336360012606E001312046FFF7C9FF7A
:1060CC0006460028E7D101A8FFF7A3FC304602B032
:1060DC0070BD69462846FFF77AFCE8E72DE9F04FDA
:1060EC001746A1B080460AA80E46FFF7F6F83C68A2
:1060FC00237953B939464046FFF769FC0AA8FFF7E4
:10610C00F4F8404621B0BDE8F08F3368D3E903536F
:10611C0005EBC303039304F1280A04F1140B039B4E
:10612C009D4221D0D5F80090584609F11401FFF793
:10613C00FEF9B8B109F128015046FFF7F8F988B11A
:10614C002368D9F80020534033F47F430AD120222E
:10615C00CDE915235E4A009215AA5E493220FEF75E
:10616C00C1FDC7E70835DAE75046FFF7ABF960B970
:10617C005949012215A815ADFFF77BF90FCDD4466F
:10618C00ACE80F002B68CCF800303368D3E900532F
:10619C0005EBC30B5D45A94651466ED055F8080B6F
:1061AC00FFF7C5F90028F5D004F1140A5046FFF7A3
:1061BC0089F988B9494B48491A88013292B21A8038
:1061CC0015A8012315ADFFF773F90FCDD446ACE834
:1061DC000F002B68CCF800302822002116A800F004
:1061EC0097FE3F4B1593514604A8FFF77DF904AB7E
:1061FC0018AA0DF1200C18685968154603C5083308
:10620C0063452A46F7D11868286023798DF85830F1
:10621C00D9F800309B8AADF87430E36B1793314B8F
:10622C000022A11D15A8CDE91E34FEF74FFC002855
:10623C007FF460AF01232370346839460C340DA809
:10624C00FFF7C5FB20460DA9FFF71BFF04460EA860
:10625C00FFF7DFFB002C7FF44DAF2023CDE90D348D
:10626C00214B00930DAA234677E739464046FFF7AA
:10627C00AEFB0CA8FFF7CDFB40E70BA8FFF750FADD
:10628C00514615A8FFF730F90B9A0023143215A9C3
:10629C000120FEF711FC0028E7D135680BA90DA8E9
:1062AC00FFF7A3FB28460DA9FFF77CFE05460EA8B9
:1062BC00FFF7AFFB002DD8D032685368126803F19A
:1062CC000053013B0CA802EBC309FFF7A2FB6BE7E1
:1062DC00D9710D0038710D0098720D0054E6032031
:1062EC0001002C00BD580D0004720D0010B5064CB9
:1062FC00002320462360FEF7FDFB2046034A044999
:10630C00BDE8104000F0A2BC58E603209CE5032039
:10631C00F7500D00F8B506460D468F180024BD4207
:10632C000CD0336815F8011B9B6830469847031E48
:10633C0001DB1C44F3E7002C08BF1C462046F8BDCB
:10634C0013B50446084659B1019100F017FE2368B5
:10635C000199DB680246204602B0BDE810401847A0
:10636C0002B010BD03689B68184738B50D2105466F
:10637C00FFF7F8FF0A2104462846FFF7F3FF2044F5
:10638C0038BD30B58BB000238DF82430012A98BF6E
:10639C000A2209AC0D46B1FBF2F101FB125303F0DA
:1063AC00FF03092B94BF30333733DBB2AA4204F816
:1063BC00013DEFD92146FFF7C3FF0BB030BD2DE9EE
:1063CC00F04186B000AF05460E46381D1421144628
:1063DC003B60FEF73BFD13280ED8391D2846FFF70E
:1063EC00AFFF04461EB12846FFF7BFFF044420460A
:1063FC001837BD46BDE8F08100F1080323F0070310
:10640C00E846ADEB030D2246411C3B686846FEF79F
:10641C001DFD69462846FFF793FF0446C546E1E794
:10642C00002340681A461946FEF7A8BC014B024AE5
:10643C001A60704760E60320B8720D00024B1A68B0
:10644C00024B1A60704700BF34E5032064E603205A
:10645C000021FEF757BC10B50446FEF715FF204689
:10646C0010BD00000348044A04490023836000F077
:10647C00EDBB00BF68E603209CE5032063640D00C0
:10648C00014B1860704700BF38E5032008B50B4B73
:10649C0043B100F05FF903681B699847002801DDE0
:1064AC00AFF30080064B43B100F0D2F903681B69CF
:1064BC009847002801DDAFF3008008BD0000000004
:1064CC000000000008B5FFF7E1FFFEF7B3FA014B3F
:1064DC00186008BDD4E703200248034A0349121A86
:1064EC0000F0EEBC00F4032004F4032010750D0042
:1064FC0007B5002300931A466FF07701FEF714FCE2
:10650C0003B05DF804FB000007B543880A2B08D0E4
:10651C00502B0BD1094B1B684BB103B05DF804EB4E
:10652C001847FFF7E5FF03B05DF804FB0023009369
:10653C001A466FF07701FEF7F7FBF4E77CE60320D1
:10654C0038B5124C1248134D0021FEF78FFC23680E
:10655C00AB42114B0CBF012200221A7002D0FFF784
:10656C00BBFF2560FEF74EFA044600F0D9FC0B4B3E
:10657C0013B12046AFF3008000210848FEF746FC1B
:10658C00BDE8384006480021FEF7C4BB00F40320E8
:10659C008D640D001E1C279A78E603200000000075
:1065AC0015650D00704710B51821044600F053FB1B
:1065BC00204610BDF0B5037D062B8DB00E4600F1C4
:1065CC0004074FF0000412D000F1080515F8011D66
:1065DC000A223046FFF7D5FEAF42044419D0002CF6
:1065EC00F4D02E213046FFF7BDFE0444EEE72F23F6
:1065FC006A4639460A208DF80040FEF79BFA684639
:10660C0000F0BCFC33680246DB68694630469847AC
:10661C00044620460DB0F0BD10B5054B04461122C2
:10662C0040F8043B002100F073FC204610BD00BF75
:10663C00E0720D000346074A10B543F8042B01F134
:10664C00100251F8044B43F8044B9142F9D10A78EB
:10665C001A7010BDE0720D0010B59DF8084044EAA8
:10666C00032343EA024242EA0161042341600375B9
:10667C0010BD000013B5054B0360CB7800938B78ED
:10668C004A780978FFF7E8FF02B010BDE0720D0000
:10669C0041747047704708B50021007CFEF7FAFA88
:1066AC0040EAE07008BD08B50121007CFEF7F2FA63
:1066BC0040EAE07008BD08B5007CFEF7E3FA20EA7A
:1066CC00E07008BD08B5007CFEF7D4FA20EAE07053
:1066DC0008BD13B50446007C0191FEF7D3FA0028DF
:1066EC00019901DC607C20B1207CFEF7DBFA20EA0A
:1066FC00E07002B010BD007CFEF7DCBA10B51421BE
:10670C00044600F0A8FA204610BD000010B54FF466
:10671C007A73044608460021C4E90113044B236034
:10672C000123207463741146FEF794FA204610BDC1
:10673C00F4720D00007C0022FEF794BA007CFEF788
:10674C00C1BA10B514220446002100F0E1FB20462A
:10675C0010BD000010B5104C88B003A8FFF7F1FF76
:10676C002178BFF35B8F11F0010111D1204601910B
:10677C00FDF78FFC019958B103AA0848FFF7C6FF33
:10678C002046FDF78BFC064A0649044800F05EFAE9
:10679C00024808B010BD00BF80E6032084E6032049
:1067AC009CE50320A1660D0070474174704708B545
:1067BC00007CFEF7FFF920EAE07008BD08B5007C0C
:1067CC00FEF7D0F920EAE07008BD08B5007CFEF7B2
:1067DC00D9F940EAE07008BD08B5007CFEF7CAF9AB
:1067EC0040EAE07008BD007CFEF7D4B937B5457CB3
:1067FC0004462DB1207C03B0BDE83040FEF7AAB9A9
:10680C00007C0191FEF7D6F900280199F2DC2846AC
:10681C0003B030BD10B51421044600F01CFA20461C
:10682C0010BD000010B54FF0000C04460846114690
:10683C004FF47A72C4E901C2044A22600122207426
:10684C0062741A46FEF77EF9204610BD24730D00C3
:10685C0013B50E4C2178BFF35B8F11F0010112D1EF
:10686C0020460191FDF715FC019960B1084A094BCE
:10687C000948FFF7D7FF2046FDF710FC074A0849E7
:10688C00054800F0E3F9044802B010BD98E6032077
:10689C009CE6032020E70320A4E703209CE50320CB
:1068AC00B5670D007047F8B5064615460C468F18AF
:1068BC00BC4206D0336814F8011B9B6830469847DD
:1068CC00F6E72846F8BD007C0022FEF77BB9007C79
:1068DC000021FEF77FB9007C0021FEF783B9007C14
:1068EC000021FEF787B9007C0021FEF78BB910B5AB
:1068FC001421044600F0AFF9204610BD10B54FF43A
:10690C007A73044608460021C4E90113034B236043
:10691C0020741146FEF786F9204610BD54730D0005
:10692C00002240681146FEF721BA00224068114649
:10693C00FEF73CBA002240681146FEF747BA4068A1
:10694C000022FEF73BBA4068002281F00101FEF7FD
:10695C0025BA002340681A461946FEF717BA0022DA
:10696C0040681146FEF7F2B9406800220221FEF79A
:10697C00F5B9002340681A46FEF7E0B9024B042231
:10698C005A60024A1A607047B8E703207C730D0006
:10699C00002340681A46FEF7D1B940680022022154
:1069AC00FEF7DCB9002240681146FEF7CFB9002291
:1069BC0040681146FEF7DAB9002340681A461946BA
:1069CC00FEF7DCB9002340681A461946FEF7DEB91B
:1069DC0040680021FEF702BA40680021FEF706BAB3
:1069EC004068002281F00101FEF7D8B9406800220E
:1069FC00FEF7E4B9002240681146FEF7E7B9002221
:106A0C0040681146FEF7D2B92DE9F043002495B049
:106A1C0016460D460746FFF7FFFD214618220EA825
:106A2C00009400F075FA4023CDE90C3421466B46F6
:106A3C000CAA3046FDF7BEFF044600284CD1024696
:106A4C0001216868FEF792F90221804622466868A7
:106A5C00FEF78CF9009E81462146002E3CD0002981
:106A6C003AD17368022B03D00A2B11D0F669F4E7E4
:106A7C00B8F1000F0AD0716906A8043107ADFFF711
:106A8C00F9FD0FCD3C1D0FC42B6823704146EDE77B
:106A9C00B9F1000F01D14946E8E77469102201A849
:106AAC0000F036FA06238DF8143001AD04F108031A
:106ABC001834186859682A4603C20833A34215468D
:106ACC00F7D101A906A807ADFFF7B4FD0FCD3C1D0A
:106ADC000FC42B682370DEE70098FDF763FF384680
:106AEC0015B0BDE8F0830000024B034A1A60002287
:106AFC005A607047C0E70320B8730D00232813B504
:106B0C0002D9002002B010BDA0F10B03022B1AD841
:106B1C00174C2178BFF35B8F11F001010BD120468C
:106B2C000191FDF7B6FA019928B11248FEF7E4F984
:106B3C002046FDF7B3FA0F4B1878FEF783F80028C0
:106B4C00DFD10120DEE7012809D800F057F8002139
:106B5C00007CFEF75FF880F00100C0B2D2E7093884
:106B6C000128EED8FFF774FE007CFEF71BF8F2E765
:106B7C00C8E70320CCE70320232838B504460D468C
:106B8C000AD8FF2908D0FFF7B9FF28B129462046BB
:106B9C00BDE83840FDF71EBF38BD38B504460D467C
:106BAC00FDF720FFFF2810D0062804D84D2323FA28
:106BBC0000F0C30709D42046FFF7A0FF28B12946EF
:106BCC002046BDE83840FDF715BF38BD38B5002369
:106BDC002025438014230446038085600561064903
:106BEC00284600F03AF804496060284600F035F871
:106BFC00E060204638BD00BFEC730D0030B50F4D82
:106C0C002978BFF35B8F11F0010487B013D12846AC
:106C1C00FDF73FFA78B101A8FFF7D8FF01AA21468A
:106C2C000748FFF76BFE2846FDF738FA054A064978
:106C3C00034800F00BF8024807B030BDD8E703203A
:106C4C00DCE703209CE50320B1680D000B460146F0
:106C5C00184600F019B9FDF71ABAFDF716BA08B5BF
:106C6C00FEF7FCF8014900F0F9B800BF08740D00FC
:106C7C007FB500241023CDE90234036800949E698B
:106C8C008DF8044015466B461268B0479DF80430E9
:106C9C0003F00603062B03BF009B2B60012020464C
:106CAC0004B070BD0098904214BF012006207047BC
:106CBC0010B5034B0360044600F0CDF8204610BD20
:106CCC0048740D0010B50446FFF7F2FF204608216A
:106CDC00FFF7C1FF204610BD2DE9F0411F46DDE94D
:106CEC000834DDF8188098450646154607D10799F3
:106CFC0000F0B4F818B165710020BDE8F081394698
:106D0C00304600F0ABF80028F6D00123C4F8008020
:106D1C002571A371F0E738B515461C4600F09EF8B6
:106D2C0020B10823E36006232560237138BD73B5B9
:106D3C0005460C4601921E4600F090F850B9032E01
:106D4C0008D82368019A5B692946204602B0BDE841
:106D5C007040184702B070BD10B5034B0360044679
:106D6C00FFF7A6FF204610BDA8740D0010B5044611
:106D7C00FFF7F2FF20460C21FFF76DFF204610BDF8
:106D8C00F7B5089F974205460E4614460AD0A868E8
:106D9C0002680897156A31462246AC4603B0BDE836
:106DAC00F04060471946019300F058F8019B002809
:106DBC00EDD0062003B0F0BD2DE9F14F0D4619467C
:106DCC00DDE90A4BDDE90CA681461746984600F032
:106DDC0045F890B1002D3460377109DB61198A4593
:106DEC000CBF06210121B171002001B0BDE8F08F6C
:106DFC000235F9D10123B371F6E7544506D1594652
:106E0C00484600F02BF808B17771EDE7D9F8080087
:106E1C000368CDE90CA6CDE90A4BDC693A4643463A
:106E2C002946A44601B0BDE8F04F60472DE9F0417A
:106E3C0007460C4615461E46FFF76DFF48B9B86865
:106E4C0003689F692A4633462146BC46BDE8F0419B
:106E5C006047BDE8F081704700207047814208B55B
:106E6C000ED0406803782A2B0CD049680B782A2B5B
:106E7C0008BF013100F078F8B0FA80F0400908BD85
:106E8C000120FCE70020FAE710B5054C13462CB1A5
:106E9C000A4601460220AFF3008010BD2046FCE7F5
:106EAC000000000030B501390024A24201D10020BD
:106EBC0005E0035D01340D5DAB42F6D0581B30BDCF
:106ECC000A44914200F1FF3300D1704710B511F81C
:106EDC00014B03F8014F9142F9D110BD884210B516
:106EEC0001EB020402D98442234607D8431EA14277
:106EFC0008D011F8012B03F8012FF8E702440146E2
:106F0C008A4200D110BD13F8014D02F8014DF7E78C
:106F1C0002440346934200D1704703F8011BF9E782
:106F2C0038B50D4B1D68AB6B04467BB91820FDF7CB
:106F3C0075FF0A4A0A4BA863C0E90023094B83601A
:106F4C000B23838101220023C0E90423AB6B0022B5
:106F5C001C615A6138BD00BF38E503200E33CDAB40
:106F6C0034126DE6ECDE050010F8012B11F8013B34
:106F7C00012A28BF9A42F7D0D01A7047034613F85B
:106F8C00012B002AFBD1181A0138704710B50246A4
:106F9C0001448A42134601D1181A10BD1C780132E3
:106FAC00002CF6D1F8E700001D400D0059400D00F3
:106FBC0081400D0085400D000000000052656365A6
:106FCC006976656420646174612066726F6D3A2025
:106FDC00253032583A253032583A253032583A2535
:106FEC003032583A253032583A25303258200A007F
:106FFC00313A203078253032582C20323A203078F3
:10700C00253032582C20333A203078253032580A2B
:10701C0000627974652025692C20636F6C6F722077
:10702C00253036580A005374617274696E67207586
:10703C007020424C4520436F6E6E656374696F6EB1
:10704C00200A004172676F6E20424C4520416464F7
:10705C00726573733A2025730A003645343030302C
:10706C0030312D423541332D463339332D453041A6
:10707C00392D45353045323444434341394500368A
:10708C00453430303030322D423541332D46333992
:10709C00332D453041392D45353045323444434349
:1070AC004139450036453430303030332D4235418E
:1070BC00332D463339332D453041392D4535304547
:1070CC0032344443434139450074780072780000EF
:1070DC0000C0014000100240002002402C010000C2
:1070EC0018000000F40100002C010000500000000A
:1070FC000000000000000000E74E0D00DD4E0D000A
:10710C00D34E0D00C94E0D00BD4E0D00B14E0D00FD
:10711C00DD690D00E5690D00A54E0D009D4E0D00BD
:10712C00934E0D00894E0D00156A0D00776972693A
:10713C006E672E626C65005374617274206469739F
:10714C00636F766572696E672073657276696365C5
:10715C00732E0050656572206465766963652069DD
:10716C0073206D697373696E6721004661696C6584
:10717C006420746F20617070656E64207065657238
:10718C002043656E7472616C206465766963652E4C
:10719C0000436F6E6E65637465642062792043658D
:1071AC006E7472616C206465766963652E00446947
:1071BC0073636F6E6E6563746564206279207265AB
:1071CC006D6F7465206465766963652E0044757017
:1071DC006C69636174656420636861726163746572
:1071EC007269737469632063616E6E6F742062657B
:1071FC002061646465642E004661696C656420746A
:10720C006F20617070656E64206C6F63616C2063BD
:10721C00686172616374657269737469632E0000CE
:10722C0000000000000000003D500D00A1500D00BA
:10723C00A7520D00CB500D0041500D000000000076
:10724C000000000039500D00AF500D003B500D00F8
:10725C00CF500D0061500D00000000000000000038
:10726C0037500D00BD500D008D5A0D00D3500D0040
:10727C0081500D000000000000000000FB349B5FFB
:10728C008000008000100000000000007BE32774E9
:10729C007BF815ACDD49A913000072F5FB349B5F3C
:1072AC008000008000100000000000006170700081
:1072BC0025592D256D2D25645425483A254D3A2503
:1072CC0053257A0061736374696D650000000000DA
:1072DC0000000000C1650D00B1650D00B3650D0027
:1072EC000000000000000000A1660D0009670D0001
:1072FC00DF660D0021630D00D1660D00A3660D0045
:10730C00B3660D0003670D00C3660D009D660D008E
:10731C000000000000000000B5670D0021680D00A2
:10732C00F9670D0021630D00C9670D00E5670D00BD
:10733C00D7670D00F3670D00B7670D00BB670D0035
:10734C000000000000000000B1680D00FB680D009B
:10735C00D3680D00B3680D00DB680D00E3680D0009
:10736C00EB680D00F3680D00000000000000000049
:10737C007F690D0075690D006B690D002D690D009D
:10738C002D640D005F690D00DD690D00E5690D00D0
:10739C0053690D004B690D0041690D0037690D00F3
:1073AC00156A0D0000000000000000009D690D0032
:1073BC00A7690D00B1690D00BB690D00C5690D0011
:1073CC00D1690D00DD690D00E5690D00ED690D0059
:1073DC00F9690D00016A0D000B6A0D00156A0D00AC
:1073EC0000537431395F53705F6D616B655F736807
:1073FC00617265645F7461670000000048740D0081
:10740C00ED730D00A8740D001C740D00CC740D00F0
:10741C004E31305F5F637878616269763131375F06
:10742C005F636C6173735F747970655F696E666FAF
:10743C00450000000000000010740D00BD6C0D0034
:10744C00D16C0D00656E0D00656E0D003B6D0D0071
:10745C007D6C0D00236D0D00E56C0D00B16C0D0005
:10746C00A8740D0078740D0010740D004E31305F4F
:10747C005F637878616269763132305F5F73695F20
:10748C00636C6173735F747970655F696E666F4569
:10749C0000000000000000006C740D00656D0D0014
:1074AC00796D0D00656E0D00656E0D003B6D0D0068
:1074BC007D6C0D00396E0D00C56D0D008D6D0D00D0
:1074CC0048740D00D4740D00537439747970655F71
:1074DC00696E666F00000000A1430D00A1490D000C
:1074EC00F14E0D00194F0D00F9620D0039640D00BD
:1074FC0049640D0071640D0089690D00F56A0D0079
:04750C00000000007B
:047510000000000077
:10751400D0720D003CE503200000000000000000D4
:107524000000000000000000000000000000000057
:107534000000000000000000000000000000000047
:107544000000000000000000000000000000000037
:107554000000000000000000000000000000000027
:107564000000000000000000000000000000000017
:0875740000000000000000000F
:10757C00FFFFFFFF00000102030405060708090ACC
:10758C000B0C0D0E0F101112131415161718191AC7
:08759C001B1C1D1E1F2028000E
:0475A40078563412CF
:04000003D000401CCD
:00000001FF
