:02000002D0002C
:1040000000400D00746C0D00000006000C0005015E
:084010000401DB0700000000C1
:044018001C670D0014
:10401C0009480A49884208B505D0094A824202D0AB
:10402C00121A02F0CDFA0748074A0021121A02F0C0
:10403C00EFFA014808BD00BF5CE50320E46B0D00FE
:10404C00C4E50320C4E50320F0E7032070B5074E58
:10405C00074C01F0D7FEA41BA4080025A54200D1F3
:10406C0070BD56F8043B98470135F7E7B46B0D006B
:10407C00D86B0D0000F090B808B500F025F9BDE83C
:10408C00084001F081BE00F0E9BB00F0EFBB007806
:10409C00B0FA80F04009704701230370704710B5E7
:1040AC000446006808B100F0E1FB204610BD0EB4D8
:1040BC0003B503AB002153F8042B019301F0DFFD92
:1040CC0002B05DF804EB03B0704700002DE9F04737
:1040DC0092B014460E46054601F098FF214607465D
:1040EC0006A801F081F8002106A800F088FD214601
:1040FC00059008A801F078F8012108A800F07FFDD0
:10410C00214604900AA801F06FF802210AA800F0D9
:10411C0076FD214680460CA801F066F803210CA818
:10412C0000F06DFD214681460EA801F05DF80421DA
:10413C000EA800F064FD2146824610A801F054F848
:10414C00052110A800F05BFDCDE90089CDE902A0A6
:10415C00DDE904320D49DFF83C803846FFF7A7FF54
:10416C000024E7B2BE4204F1010406D901F04EFF6F
:10417C00EA5D4146FFF79BFFF3E701F047FF044977
:10418C00FFF795FF12B0BDE8F08700BF30670D0058
:10419C0062670D0064670D002DE9F0438FB001F0EC
:1041AC0035FF4FF4165101F021FF002000F098F973
:1041BC004FF00009804643F697260027002000F0B8
:1041CC008FF9B0EB080461EB0905AF4208BFA642BA
:1041DC0007D301F01BFF01F00DFF10B900F02EFB0F
:1041EC00ECE701F013FF01F005FF4FF4FA6001F06A
:1041FC0089FD01F049F801F091F801F007FF2C4915
:10420C00FFF755FF01F040F82A4A014609A801F0D2
:10421C00D1FB09A801F00FF901F036F8264A014646
:10422C0009A801F0C7FB09A801F005F9234904A866
:10423C0000F078FD04A909A800F074FD09A800F0AD
:10424C00B7FD044609A854BB00F0D1FD0094ADF8AD
:10425C000E0002230DF10E020321194800F06EFE30
:10426C0001F012F80022164901F09DF801F0CEFE83
:10427C00044601F009F8014604A801F05EF804A90F
:10428C0009A8002200F02BFD099A0E492046FFF7E1
:10429C000EFF09A800F066FB0FB0BDE8F08300F03C
:1042AC00ABFD00230093024610230721D5E700BF86
:1042BC0067670D0054E6032038E60320D4E503209D
:1042CC0010E6032084670D0070B5194C194E0023BD
:1042DC00237035465B21402001F04BFF2378F054CE
:1042EC000133DBB2122B2370F4D90D23F374114973
:1042FC001148124E0023142200F0D0FE002323702C
:10430C0001F084FE23783146EA5CFFF7D0FE237877
:10431C000133DBB2132B2370F2D901F077FE08497D
:10432C00FFF7C5FEBDE8704041F2883001F0EABCF1
:10433C0034E6032040E6032054E6032064670D00B6
:10434C0062670D00F0B5164691B00022C0E900225C
:10435C0004460D460BAF194606A800F0E3FC16996F
:10436C00384600F0DFFC33788DF81430189B02933C
:10437C00179B2046CDE9007305AA06AB294601F030
:10438C00AFF8204611B0F0BD2DE9F0432F4DDFF80A
:10439C00F8802F4C2F49DFF8F4902F4E2F4F91B00F
:1043AC00284600F0BFFD2E49404600F0BBFD2D49CC
:1043BC00204600F0B7FD1023214606A88DF81430D6
:1043CC0000F0B0FC29460BA800F0ACFC00240BABB1
:1043DC00009305AA06ABCDE9014423494846FFF7F3
:1043EC00B1FF32463946484601F0B4FF042341463A
:1043FC0006A88DF8143000F095FC29460BA800F0A7
:10440C0091FC1A4D1A4B01930BAB009305AA06AB0A
:10441C00184902942846FFF795FF3246394628463C
:10442C0001F098FF144D154800F0D0FD144BAB6013
:10443C002C60AC80AC71022000F08CF91149324632
:10444C00284601F087FF11B0BDE8F083D4E50320C6
:10445C00FCE503209B670D00C4E5032043540D00CD
:10446C00C0670D00E5670D000A680D0038E60320F3
:10447C00D9400D000D680D00C8E5032010E603209F
:10448C000000FFFFAB400D00E8E5032054E60320DD
:10449C0008B5024B1B689B68019308BD68020300BA
:1044AC0008B5024B1B68DB68019308BD680203006A
:1044BC0008B5024B1B685B68019308BD180203002A
:1044CC0008B5024B1B68DB68019308BD180203009A
:1044DC0008B5024B1B685B69019308BD1802030009
:1044EC0008B5024B1B68DB6D019308BD1802030075
:1044FC0008B5024B1B689B68019308BD780203004A
:10450C0008B5024B1B68DB69019308BD78020300F8
:10451C0008B5024B1B681B6D019308BD78020300A4
:10452C0008B5024B1B689B6D019308BD7802030014
:10453C0008B5024B1B681B6E019308BD7802030083
:10454C0008B5034B1B68D3F89830019308BD0000E5
:10455C007802030008B5034B1B68D3F8A83001930D
:10456C0008BD00007802030008B5034B1B68D3F8A4
:10457C00B430019308BD00007802030008B5034B6A
:10458C001B68D3F8D830019308BD000078020300F3
:10459C0008B5034B1B68D3F8DC30019308BD000051
:1045AC007802030008B5034B1B68D3F8EC30019379
:1045BC0008BD00007802030008B5034B1B68D3F854
:1045CC00F030019308BD00007802030008B5034BDE
:1045DC001B68D3F80031019308BD0000780203007A
:1045EC0008B5034B1B68D3F80431019308BD0000D8
:1045FC007802030008B5024B1B685B6C019308BD85
:10460C004802030008B5024B1B689B6C019308BD64
:10461C004802030008B5024B1B68DB6C019308BD14
:10462C004802030008B5024B1B685B6D019308BD83
:10463C004802030008B5024B1B685B69019308BD77
:10464C006402030008B5024B1B681B68019308BD8C
:10465C003C02030008B5024B1B68DB68019308BDE4
:10466C003C02030008B5024B1B681B69019308BD93
:10467C003C02030008B5024B1B685B69019308BD43
:10468C003C02030008B5024B1B689B69019308BDF3
:10469C003C02030008B5024B1B68DB69019308BDA3
:1046AC003C02030008B5024B1B689B6A019308BDD2
:1046BC003C02030008B5024B1B681B68019308BD44
:1046CC004C02030008B5024B1B685B68019308BDE4
:1046DC004C02030008B5024B1B681B69019308BD13
:1046EC004C02030008B5024B1B685B69019308BDC3
:1046FC004C02030008B5024B1B689B69019308BD73
:10470C004C02030008B5024B1B68DB69019308BD22
:10471C004C02030008B5024B1B681B6A019308BDD1
:10472C004C02030008B5024B1B689B6A019308BD41
:10473C004C02030008B5024B1B685B6B019308BD70
:10474C006002030008B5024B1B681B6D019308BD8A
:10475C006002030008B5024B1B685B68019308BD3F
:10476C002002030008B5024B1B685B69019308BD6E
:10477C002002030008B5034B1B68D3F88830019363
:10478C0008BD00002002030008B5034B1B68D3F8DA
:10479C009430019308BD00002002030008B5024BC1
:1047AC001B685B68019308BD4002030008B5024B0F
:1047BC001B689B68019308BD4002030008B5024BBF
:1047CC001B68DB68019308BD4002030008B5024B6F
:1047DC001B681B69019308BD4002030008B5024B1E
:1047EC001B685B69019308BD4002030008B5024BCE
:1047FC001B689B69019308BD4002030008B5024B7E
:10480C001B68DB69019308BD4002030008B5024B2D
:10481C001B681B6A019308BD4002030008B5024BDC
:10482C001B681B6B019308BD4002030008B5024BCB
:10483C001B685B6B019308BD4002030008B5024B7B
:10484C001B689B68019308BD4402030008B5024B2A
:10485C001B68DB6B019308BD4402030008B5024BD7
:10486C001B681B68019308BD1C02030008B5024BB2
:10487C001B685B68019308BD1C02030008B5024B62
:10488C001B689B68019308BD1C02030008B5024B12
:10489C001B685B6A019308BD1C02030008B5024B40
:1048AC001B685B6C019308BD1C020300002240686E
:1048BC001146FFF7ABBF002240681146FFF7B6BFA9
:1048CC0040680022FFF7AABF4068002281F0010176
:1048DC00FFF794BF002340681A461946FFF786BFBE
:1048EC00002340681A461946FFF778BF002240683B
:1048FC001146FFF76BBF002240681146FFF756BF09
:10490C00406800220221FFF759BF002340681A4675
:10491C00FFF744BF024B03225A60024A1A607047E9
:10492C005CE6032018680D0010B5094B094C0222F7
:10493C0000201A60084B2060A080A071A360FFF7D4
:10494C0009FF2046054A0649BDE8104001F002BDAA
:10495C0070E6032064E603200000FFFFC4E503209B
:10496C00AB400D0010B504460068FFF77FFF2046F2
:10497C0010BD10B50446006808B1FFF777FF00239F
:10498C00C4E90133236010BD38B504460D460068F8
:10499C000131FFF773FF10B1C4E90005012038BDE8
:1049AC0010B50368044623B143688B4201D3012040
:1049BC0010BD2046FFF7E8FF0028F9D0A368002BB4
:1049CC00F5D122681370F2E737B50D461146019206
:1049DC000446FFF7E5FF019A28B92046FFF7C9FF07
:1049EC00204603B030BDA2602946206801F0E8FDE6
:1049FC002268A3680021D154F2E7002313B5C0E963
:104A0C00003304468360037341B10846019101F001
:104A1C0069FE019902462046FFF7D6FF204602B0F8
:104A2C0010BD13B5044659B10846019101F05AFE68
:104A3C00019902462046FFF7C7FF204602B010BD81
:104A4C00FFF797FFF9E77047704770477047000012
:104A5C00064B994210B500F10C0405D0084601F044
:104A6C0081FC002808BF0024204610BD8C690D0075
:104A7C00064B994210B500F10C0405D0084601F024
:104A8C0071FC002808BF0024204610BD8C690D0065
:104A9C00064B994210B500F10C0405D0084601F004
:104AAC0061FC002808BF0024204610BD8C690D0055
:104ABC004830FFF757BF10B56021044601F04FFC9A
:104ACC00204610BD10B52421044601F048FC2046B8
:104ADC0010BD10B53021044601F041FC204610BD3C
:104AEC00FFF7D3BAFFF7D1BAFFF7CFBA10B5036807
:104AFC0004469B689847A368013BA3602BB92368C5
:104B0C002046DB68BDE81040184710BD10B50446C0
:104B1C00006808B1FFF776FD204610BDF0B5002502
:104B2C00EC1C8C420DD86E1C445D875D974205D100
:104B3C002644B14205D31D60601CF0BD01342544F0
:104B4C00EEE70020F9E70000024A00210A20FFF7F7
:104B5C00F1BD00BFCD440D0030B5013802EB410171
:104B6C00134610F8014F240904F13005392D88BF84
:104B7C0004F1370503F8025B047804F00F0404F128
:104B8C003005392D88BF04F13705994203F8015CD3
:104B9C00E7D1104630BDA0F13003DAB2092A01D8B2
:104BAC0018467047A0F16103052B01D857387047A0
:104BBC00A0F14103052B94BF37384FF0FF307047FD
:104BCC0010B500230370044B04461868FFF722FD50
:104BDC0001232370204610BD7CE6032010B503781A
:104BEC0004461BB1024B1868FFF71CFD204610BD94
:104BFC007CE6032000224260026082717047052926
:104C0C0094BF405C0020704708B582798B799A423A
:104C1C0006D1062201F0C6FCB0FA80F0400908BDAE
:104C2C000020FCE710B5431D01391C7801F8014F39
:104C3C00834203F1FF33F8D110BD70B5144688B030
:104C4C001A460D46002948D0A4B101A9FFF7EAFF86
:104C5C009AB103AA062101A8661EFFF77DFF112E4B
:104C6C0028BF1126324603A9284601F0A9FC0023CF
:104C7C00AB55741C204608B070BD03AA012101A8D5
:104C8C00FFF76AFF3A260DF10F0201210DF1050025
:104C9C008DF80E60FFF760FF0DF1120201210DF18E
:104CAC0006008DF81160FFF757FF0DF11502012179
:104CBC000DF107008DF81460FFF74EFF06AA0121D5
:104CCC0002A88DF81760FFF747FF8DF81A600DF1F9
:104CDC001B0201210DF10900BEE70C46CAE710B515
:104CEC0086B0044613460846122201A9FFF7A5FF19
:104CFC0001A92046FFF781FE204606B010BD00003A
:104D0C0001220261064A11680160516841601189F3
:104D1C00927A827200220181C0F80B20C273704714
:104D2C0094690D0010B50B69036101F11002034683
:104D3C0051F8044B43F8044B9142F9D110BD10B516
:104D4C000B460446B1B1012A01F110020AD1014609
:104D5C0053F8040B41F8040B9342F9D1012323615E
:104D6C00204610BD411E12F8010D01F8010F9A42A8
:104D7C00F9D1F3E7102201F04BFCF1E738B504460A
:104D8C0015461A46FFF7DBFFA581204638BD00000B
:104D9C0008B5026922B98089003818BF012008BD06
:104DAC000249102201F0FEFBF6E700BFB4690D00CA
:104DBC000069704738B50C4614220021054601F0F5
:104DCC0027FC23693BB9627B2B74237B43EA0223C8
:104DDC002B80284638BD01232B7404F110022B467E
:104DEC0054F8041B43F8041B9442F9D1F1E7427BBD
:104DFC00007B40EA02207047704710B50B690361D5
:104E0C0001F11002034651F8044B43F8044B914254
:104E1C00F9D110BD10B586B00446012201A8FFF7E8
:104E2C008EFF01A92046FFF7E8FF06B010BD08B5BC
:104E3C0002690B699A4206D1102201F0B3FBB0FA59
:104E4C0080F0400908BD0020FCE7000001232DE99B
:104E5C00F3410361324B1A6802605A6842600025C4
:104E6C001A899B7A028104468372C0F80B50C57371
:104E7C000E4621B32421304601F03CFC042821D1FC
:104E8C00ADF8045001AFB51C063615F8020CFFF74F
:104E9C0082FEB0F1000810DB15F8010CFFF77BFE69
:104EAC0000280ADB023540EA0810AE4207F8010B75
:104EBC00EBD1BDF804305BBAA3810023236102B0AF
:104ECC00BDE8F08110272421304601F013FCA842E4
:104EDC0006D827440023BC42F1D007F8013DFAE77D
:104EEC00002FECD0705DFFF756FE030615D40001C1
:104EFC00013F5FFA80F804F807802421304601F066
:104F0C00F9FB0135A84208D9705DFFF744FE40B2A9
:104F1C000028A4BF40EA0800E0550135D3E700BFE4
:104F2C0094690D0013B504460191FFF7E9FE204684
:104F3C000199FFF78BFF204602B010BD2DE9F34716
:104F4C0089469DF82870016A04461E46904632B385
:104F5C0001AB4A46FFF7E2FD256AB31C1FBB10B339
:104F6C00EF183F1A1F2F19D8DDF8049009F1020A27
:104F7C00A5EB0902121A00EB090106EB0A0092B22A
:104F8C002144204401F02AFB731C04F809303246FA
:104F9C00414604EB0A0001F013FB2762216A084624
:104FAC0002B0BDE8F0872B441F2BF7D8731C635558
:104FBC00A81C25442062324685F8019041462044C5
:104FCC0001F0FEFA236A33442362E7E71FB5044677
:104FDC00024600F11F01002302F8013B9142FBD174
:104FEC0023620093062201238DF80F2019460DF140
:104FFC000F022046FFF7A2FF204604B010BD73B588
:10500C000A460E4601AB016A0446FFF787FD0546CA
:10501C0078B10198226A4119121A2144521B20447A
:10502C0001F0CEFA206A401B206231462046FFF781
:10503C00E6FF02B070BD000038B54FF6FF730025D7
:10504C00044643800E22294605700571063001F096
:10505C00DFFA04F11400FFF753FE04F12800FFF708
:10506C004FFE044904F13C00FFF7C7FCC4E913559B
:10507C00204638BD63670D0010B5D0E9063203EB4E
:10508C00C2029342184606D0046824888C4203F16D
:10509C000803F6D110BD0020FCE70000F0B5064671
:1050AC0085B01F460D46002950D0002A4ED004680A
:1050BC002378F42A28BFF42243B32379980709D51F
:1050CC00A08903920023FFF74FFA0028039A03DA12
:1050DC0005B0F0BD6FF0770034682379D90609D597
:1050EC00012F07D0A0890023294605B0BDE8F04068
:1050FC00FFF76CBA9B06EBD5022FE9D0A0890023F1
:10510C00294605B0BDE8F040FFF76ABA60884FF653
:10511C00FF7188421CD021794E0701D5012F04D193
:10512C000B0709D46FF07700D2E7A18900931346DF
:10513C002A46FFF72DFACBE7022FF3D00023A189E3
:10514C00009313462A46FFF719FAC1E70248BFE756
:10515C006FF0D100BCE700BFF2FEFFFF2DE9F0417C
:10516C004FF00008C0F80080054624200F46FEF7DB
:10517C008AFF041E04F10C060DD00123C4E901338F
:10518C00074B23603046FFF7BBFDC4F8208039463F
:10519C003046FFF732FEC5E900642846BDE8F081D1
:1051AC005C690D0038B50024046005463020FEF71C
:1051BC006AFF034688B10122C0E90122094A026054
:1051CC004FF6FF7282810E30FFF714FDC3E90644DF
:1051DC00C3E90844C3E90A44DC826B600C332B60DE
:1051EC00284638BD78690D00096851F8022F026015
:1051FC004A68426070471FB50B4601681A680988F7
:10520C00128891420CD101466846FFF7EDFF02A8C7
:10521C001946FFF7E9FF02A96846FFF7F5FC00B94C
:10522C00002005B05DF804FB10B504463420FEF7F1
:10523C002AFF014668B10023C0E90033C0E90233FC
:10524C00C0E90433C0E90633C0E90833C0E90A33C6
:10525C000363216019B90A4A0A20FFF76BFA002090
:10526C00FFF746F920B1064A00210A20FFF762FA3F
:10527C00216804480022FFF79FF9204610BD00BFAB
:10528C00CD440D00BD560D0010B50B4C2378BFF36B
:10529C005B8FDB070ED42046FEF7F9FE50B10748B2
:1052AC00FFF7C2FF2046FEF7F7FE054A0549034803
:1052BC0001F050F8014810BD74E6032080E603208D
:1052CC00C4E50320AD540D0070B50368093B012BF8
:1052DC008AB004460D4612D8FFF7D6FFA1880068A5
:1052EC00FFF7CAFE024660B92023CDE90230094B14
:1052FC0000930949034602AA3220FFF723FA0AB0A9
:10530C0070BDEE6C002EFAD0D4E903102B6DB047B3
:10531C00F5E700BF6B680D0044680D0013B501A8DC
:10532C00FFF74EFC0020FFF7E3F8044601A8FFF757
:10533C0055FC04EAE47002B010BD13B5044600211C
:10534C006846CDE90011FFF7DBF86B4603CB206014
:10535C002046616002B010BD084611B90A46FFF73D
:10536C00D7B8096A0022FAE707B5084629B90A46F0
:10537C0003B05DF804EBFFF7D3B801210190FFF700
:10538C003EFE01980022016AF2E713B501A8FFF76F
:10539C0017FC0020FFF7CCF8044601A8FFF71EFC11
:1053AC00204602B010BD7FB5054603A801911646F4
:1053BC00FFF706FC01992846FFF7CEFF041E09DB18
:1053CC0031462846FFF7D0FF041E03DB2846FFF7C3
:1053DC00DCFF044603A8FFF701FC204604B070BDB7
:1053EC000B68036013B15A6801325A60704710B5EC
:1053FC0051F8043B044640F8043BFFF7F1FF2368E7
:10540C000BB9FFF7A1FB204610BD10B551F8043BBA
:10541C00044640F8043BFFF7E3FF204610BD10B5EF
:10542C000446006828B14368013B43600BB9FFF7A1
:10543C005DFB204610BD10B504460430FFF7EFFFAE
:10544C00204610BD70B5D0E90053044605EBC306E9
:10545C00AE4204D0281DFFF7E2FF0835F8E72068BC
:10546C00FFF704FA204670BD70B5D0E9005304462E
:10547C0005EBC306AE4204D0281DFFF7D0FF08355C
:10548C00F8E72068FFF7F2F9204670BD10B5044626
:10549C002430FFF7E9FF04F11800FFF7D3FF10BD2C
:1054AC00F8B504680646C4B1D4E9065305EBC30746
:1054BC00AF4204D0281DFFF7B2FF0835F8E7A0690A
:1054CC00FFF7D4F904F10C00FFF7CEFF2046FFF7ED
:1054DC00B9FF3421204600F042FF3046F8BD0000F1
:1054EC002DE9F04385B080469946602000230D4697
:1054FC0016460093FEF7C7FD041E04F10C071CD0E2
:10550C001C4B23600122C4E9012236783846FFF790
:10551C0093FD2946267404F14800FFF782FA0D9B8F
:10552C00A3650E9BE365494604F12000FFF765FC7B
:10553C000C9904F13400FFF760FC0023CDE9003333
:10554C00D8F800300293C8F80070D8F80430C8F8C6
:10555C00044003A80393FFF762FF01A8FFF75FFF66
:10556C00D8F8001019B9044A0A20FFF7E3F805B07F
:10557C00BDE8F08340690D00CD440D008842F8B5BC
:10558C0006460C46154618D9904217D2A2F10805CA
:10559C00A1F10807691A4418AF4220D02E1D34B16E
:1055AC0020462B6840F8043B3146FFF719FF304684
:1055BC00FFF735FF083D083CEEE710D0AC420ED0AB
:1055CC00271D36B13046236840F8043B3946FFF7B7
:1055DC0007FF3846FFF723FF08340836EEE7F8BD1F
:1055EC002DE9F041D0E900430546884604EBC3079A
:1055FC00A7421AD041462046FFF7FDFD064608B9E2
:10560C000834F5E79CB1201DFFF709FFD5E90032FE
:10561C0004F1080103EBC2022046FFF7AFFF6B68F1
:10562C00013B6B603046BDE8F0810026FAE7264668
:10563C00F8E7F7B5044651F8043B4768009301A816
:10564C00FFF7CEFED4E901639E4212DB0136002E39
:10565C002CDDF000FFF702F9054608B3D4E900127F
:10566C0001EBC202FFF78AFF2068FFF7FFF8256005
:10567C00A6602668626806EBC70506EBC2022946DF
:10568C0005F10800FFF77AFF35B1009B46F837307B
:10569C0001A9281DFFF7A4FE63680133636001258F
:1056AC0001A8FFF7BCFE284603B0F0BD0025DBE7E0
:1056BC002DE9F04104468EB003A80D46FFF780FAA1
:1056CC002368032B07D0042B48D003A8FFF786FAD6
:1056DC000EB0BDE8F08104A8FFF764FD049B22899D
:1056EC001A806268049952F8083FC1F80230536876
:1056FC00C1F8063007A8049B069305A9FFF770FEB6
:10570C0006A905F11800FFF794FF044607A8FFF758
:10571C0086FE202306938CB9334B344900933220F8
:10572C00234606AA0794FFF70DF8049B2146188818
:10573C00FEF706FF05A8FFF772FEC6E72C4A00929B
:10574C0000232A49079306AA0120FEF7FBFF6B6A88
:10575C00002BEFD0E96A04A89847EBE7218928468B
:10576C00FFF78AFC06460028AFD00468D4E906315E
:10577C004FF6FF72228003EBC101994203D053F81C
:10578C00080B4280F9E7D4E9037307EBC308B8456B
:10579C0004D0381DFFF743FE0837F8E700232361D8
:1057AC00D4E9067307EBC308B84504D0381DFFF7DE
:1057BC0036FE0837F8E70023E3616381AB6A13B167
:1057CC00296B3046984700232022CDE90623094A4D
:1057DC000092064906AA0120FEF7B4FF314605F1F6
:1057EC001800FFF7FDFE70E783680D0044680D009C
:1057FC00A9680D00C6680D008842F8B504460D4630
:10580C00164614D9904213D2A2F10806751AA1F1CA
:10581C0008072C44B74218D01CB131462046FFF77C
:10582C00F4FD301DFFF7FBFD083E083CF2E70CD001
:10583C00B5420AD01CB129462046FFF7E6FD281DCB
:10584C00FFF7EDFD08350834F2E7F8BD70B50E1E14
:10585C00054611DDF000FFF701F8044658B1D5E913
:10586C00001201EBC202FFF7C7FF2868FEF7FEFF2C
:10587C002C60AE60012070BD0024F6E773B50446C1
:10588C0045686846FFF7C1FDD4E90113994210DA67
:10589C002368626803EBC50503EBC202294605F1D8
:1058AC000800FFF7A9FF8DB9636801336360012617
:1058BC0006E001312046FFF7C9FF06460028E7D174
:1058CC0001A8FFF7ACFD304602B070BD6946284612
:1058DC00FFF79BFDE8E78842F8B504460D461646EF
:1058EC0014D9904213D2A2F10806751AA1F1080737
:1058FC002C44B74218D01CB131462046FFF777FD37
:10590C00301DFFF78CFD083E083CF2E70CD0B54289
:10591C000AD01CB129462046FFF769FD281DFFF768
:10592C007EFD08350834F2E7F8BD70B50E1E05464D
:10593C0011DDF000FEF792FF044658B1D5E90012D4
:10594C0001EBC202FFF7C7FF2868FEF78FFF2C6040
:10595C00AE60012070BD0024F6E773B504464568BF
:10596C006846FFF744FDD4E90113994210DA236825
:10597C00626803EBC50503EBC202294605F108007A
:10598C00FFF7A9FF8DB9636801336360012606E058
:10599C0001312046FFF7C9FF06460028E7D101A8D0
:1059AC00FFF73DFD304602B070BD69462846FFF753
:1059BC001EFDE8E72DE9F04F1646A1B080460AA877
:1059CC000D46FFF7FDF83468237953B9314640464C
:1059DC00FFF70DFD0AA8FFF701F9404621B0BDE81D
:1059EC00F08F2B68D3E9037307EBC303039304F124
:1059FC00280904F1140B039B9F4221D0D7F800A077
:105A0C0058460AF11401FFF712FAB8B10AF128014D
:105A1C004846FFF70CFA88B12368DAF800205340A7
:105A2C0033F47F430AD12022CDE91523584A009242
:105A3C0015AA58493220FEF785FEC7E70837DAE782
:105A4C004846FFF7A5F918B953494846FFF7E2F95C
:105A5C002B68D3E9007307EBC30B5F45BA46494685
:105A6C006AD057F8080BFFF7E2F90028F5D004F1DB
:105A7C0014073846FFF78CF968B9484B46491A8821
:105A8C00013292B21A8015A80123FFF777F915A9F4
:105A9C003846FFF7B2F92822002116A800F0B8FD0D
:105AAC003F4B1593394604A8FFF784F904AB18AAA9
:105ABC000DF1200C18685968174603C70833634565
:105ACC003A46F7D11868386023798DF85830DAF8EF
:105ADC0000309B8AADF87430E36B1793314B002286
:105AEC00A11D15A8CDE91E34FEF75CFD00287FF43E
:105AFC006DAF012323702C6831460C340DA8FFF7D1
:105B0C0076FC20460DA9FFF728FF04460EA8FFF7E8
:105B1C0086FC002C7FF45AAF2023CDE90D34224BA8
:105B2C0000930DAA234684E731464046FFF75FFCFD
:105B3C000CA8FFF774FC4DE70BA8FFF70FFB4946C9
:105B4C0015A8FFF737F90B9A0023143215A9012079
:105B5C00FEF700FD0028E7D12F680BA90DA8FFF771
:105B6C0054FC38460DA9FFF789FE07460EA8FFF72F
:105B7C0056FC002FD8D02A685368126803F10053E2
:105B8C00013B0CA802EBC30AFFF749FC6FE700BF0F
:105B9C00E5680D0044680D00A4690D0078E603204B
:105BAC0001002C00D5520D0010690D0010B5064CEB
:105BBC00002320462360FEF71DFD2046034A0449BE
:105BCC00BDE8104000F0C6BB7CE60320C4E5032012
:105BDC00194B0D00F8B506460D468F180024BD4232
:105BEC000CD0336815F8011B9B6830469847031E90
:105BFC0001DB1C44F3E7002C08BF1C462046F8BD13
:105C0C0013B50446084659B1019100F06BFD2368A9
:105C1C000199DB680246204602B0BDE810401847E7
:105C2C0002B010BD03689B68184738B50D210546B6
:105C3C00FFF7F8FF0A2104462846FFF7F3FF20443C
:105C4C0038BD30B58BB000238DF82430012A98BFB5
:105C5C000A2209AC0D46B1FBF2F101FB125303F021
:105C6C00FF03092B94BF30333733DBB2AA4204F85D
:105C7C00013DEFD92146FFF7C3FF0BB030BD2DE935
:105C8C00F04186B000AF05460E46381D142114466F
:105C9C003B60FEF7FBFD13280ED8391D2846FFF795
:105CAC00AFFF04461EB12846FFF7BFFF0444204651
:105CBC001837BD46BDE8F08100F1080323F0070357
:105CCC00E846ADEB030D2246411C3B686846FEF7E7
:105CDC00DDFD69462846FFF793FF0446C546E1E71C
:105CEC00014B024A1A60704784E60320C4690D0018
:105CFC00024B1A68024B1A60704700BF5CE5032028
:105D0C0088E603200021FEF72DBD10B583680446FC
:105D1C0013B1032201469847204610BD10B5044626
:105D2C00FFF7F3FF204610BD0348044A0449002343
:105D3C00836000F00FBB00BF8CE60320C4E503209A
:105D4C00295D0D00014B1860704700BF60E5032012
:105D5C0008B50B4B43B100F059F903681B69984720
:105D6C00002801DDAFF30080064B43B100F0CCF905
:105D7C0003681B699847002801DDAFF3008008BD5C
:105D8C00000000000000000008B5FFF7E1FFFEF77F
:105D9C009FFB014B186008BDECE703200248034A47
:105DAC000349121A00F00CBC00F4032004F4032085
:105DBC00E06B0D0007B5002300931A466FF07701D6
:105DCC00FEF7E2FC03B05DF804FB000007B5438866
:105DDC000A2B08D0502B0BD1094B1B684BB103B0CD
:105DEC005DF804EB1847FFF7E5FF03B05DF804FB23
:105DFC00002300931A466FF07701FEF7C5FCF4E719
:105E0C00A0E6032038B5124C1248134D0021FEF7C2
:105E1C0045FD2368AB42114B0CBF012200221A70C6
:105E2C0002D0FFF7BBFF2560FEF742FB044600F0F3
:105E3C00F7FB0B4B13B12046AFF300800021084851
:105E4C00FEF704FDBDE8384006480021FEF792BC81
:105E5C0000F40320515D0D001E1C279A9CE60320C4
:105E6C0000000000D95D0D00704710B518210446E4
:105E7C0000F075FA204610BDF0B5037D062B8DB0F1
:105E8C000E4600F104074FF0000412D000F1080593
:105E9C0015F8011D0A223046FFF7D3FEAF42044429
:105EAC0019D0002CF4D02E213046FFF7BBFE044451
:105EBC00EEE72F236A4639460A208DF80040FEF79C
:105ECC00B9FB684600F00EFC33680246DB68694695
:105EDC0030469847044620460DB0F0BD10B5054B32
:105EEC000446112240F8043B002100F091FB2046AF
:105EFC0010BD00BFEC690D000346074A10B543F80E
:105F0C00042B01F1100251F8044B43F8044B91425D
:105F1C00F9D10A781A7010BDEC690D0010B59DF816
:105F2C00084044EA032343EA024242EA01610423A3
:105F3C004160037510BD13B5CB7800938B784A780C
:105F4C000978FFF7EBFF02B010BD41747047704742
:105F5C0008B50021007CFEF7CDFB40EAE07008BDDF
:105F6C0008B50121007CFEF7C5FB40EAE07008BDD6
:105F7C0008B5007CFEF7B6FB20EAE07008BD08B55A
:105F8C00007CFEF7A7FB20EAE07008BD13B50446C1
:105F9C00007C0191FEF7A6FB0028019901DC607CD6
:105FAC0020B1207CFEF7AEFB20EAE07002B010BD01
:105FBC00007CFEF7AFBB10B51421044600F0CFF9FE
:105FCC00204610BD10B54FF47A73044608460021E4
:105FDC00C4E90113044B236001232074637411463C
:105FEC00FEF768FB204610BD006A0D00007C002205
:105FFC00FEF768BB007CFEF795BB10B51422044677
:10600C00002100F005FB204610BD000010B5104C1F
:10601C0088B003A8FFF7F1FF2178BFF35B8F11F075
:10602C00010111D120460191FEF731F8019958B1C7
:10603C0003AA0848FFF7C6FF2046FEF72DF8064ACC
:10604C000649044800F086F9024808B010BD00BFAC
:10605C00A4E60320A8E60320C4E503205B5F0D0043
:10606C0070474174704708B5007CFEF71BFB20EAB3
:10607C00E07008BD08B5007CFEF7F4FA20EAE07089
:10608C0008BD08B5007CFEF7FDFA40EAE07008BDDB
:10609C0008B5007CFEF7EEFA40EAE07008BD007C23
:1060AC00FEF7F8BA37B5457C04462DB1207C03B019
:1060BC00BDE83040FEF7CEBA007C0191FEF7F2FA53
:1060CC0000280199F2DC284603B030BD10B514212C
:1060DC00044600F044F9204610BD000010B54FF006
:1060EC00000C0446084611464FF47A72C4E901C20A
:1060FC00044A22600122207462741A46FEF7A2FA46
:10610C00204610BD306A0D0013B50E4C2178BFF33C
:10611C005B8F11F0010112D120460191FDF7B7FF01
:10612C00019960B1084A094B0948FFF7D7FF20468F
:10613C00FDF7B2FF074A0849054800F00BF904487F
:10614C0002B010BDBCE60320C0E6032044E70320E8
:10615C00C8E70320C4E503206D600D0010B50446AC
:10616C0028B100F081FA90FBF4F303FB14042046F1
:10617C0010BD884210B5044603DA081AFFF7EEFF8B
:10618C000444204610BD002240681146FEF71EBB99
:10619C00002240681146FEF739BB002240681146C8
:1061AC00FEF744BB40680022FEF738BB4068002273
:1061BC0081F00101FEF722BB002340681A46194604
:1061CC00FEF714BB002340681A461946FEF706BBBF
:1061DC00002240681146FEF7E9BA4068002202210D
:1061EC00FEF7ECBA002340681A46FEF7D7BA000057
:1061FC00024B04225A60024A1A607047DCE7032003
:10620C00606A0D00002340681A46FEF7C7BA406862
:10621C0000220221FEF7D2BA002240681146FEF796
:10622C00C5BA002240681146FEF7D0BA0023406878
:10623C001A461946FEF7D2BA002340681A46194688
:10624C00FEF7D4BA4068002281F00101FEF7D6BAFD
:10625C0040680022FEF7E2BA002240681146FEF7C1
:10626C00E5BA002240681146FEF7D0BA2DE9F0439A
:10627C00002495B016460D460746FFF72FFE214623
:10628C0018220EA8009400F0C3F94023CDE90C3479
:10629C0021466B460CAA3046FEF702F9044600284C
:1062AC0046D1024601216868FEF790FA0221804629
:1062BC0022466868FEF78AFA009E81462146002E27
:1062CC0036D0002934D17368022B03D00A2B0BD0A3
:1062DC00F669F4E7B8F1000F04D07169384604315F
:1062EC00FFF729FE4146F3E7B9F1000F01D149460A
:1062FC00EEE77469102201A800F08AF906238DF8E4
:10630C00143001AD04F108031834186859682A4692
:10631C0003C20833A3421546F7D101A906A807AD5D
:10632C00FFF7EAFD0FCD3C1D0FC42B682370DEE791
:10633C000098FEF7ADF8384615B0BDE8F0830000C4
:10634C00024B034A1A6000225A607047E4E70320AC
:10635C00946A0D000B460146184600F015B9FDF77E
:10636C0094BE0000014900F0F9B800BFD86A0D00D6
:10637C007FB500241023CDE90234036800949E6994
:10638C008DF8044015466B461268B0479DF80430F2
:10639C0003F00603062B03BF009B2B600120204655
:1063AC0004B070BD0098904214BF012006207047C5
:1063BC0010B5034B0360044600F0CDF8204610BD29
:1063CC00186B0D0010B50446FFF7F2FF20460821AC
:1063DC00FFF7C5FF204610BD2DE9F0411F46DDE952
:1063EC000834DDF8188098450646154607D10799FC
:1063FC0000F0B4F818B165710020BDE8F0813946A1
:10640C00304600F0ABF80028F6D00123C4F8008029
:10641C002571A371F0E738B515461C4600F09EF8BF
:10642C0020B10823E36006232560237138BD73B5C2
:10643C0005460C4601921E4600F090F850B9032E0A
:10644C0008D82368019A5B692946204602B0BDE84A
:10645C007040184702B070BD10B5034B0360044682
:10646C00FFF7A6FF204610BD786B0D0010B5044653
:10647C00FFF7F2FF20460C21FFF771FF204610BDFD
:10648C00F7B5089F974205460E4614460AD0A868F1
:10649C0002680897156A31462246AC4603B0BDE83F
:1064AC00F04060471946019300F058F8019B002812
:1064BC00EDD0062003B0F0BD2DE9F14F0D46194685
:1064CC00DDE90A4BDDE90CA681461746984600F03B
:1064DC0045F890B1002D3460377109DB61198A459C
:1064EC000CBF06210121B171002001B0BDE8F08F75
:1064FC000235F9D10123B371F6E7544506D159465B
:10650C00484600F02BF808B17771EDE7D9F8080090
:10651C000368CDE90CA6CDE90A4BDC693A46434643
:10652C002946A44601B0BDE8F04F60472DE9F04183
:10653C0007460C4615461E46FFF76DFF48B9B8686E
:10654C0003689F692A4633462146BC46BDE8F041A4
:10655C006047BDE8F081704700207047814208B564
:10656C000ED0406803782A2B0CD049680B782A2B64
:10657C0008BF013100F0ACF8B0FA80F0400908BD5A
:10658C000120FCE70020FAE710B5054C13462CB1AE
:10659C000A4601460220AFF3008010BD2046FCE7FE
:1065AC000000000030B501390024A24201D10020C6
:1065BC0005E0035D01340D5DAB42F6D0581B30BDD8
:1065CC000A44914200F1FF3300D1704710B511F825
:1065DC00014B03F8014F9142F9D110BD884210B51F
:1065EC0001EB020402D98442234607D8431EA14280
:1065FC0008D011F8012B03F8012FF8E702440146EB
:10660C008A4200D110BD13F8014D02F8014DF7E795
:10661C0002440346934200D1704703F8011BF9E78B
:10662C0038B50D4B1D68AB6B04467BB91820FEF7D3
:10663C0015F90A4A0A4BA863C0E90023094B836089
:10664C000B23838101220023C0E90423AB6B0022BE
:10665C001C615A6138BD00BF60E503200E33CDAB21
:10666C0034126DE6ECDE0500134B10B51C68A36B01
:10667C007BB91820FEF7F2F8104A114BA063C0E961
:10668C000023104B83600B23838101220023C0E97C
:10669C000423A16B0C480A694B690C4C504304FB56
:1066AC000300A2FB04345A1C044444F10000C1E969
:1066BC00042020F0004010BD60E503200E33CDAB6C
:1066CC0034126DE6ECDE05002DF451582D7F954CFF
:1066DC0010F8012B11F8013B012A28BF9A42F7D080
:1066EC00D01A7047034613F8012B002AFBD1181A55
:1066FC000138704710B5024601448A42134601D155
:10670C00181A10BD1C780132002CF6D1F8E70000E5
:10671C001D400D0059400D0081400D0085400D00BD
:10672C0000000000526563656976656420646174DD
:10673C00612066726F6D3A20253032583A2530321E
:10674C00583A253032583A253032583A253032589A
:10675C003A25303258200A00256300537461727454
:10676C00696E6720757020424C4520436F6E6E65D4
:10677C006374696F6E200A004172676F6E20424C21
:10678C004520416464726573733A2025730A0036A0
:10679C00453430303030312D423541332D4633398C
:1067AC00332D453041392D45353045323444434342
:1067BC004139450036453430303030322D42354188
:1067CC00332D463339332D453041392D4535304540
:1067DC00323444434341394500364534303030304F
:1067EC00332D423541332D463339332D4530413924
:1067FC002D45353045323444434341394500747896
:10680C0000727800000000000000000017490D0025
:10681C000D490D0003490D00F9480D00ED480D0020
:10682C00E1480D00D5480D00CD480D00C3480D00C2
:10683C00B9480D0079620D00776972696E672E6236
:10684C006C6500537461727420646973636F766550
:10685C0072696E672073657276696365732E00507A
:10686C0065657220646576696365206973206D695E
:10687C007373696E6721004661696C656420746F7F
:10688C0020617070656E6420706565722043656E62
:10689C007472616C206465766963652E00436F6E5B
:1068AC006E65637465642062792043656E747261F1
:1068BC006C206465766963652E00446973636F6E42
:1068CC006E65637465642062792072656D6F7465A2
:1068DC00206465766963652E004475706C6963612C
:1068EC007465642063686172616374657269737442
:1068FC0069632063616E6E6F7420626520616464ED
:10690C0065642E004661696C656420746F2061704B
:10691C0070656E64206C6F63616C2063686172617A
:10692C006374657269737469632E00000000000063
:10693C0000000000594A0D00C34A0D00BD4A0D006D
:10694C00ED4A0D005D4A0D00000000000000000043
:10695C00554A0D00D14A0D00574A0D00F14A0D0061
:10696C007D4A0D000000000000000000534A0D009D
:10697C00DF4A0D0099540D00F54A0D009D4A0D009B
:10698C000000000000000000FB349B5F80000080D2
:10699C0000100000000000007BE327747BF815ACAE
:1069AC00DD49A913000072F5FB349B5F8000008069
:1069BC0000100000000000006170700025592D25AA
:1069CC006D2D25645425483A254D3A2553257A00DA
:1069DC0061736374696D65000000000000000000C5
:1069EC00855E0D00755E0D00775E0D0000000000E9
:1069FC00000000005B5F0D00C35F0D00995F0D0090
:106A0C00E15B0D008B5F0D005D5F0D006D5F0D0098
:106A1C00BD5F0D007D5F0D00575F0D000000000095
:106A2C00000000006D600D00D9600D00B1600D001C
:106A3C00E15B0D0081600D009D600D008F600D000D
:106A4C00AB600D006F600D0073600D000000000066
:106A5C0000000000F1610D00E7610D00DD610D002B
:106A6C0093610D00D1610D00C5610D00B9610D0080
:106A7C00B1610D00A7610D009D610D0079620D00E3
:106A8C00000000000000000011620D001B620D00F0
:106A9C0025620D002F620D0039620D0045620D005C
:106AAC0051620D005D620D0065620D006F620D009C
:106ABC0079620D00537431395F53705F6D616B6592
:106ACC005F7368617265645F74616700186B0D00B9
:106ADC00C06A0D00786B0D00EC6A0D009C6B0D000C
:106AEC004E31305F5F637878616269763131375F40
:106AFC005F636C6173735F747970655F696E666FE9
:106B0C004500000000000000E06A0D00BD630D00B0
:106B1C00D1630D0065650D0065650D003B640D00CE
:106B2C007D630D0023640D00E5630D00B1630D0062
:106B3C00786B0D00486B0D00E06A0D004E31305F34
:106B4C005F637878616269763132305F5F73695F59
:106B5C00636C6173735F747970655F696E666F45A2
:106B6C0000000000000000003C6B0D0065640D008F
:106B7C0079640D0065650D0065650D003B640D00C5
:106B8C007D630D0039650D00C5640D008D640D002D
:106B9C00186B0D00A46B0D00537439747970655F1C
:106BAC00696E666F0000000095430D0021490D00D1
:106BBC0035490D00B95B0D00ED5C0D00FD5C0D0061
:106BCC00355D0D00FD610D004D630D0000000000F2
:046BDC0000000000B5
:046BE00000000000B1
:106BE400DC690D0064E503200000000000000000E3
:106BF4000000000000000000000000000000000091
:106C04000000000000000000000000000000000080
:106C14000000000000000000000000000000000070
:106C24000000000000000000000000000000000060
:106C34000000000000000000000000000000000050
:086C4400000000000000000048
:106C4C00FFFFFFFF00000102030405060708090A05
:106C5C000B0C0D0E0F101112131415161718191A00
:086C6C001B1C1D1E1F20280047
:046C74007856341208
:04000003D000401CCD
:00000001FF
