:02000002D0002C
:1040000000400D0034760D00000006000C00050194
:084010000401BD0B00000000DB
:04401800EC690D0042
:10401C0009480A49884208B505D0094A824202D0AB
:10402C00121A02F093FC0748074A0021121A02F0F8
:10403C009BFC014808BD00BF8CE1032094710D006E
:10404C0004E6032008E60320F4E7032070B5074ECE
:10405C00074C01F04FFCA41BA4080025A54200D17D
:10406C0070BD56F8043B98470135F7E760710D00B9
:10407C0084710D0000F02EB808B500F0A1F8BDE871
:10408C00084001F0F9BB01F061B801F067B800001D
:10409C0008B5034A00210C2000F094FFFEE700BF96
:1040AC00414D0D000078B0FA80F0400970470123B3
:1040BC000370704770470EB403B503AB002153F87F
:1040CC00042B019301F0C1FA02B05DF804EB03B0CC
:1040DC007047000008B5B9EE080A01F003FB01F0C7
:1040EC0015F810B1002001F019F80021132001F08F
:1040FC0029FF3C220221074800F04AFB054800F04A
:10410C00D7FA4FF4FA6001F07DFBBDE80840014896
:10411C0000F056BA0CE6032030B58DB005462449A4
:10412C00244C684601F0BDF9214904A801F0B9F905
:10413C0001F04DFB0246C31708A801F0F3FA08A9D9
:10414C00684601F0DFF908A801F060F913230B228F
:10415C00694608A801F0DEF908A904A801F0D2F913
:10416C0008A801F053F9204600F02AFA2046012154
:10417C0000F08FFD2046012100F090FD0022114639
:10418C00204600F083FD049A0B492046FFF793FF6D
:10419C000A492A462046FFF78EFF204600F088FA8F
:1041AC0004A801F033F9684601F030F90DB030BDC8
:1041BC0024710D000CE60320006A0D000C6A0D0042
:1041CC0010B50A4C00F0BEFD2368C01A41F28833CA
:1041DC00984209D9132001F0DFFE054B1860FFF758
:1041EC009BFF00F0AFFD206010BD00BF30E6032048
:1041FC0034E6032010B52421044601F04CFF204680
:10420C0010BD000010B5064C0421204600F0C2F988
:10421C002046044A0449BDE8104001F037BF00BFF6
:10422C000CE6032008E60320C1400D00F0B5457EE6
:10423C00BDF81440022D67D0032D00F09780012D9E
:10424C006AD10589D2432A4412B2002A5BDBB0F949
:10425C000850954257DD0029BEBF5B181BB20021E8
:10426C00B0F90A00CD188542C4BF431A1BB2002B0B
:10427C0049DDC1F3C400DFF81CC102EBC01211F020
:10428C000701DBB20CEB02001AD0C1F108053F4E5E
:10429C00EDB2AB42775D3FBFA5EB030EFF2646FAAE
:1042AC000EF637401CF80260012C0CBF3E43BE4397
:1042BC00AB420CF8026026D308390B44DBB28030D9
:1042CC00072B17D9012C0CBFFF25002500F180010D
:1042DC001A46083AD2B2072A01F8805C01F1800133
:1042EC00F7D8A3F10802C2F3C402013200EBC210EA
:1042FC0003F007033BB1264AD25C0378012C0CBFB8
:10430C00134393430370F0BD4589D2432A44CD181F
:10431C000189491B12B209B2002AF4DBB0F90A5028
:10432C009542F0DD0029BEBF5B181BB20021B0F92D
:10433C000870CE18BE42C4BF6B1A1BB2002BE2DD54
:10434C00D010802510FB05111248084402F007011B
:10435C0001228A40012CD2B203440CD18342D2D028
:10436C0010F8014B144300F8014CF7E7CD184189C4
:10437C00491B09B269E7D243D2B28342C3D010F8C9
:10438C00014B144000F8014CF7E700BF94E1032007
:10439C008CE103209CE10320F0B5457EBDF8144070
:1043AC00022D34D0032D00F09980012D37D1D51872
:1043BC000289521B12B20029C0F28F80B0F90A5048
:1043CC008D4240F38A80002ABEBF9B181BB200228C
:1043DC00B0F90870D618BE42C4BFAB1A1BB2002B82
:1043EC007BDDC810802510FB05224448104401F0E9
:1043FC00070201219140012CC9B2034473D19842A8
:10440C006BD010F8014B0C4300F8014CF7E7058911
:10441C00C9432944D5184289521B09B212B200294A
:10442C005BDBB0F908508D4257DD002ABEBF9B18EC
:10443C001BB20022B0F90A00D5188542C4BF831AFA
:10444C001BB2002B49DDC2F3C400DFF8B0C001EB96
:10445C00C01112F00702DBB20CEB01001AD0C2F152
:10446C000805274EEDB2AB42775D3FBFA5EB030EBF
:10447C00FF2646FA0EF637401CF80160012C0CBFE3
:10448C003E43BE43AB420CF8016026D3083A1344BA
:10449C00DBB28030072B17D9012C0CBFFF25002570
:1044AC0000F180011A46083AD2B2072A01F8805C62
:1044BC0001F18001F7D8A3F10802C2F3C402013262
:1044CC0000EBC21003F007033BB10E4AD25C037839
:1044DC00012C0CBF134393430370F0BD4589C943B2
:1044EC00294409B267E7C943C9B29842F5D010F81C
:1044FC00014B0C4000F8014CF7E700BF9CE1032096
:10450C0094E103208CE10320F8B50D1E06461446F9
:10451C001F462DDB00F0C7FBA84229DD002C27DB52
:10452C00304600F0C3FBA04222DD304600F0B9FB60
:10453C0002281ED0032825D0012804D13289E44357
:10454C0022442C4615B2002C2146B8BFE11DC910DF
:10455C00802311FB03550E49012204F007044B572D
:10456C0002FA04F464B297420CBF2343A3434B55A5
:10457C00F8BD318972890139E4434D1B14442DB2C5
:10458C0024B2E0E77389013B5B1B25461CB2DAE7DA
:10459C009CE1032038B5402204460D46802100F0F2
:1045AC00A7FA064B2360FF2384F8213063774FF67C
:1045BC00FF73E38384F82050204638BD286A0D0031
:1045CC0002484FF48062002102F0CEB99CE1032036
:1045DC0013B50B4C2178BFF35B8F11F001010BD19C
:1045EC0020460191FFF75EFD019928B1054800F0C6
:1045FC0029FE2046FFF75BFD024802B010BD00BF4C
:10460C0038E603203CE6032007B590F8223043B18E
:10461C000191FFF7DDFF019903B05DF804EB00F0A9
:10462C00C1BE0B46817F407F012203B05DF804EBD5
:10463C0001F0C9BC38B590F91D30013304460D4664
:10464C001DD090F92100012180B201F08CFC94F96D
:10465C001F00002180B201F086FC94F9210000219A
:10466C0080B201F080FC29462046FFF7CDFF94F97B
:10467C0021000121BDE8384080B201F074BC01F08A
:10468C00DDFC94F91B1001F027FB01F0D7FC03684B
:10469C0000219B68984701F0D1FC036829469B6870
:1046AC00984701F0CBFCBDE8384001F01CBB000082
:1046BC00F8B521210446FFF7BDFF00212046FFF786
:1046CC00B9FF7F212046FFF7B5FF22212046FFF7D7
:1046DC00B1FF00212046FFF7ADFF07212046FFF771
:1046EC00A9FF94F91D30294F01332AD094F92100E8
:1046FC00012180B201F037FC94F91F00012180B236
:10470C0001F031FC94F92100002180B201F02BFC66
:10471C00012000F00FFB4FF48065013D17F8011BE1
:10472C002046ADB2FFF770FF002DF6D1012000F04E
:10473C0001FB94F921000121BDE8F84080B201F0A1
:10474C0012BC102601F07AFC94F91B1001F0C4FA8B
:10475C0001F074FC0368A6F110059B684021ADB212
:10476C00984701F06BFC0368795D9B680135ADB22D
:10477C009847AE42F5D101F061FC01F0B4FA06F1B4
:10478C0010039EB2B6F5826FDCD1F8BD9CE103201C
:10479C0038B590F91D300177013304460D46C276C9
:1047AC0000F0C98090F91F00012180B201F0CAFB12
:1047BC0094F92100012180B201F0C4FB94F822305D
:1047CC00002B00F0A68094F92100012180B201F0A9
:1047DC00CAFBFFF7FDFE012100F04FFDFFF7F8FECD
:1047EC00102100F0B9FDFFF7F3FE002100F058FD99
:1047FC00FFF7EEFE00F030FD94F92000012180B2AD
:10480C0001F0A0FB94F92000012180B201F0ABFB78
:10481C00012000F0F7FF94F92000002180B201F094
:10482C00A2FB0A2000F0EEFF94F92000012180B2D7
:10483C0001F099FB2046AE21FFF7FCFE2046D52166
:10484C00FFF7F8FE20468021FFF7F4FE2046A82152
:10485C00FFF7F0FE20463F21FFF7ECFE2046D32168
:10486C00FFF7E8FE20460021FFF7E4FE204640213A
:10487C00FFF7E0FE8D212046FFF7DCFE012D0CBF7B
:10488C00102114212046FFF7D5FE20462021FFF7EA
:10489C00D1FE20460021FFF7CDFE2046A121FFF7D7
:1048AC00C9FE2046C821FFF7C5FE2046DA21FFF7D6
:1048BC00C1FE20461221FFF7BDFE81212046FFF7E5
:1048CC00B9FE012D0CBF9F21CF212046FFF7B2FE70
:1048DC00D9212046FFF7AEFE012D0CBF2221F1217C
:1048EC002046FFF7A7FE2046DB21FFF7A3FE20465C
:1048FC004021FFF79FFE2046A421FFF79BFE204698
:10490C00A621FFF797FE2046AF21BDE83840FFF700
:10491C0091BE94F91D00012180B201F013FB94F9B2
:10492C001E00012180B201F00DFB94F82230002B07
:10493C003FF462AF47E701F081FB01F0C3F95BE79D
:10494C002DE9F04F85B01F46BDF93880BDF83C30DD
:10495C00A8EB0209A7EB010AB9F1000FB8BFC9F126
:10496C000009BAF1000FB8BFCAF1000AD14583465D
:10497C000C46154604DD3A462C4647460D469046F5
:10498C00BC4205DD2A464546904622463C46174623
:10499C003E1BB2B20092A8EB0502002AB8BF5242ED
:1049AC000192C6F3C03202FA86F64545B4BF012225
:1049BC004FF0FF3276100292BC421CDCDBF8002078
:1049CC000393D145D2F81080C7BF294622462A4608
:1049DC0021465846C047019A039BB61AB1B236B26B
:1049EC00002E05DA029A1544009A56182DB236B2EA
:1049FC00013424B2E0E705B0BDE8F08F2DE9F347B0
:104A0C00BDF82C800768BDF92890CDF800800446CD
:104A1C00FF6916468A461D46B8472368CDF80080C4
:104A2C0009F1FF323244DF6951462B46204612B25F
:104A3C00B8472368CDF800809F6932464B465146F3
:104A4C002046B8476B1E03EB0A012368CDF828807B
:104A5C009D6932464B4609B22046AC4602B0BDE8D1
:104A6C00F047604737B5013B13440468BDF8185054
:104A7C0001951BB2009364690B46A04703B030BD8F
:104A8C0037B5BDF818500468CDE90025013B0B443F
:104A9C0064691BB2A04703B030BD2DE9F347BDF9E3
:104AAC002890BDF82C80054692460C46CE18B44290
:104ABC000BDA2B68CDF800809F6921464B46524695
:104ACC0028460134B84724B2F1E702B0BDE8F087BC
:104ADC0013B502680191B0F90E100091546AB0F947
:104AEC000C3000221146A04702B010BD70470000E8
:104AFC0030B54281C2814FF0FF320024054D426136
:104B0C000122446005600181818104610283827607
:104B1C0030BD00BF5C6F0D002DE9F04F2DED028B09
:104B2C008BB006460391BDF858100591BDF85C108A
:104B3C000691B0F90C1003989DF86050814251DD3C
:104B4C00B6F90E1091424DDD062111FB0504002C27
:104B5C0048DD02EBC504002C44DD03EB8303099311
:104B6C0093B2079100240493052C1CBF2D4B099A7A
:104B7C00049F16BF1B1900239B5C0293039AABB2D4
:104B8C00089304FB05F313FA82F31BB204EB020A3D
:104B9C0008EE103A4FF000080FFA85F90FFA8AFA6E
:104BAC00029BDB072FD5012D336820D1049AD3F853
:104BBC0010B0059B424412B251463046D847029B76
:104BCC005B080293089B08F101081F44B8F1080F19
:104BDC00BFB2E5D1079B013B013413F0FF0364B274
:104BEC000793C1D10BB0BDEC028BBDE8F08F059AD9
:104BFC00CDE9009218EE101AD3F824B03AB24B4615
:104C0C003046D847DBE7DDE905239342D7D0012DA9
:104C1C00336805D1049AD3F810B0069B4244CAE716
:104C2C00069AE5E7586A0D0030B50A2985B00446A6
:104C3C0007D1027E638A03EBC203638200232382C3
:104C4C0021E00D291FD0037E0293C38A0193838A2E
:104C5C000093B0F912200B46B0F91010FFF75CFF6F
:104C6C00217E238A01EB410003EB4003A07E1BB2A3
:104C7C000A46238238B1B4F90C006FF0050505FB28
:104C8C0001018B42D6DC012005B030BD018242828D
:104C9C007047012938BF012101767047C18281829A
:104CAC007047407E7047B0F90C007047B0F90E00A9
:104CBC007047000008B5024B1B689B68019308BD48
:104CCC006802030008B5024B1B68DB68019308BD42
:104CDC006802030008B5024B1B685B68019308BDB2
:104CEC002C02030008B5024B1B689B68019308BD9E
:104CFC002C02030008B5024B1B68DB68019308BD4E
:104D0C002C02030008B5024B1B681B69019308BDFC
:104D1C002C02030008B5024B1B681B6B019308BDEA
:104D2C002C02030008B5024B1B685B68019308BD9D
:104D3C001802030008B5024B1B68DB68019308BD21
:104D4C001802030008B5024B1B685B69019308BD90
:104D5C001802030008B5024B1B689B6D019308BD3C
:104D6C001802030008B5024B1B685B6E019308BD6B
:104D7C001802030008B5024B1B685B6C019308BD5D
:104D8C004802030008B5024B1B689B6C019308BDDD
:104D9C004802030008B5024B1B685B69019308BD10
:104DAC006402030008B5024B1B681B68019308BD25
:104DBC003C02030008B5024B1B68DB68019308BD7D
:104DCC003C02030008B5024B1B681B69019308BD2C
:104DDC003C02030008B5024B1B685B69019308BDDC
:104DEC003C02030008B5024B1B689B69019308BD8C
:104DFC003C02030008B5024B1B68DB69019308BD3C
:104E0C003C02030008B5024B1B681B6A019308BDEA
:104E1C003C02030008B5024B1B689B6A019308BD5A
:104E2C003C02030008B5024B1B68DB68019308BD0C
:104E3C002802030008B5024B1B689B69019308BD4F
:104E4C002802030008B5024B1B68DB69019308BDFF
:104E5C002802030008B5024B1B681B6A019308BDAE
:104E6C002802030008B5024B1B685B6A019308BD5E
:104E7C002802030008B5024B1B689B6A019308BD0E
:104E8C002802030008B5024B1B68DB6A019308BDBE
:104E9C002802030008B5024B1B681B6B019308BD6D
:104EAC002802030008B5024B1B685B6B019308BD1D
:104EBC002802030008B5024B1B681B6C019308BD4C
:104ECC002802030008B5024B1B681B68019308BD40
:104EDC003002030008B5024B1B689B68019308BDA8
:104EEC003002030008B5024B1B68DB68019308BD58
:104EFC003002030008B5024B1B681B69019308BD07
:104F0C003002030008B5024B1B685B69019308BDB6
:104F1C003002030008B5024B1B68DB69019308BD26
:104F2C003002030008B5024B1B681B6A019308BDD5
:104F3C003002030008B5024B1B685B6A019308BD85
:104F4C003002030008B5024B1B681B6C019308BDB3
:104F5C003002030008B5024B1B685B6C019308BD63
:104F6C003002030008B5024B1B681B68019308BD97
:104F7C004C02030008B5024B1B681B69019308BD6A
:104F8C004C02030008B5024B1B685B69019308BD1A
:104F9C004C02030008B5024B1B689B69019308BDCA
:104FAC004C02030008B5024B1B68DB69019308BD7A
:104FBC004C02030008B5024B1B681B6A019308BD29
:104FCC004C02030008B5024B1B685B6B019308BDD8
:104FDC006002030008B5024B1B681B68019308BDF7
:104FEC002002030008B5024B1B685B68019308BDE7
:104FFC002002030008B5024B1B685B69019308BDD6
:10500C002002030008B5024B1B689B6D019308BD81
:10501C002002030008B5034B1B68D3F888300193BA
:10502C0008BD00002002030008B5034B1B68D3F831
:10503C009430019308BD00002002030008B5024B18
:10504C001B685B68019308BD4002030008B5024B66
:10505C001B689B68019308BD4002030008B5024B16
:10506C001B68DB68019308BD4002030008B5024BC6
:10507C001B681B69019308BD4002030008B5024B75
:10508C001B685B69019308BD4002030008B5024B25
:10509C001B689B69019308BD4002030008B5024BD5
:1050AC001B68DB69019308BD4002030008B5024B85
:1050BC001B681B6A019308BD4002030008B5024B34
:1050CC001B681B6B019308BD4002030008B5024B23
:1050DC001B685B6B019308BD4002030008B5024BD3
:1050EC001B681B6C019308BD4002030008B5024B02
:1050FC001B685B6C019308BD4002030008B5024BB2
:10510C001B689B68019308BD4402030008B5024B61
:10511C001B685B69019308BD4402030008B5024B90
:10512C001B68DB6A019308BD4402030008B5024BFF
:10513C001B681B6B019308BD4402030008B5024BAE
:10514C001B68DB6B019308BD4402030008B5024BDE
:10515C001B681B68019308BD1C02030008B5024BB9
:10516C001B685B68019308BD1C02030008B5024B69
:10517C001B689B68019308BD1C02030008B5024B19
:10518C001B681B69019308BD1C02030008B5024B88
:10519C001B685B6A019308BD1C02030008B5024B37
:1051AC001B685B6C019308BD1C02030008B5024B25
:1051BC001B68DB6C019308BD1C02030000224068D5
:1051CC001146FFF773BF002240681146FFF77EBF00
:1051DC0040680022FFF772BF4068002281F0010195
:1051EC00FFF75CBF002340681A461946FFF74EBF15
:1051FC00002340681A461946FFF740BF002240685A
:10520C001146FFF733BF002240681146FFF71EBF5F
:10521C00406800220221FFF721BF002340681A4694
:10522C00FFF70CBF024B03225A60024A1A60704708
:10523C0044E60320946F0D000021FFF783BE00218C
:10524C00FFF788BE10B5044608462170FFF762FED2
:10525C0000236360204610BD10B504460078FFF7AC
:10526C00EBFF48B920784FF6FF71FFF72BFE207843
:10527C00BDE81040FFF7E3BF10BD13B5044600783E
:10528C000191FFF7D9FF019940B92078FFF722FE71
:10529C00207802B0BDE81040FFF7D1BF02B010BDBE
:1052AC0013B5044600780191FFF7C6FF019940B988
:1052BC002078FFF717FE207802B0BDE81040FFF70A
:1052CC00BEBF02B010BD0000400830B5186000240D
:1052DC0018688842E5B206D90134082C02D040087F
:1052EC001860F5E70725024B5B5D137030BD00BFFE
:1052FC00C86F0D002DE9F04188B0002304460078FA
:10530C0002930E461746FFF797FF054600BB94F82D
:10531C0000800146142203A801F026FB0B232A4629
:10532C0003A94046ADF80C30FFF704FE04988DF845
:10533C00075002AB0DF1070207FB06F1FFF7C4FFA4
:10534C0020789DF80710FFF7D5FD2078FFF777FF41
:10535C00029808B0BDE8F08138B5044600780D46D7
:10536C00FFF76AFF0346D0B9616899B10C4A12F88D
:10537C00010B854202D00133082BF8D10133DBB28B
:10538C000122D9402046FFF7B5FF2078BDE8384010
:10539C00FFF755BF20782946FFF7ACFDF5E738BD80
:1053AC00C86F0D0008B50078FFF7ACFDC0B208BDA2
:1053BC0010B50446006818B1FFF7D0FE0023236037
:1053CC0010BD10B50446FFF7F3FF204610BD0000DA
:1053DC0010B5094B094C022200201A60084B2060C2
:1053EC00A080A071A360FFF7FDFD2046054A064989
:1053FC00BDE8104000F04ABE58E603204CE60320FE
:10540C000000FFFF08E60320CF530D0010B5044643
:10541C000068FFF7A3FE204610BD10B504460068D7
:10542C0008B1FFF79BFE0023C4E90133236010BDD4
:10543C0038B504460D4600680131FFF797FE10B1F0
:10544C00C4E90005012038BD10B50368044623B13A
:10545C0043688B4201D3012010BD2046FFF7E8FFC3
:10546C000028F9D0A368002BF5D122681370F2E75D
:10547C0037B50D46114601920446FFF7E5FF019A38
:10548C0028B92046FFF7C9FF204603B030BDA26003
:10549C002946206801F05AFA2268A3680021D154E9
:1054AC00F2E7002313B5C0E90033044683600373AD
:1054BC0041B10846019101F08BFA01990246204650
:1054CC00FFF7D6FF204602B010BD38B50546006880
:1054DC000C4668B16A688B689A4207D3096801F078
:1054EC006FFAA368AB600023A36038BDFFF736FEEC
:1054FC0023682B6063686B60A368AB600023C4E90E
:10550C000033F1E7884210B5044601D0FFF7DDFF08
:10551C00204610BDF8B59A420F461D460C4988BF6F
:10552C0013461446064684BF2C461D46FFF7B9FFAA
:10553C00BA68A2420AD33968AA4294BFC4EB0202E9
:10554C00C4EB050221443046FFF792FF3046F8BD0C
:10555C0024710D0010B50446006808B1FFF712FC69
:10556C00204610BD10B58368044613B103220146D2
:10557C009847204610BD000010B5064C002320466D
:10558C002360FFF7F7FB2046034A0449BDE81040AF
:10559C0000F07CBD5CE6032008E6032061550D009D
:1055AC00F8B506460D468F180024BD420CD0336862
:1055BC0015F8011B9B6830469847031E01DB1C4401
:1055CC00F3E7002C08BF1C462046F8BD13B5044673
:1055DC00084659B1019101F0FBF923680199DB6888
:1055EC000246204602B0BDE81040184702B010BD7C
:1055FC0003689B68184738B50D210546FFF7F8FF7F
:10560C000A2104462846FFF7F3FF204438BD30B585
:10561C008BB000238DF82430012A98BF0A2209ACE4
:10562C000D46B1FBF2F101FB125303F0FF03092B02
:10563C0094BF30333733DBB2AA4204F8013DEFD9C3
:10564C002146FFF7C3FF0BB030BD2DE9F04186B00A
:10565C0000AF05460E46381D142114463B60FFF77B
:10566C0095FD13280ED8391D2846FFF7AFFF0446C9
:10567C001EB12846FFF7BFFF044420461837BD462D
:10568C00BDE8F08100F1080323F00703E846ADEB19
:10569C00030D2246411C3B686846FFF777FD6946BF
:1056AC002846FFF793FF0446C546E1E70023406810
:1056BC001A461946FFF7E2BC014B024A1A607047C2
:1056CC0060E60320D06F0D0008B50020FFF72EFD1B
:1056DC0028B1FFF71BFD80F00100C0B208BD01200E
:1056EC00FCE70000FAEE087AB4EEE70AF1EE10FAE5
:1056FC0008B511D4F2EE0C7AB4EEE70AF1EE10FA1A
:10570C000ADCDFED067A60EE277A17EE900A01F0DC
:10571C00B5F8034BC3E9000108BD00BF00006145AB
:10572C0070E6032030B504461848D0E90010521832
:10573C0040EB03031648D0E90010521893B040EB2D
:10574C000303CDE9002324220DEB0200002101F01C
:10575C000BF9002509A96846FFF728FD16222946F2
:10576C0003A8029501F000F902A909A801F0BAF802
:10577C0002A801F02DF912AB184402A900F8415C03
:10578C002046FFF78EFE204613B030BD70E6032096
:10579C0068E6032010B50020FFF7DCFA0446A0B938
:1057AC00FFF718FC012810D12046FFF72BFC60B93D
:1057BC00FFF78AFF10B9FFF7A1FCF9E7FFF784FFA9
:1057CC00BDE810400020FFF7C5BA204610BD1FB53C
:1057DC00FFF7E0FF10220021684601F0C5F8002118
:1057EC006846FFF7BFFA009805B05DF804FB0000AF
:1057FC00024B1A68024B1A60704700BF9CE50320ED
:10580C0064E603200021FFF7F5BB10B50446FFF753
:10581C00A9FE204610BD00000348044A0449002399
:10582C00836000F033BC00BF78E6032008E6032059
:10583C0017580D00014B1860704700BFA0E50320FE
:10584C0008B50B4B43B100F057F903681B69984737
:10585C00002801DDAFF30080064B43B100F0CAF91C
:10586C0003681B699847002801DDAFF3008008BD71
:10587C00000000000000000008B5FFF7E1FFFFF793
:10588C0061FA014B186008BDD8E703200248034AAF
:10589C000349121A01F05AB800F4032004F403204F
:1058AC0090710D0007B5002300931A466FF0770135
:1058BC00FFF7BAFB03B05DF804FB000007B54388A3
:1058CC000A2B08D0502B0BD1094B1B684BB103B0E2
:1058DC005DF804EB1847FFF7E5FF03B05DF804FB38
:1058EC00002300931A466FF07701FFF79DFBF4E756
:1058FC008CE6032038B5124C1248134D0021FFF7EB
:10590C004DFC2368AB42114B0CBF012200221A70D4
:10591C0002D0FFF7BBFF2560FFF704FA044601F045
:10592C002BF80B4B13B12046AFF300800021084835
:10593C00FFF704FCBDE8384006480021FFF76ABBBE
:10594C0000F4032041580D001E1C279A88E6032002
:10595C0000000000C9580D00704710B5182104460E
:10596C0000F099FB204610BDF0B5037D062B8DB0E1
:10597C000E4600F104074FF0000412D000F10805A8
:10598C0015F8011D0A223046FFF741FEAF420444D0
:10599C0019D0002CF4D02E213046FFF729FE0444F8
:1059AC00EEE72F236A4639460A208DF80040FFF7B0
:1059BC00F1F9684601F00CF833680246DB68694679
:1059CC0030469847044620460DB0F0BD10B5054B47
:1059DC000446112240F8043B002100F0C5FF20468C
:1059EC0010BD00BFF86F0D000346074A10B543F811
:1059FC00042B01F1100251F8044B43F8044B914273
:105A0C00F9D10A781A7010BDF86F0D0010B59DF819
:105A1C00084044EA032343EA024242EA01610423B8
:105A2C004160037510BD000013B5054B0360CB78C6
:105A3C0000938B784A780978FFF7E8FF02B010BD25
:105A4C00F86F0D0041747047704708B50021007C59
:105A5C00FFF7A0FA40EAE07008BD08B50121007C10
:105A6C00FFF798FA40EAE07008BD08B5007CFFF734
:105A7C0089FA20EAE07008BD08B5007CFFF77AFAD5
:105A8C0020EAE07008BD13B50446007C0191FFF7D5
:105A9C0079FA0028019901DC607C20B1207CFFF7A9
:105AAC0081FA20EAE07002B010BD007CFFF782BAE8
:105ABC0010B51421044600F0EEFA204610BD00008B
:105ACC0010B54FF47A73044608460021C4E901135B
:105ADC00044B23600123207463741146FFF742FAD0
:105AEC00204610BD0C700D0010B514220446002188
:105AFC0000F03AFF204610BD10B5104C88B003A83A
:105B0C00FFF7F2FF2178BFF35B8F11F0010111D188
:105B1C0020460191FEF7C6FA019958B103AA08482C
:105B2C00FFF7CEFF2046FEF7C2FA064A06490448A4
:105B3C0000F0ACFA024808B010BD00BF90E603209C
:105B4C0094E6032008E60320555A0D007047417473
:105B5C00704708B5007CFFF75DF920EAE07008BDDE
:105B6C0008B5007CFFF72EF920EAE07008BD08B5F7
:105B7C00007CFFF737F940EAE07008BD08B5007CFF
:105B8C00FFF728F940EAE07008BD007CFFF732B956
:105B9C0037B5457C04462DB1207C03B0BDE83040C0
:105BAC00FFF708B9007C0191FFF734F9002801993F
:105BBC00F2DC284603B030BD10B51421044600F0C9
:105BCC006AFA204610BD000010B54FF0000C0446D8
:105BDC00084611464FF47A72C4E901C2044A2260A5
:105BEC000122207462741A46FFF7DCF8204610BDBF
:105BFC003C700D0013B50E4C2178BFF35B8F11F088
:105C0C00010112D120460191FEF74CFA019960B1C5
:105C1C00084A094B0948FFF7D7FF2046FEF747FA19
:105C2C00074A0849054800F031FA044802B010BD93
:105C3C00A8E60320ACE6032030E70320B4E70320FA
:105C4C0008E60320595B0D007047F8B5064615466B
:105C5C000C468F18BC4206D0336814F8011B9B68A5
:105C6C0030469847F6E72846F8BD007C0022FFF73F
:105C7C00F1B8007C0021FFF7F5B8007C0021FFF79C
:105C8C00F9B8007C0021FFF7FDB8007C0021FFF77C
:105C9C0001B910B51421044600F0FDF9204610BDE1
:105CAC0010B54FF47A73044608460021C4E9011379
:105CBC00034B236020741146FFF7FCF8204610BDFF
:105CCC006C700D000023007C1A461946FFF7AAB829
:105CDC00007C0022FFF7AEB8C9B2FFF7F9BF007C19
:105CEC000022FFF7AFB80121FFF7F9BF002240688F
:105CFC001146FFF7BBB9002240681146FFF7D6B931
:105D0C00002240681146FFF7E1B940680022FFF716
:105D1C00D5B94068002281F00101FFF7BFB900231B
:105D2C0040681A461946FFF7B1B90022406811467F
:105D3C00FFF78CB9406800220221FFF78FB90023CE
:105D4C0040681A46FFF77AB9024B04225A60024A9D
:105D5C001A607047C8E7032094700D000023406858
:105D6C001A46FFF76BB9406800220221FFF776B99B
:105D7C00002240681146FFF769B9002240681146BD
:105D8C00FFF774B9002340681A461946FFF776B935
:105D9C00002340681A461946FFF778B9406800217D
:105DAC00FFF79CB940680021FFF7A0B940680022BA
:105DBC0081F00101FFF772B940680022FFF77EB94C
:105DCC00002240681146FFF781B900224068114655
:105DDC00FFF76CB92DE9F043002495B016460D463B
:105DEC000746FFF7F3FD214618220EA8009400F099
:105DFC00BBFD4023CDE90C3421466B460CAA304642
:105E0C00FEF760FF044600284CD102460121686869
:105E1C00FFF72CF90221804622466868FFF726F925
:105E2C00009E81462146002E3CD000293AD1736851
:105E3C00022B03D00A2B11D0F669F4E7B8F1000F4E
:105E4C000AD0716906A8043107ADFFF7EDFD0FCD3F
:105E5C003C1D0FC42B6823704146EDE7B9F1000FD0
:105E6C0001D14946E8E77469102201A800F07CFDD5
:105E7C0006238DF8143001AD04F1080318341868AA
:105E8C0059682A4603C20833A3421546F7D101A923
:105E9C0006A807ADFFF7A8FD0FCD3C1D0FC42B685E
:105EAC002370DEE70098FEF705FF384615B0BDE815
:105EBC00F0830000024B034A1A6000225A607047BC
:105ECC00D0E70320D0700D00232813B502D9002091
:105EDC0002B010BDA0F10B03022B1AD8174C21787D
:105EEC00BFF35B8F11F001010BD120460191FEF73E
:105EFC00D9F8019928B11248FFF7A4F92046FEF70A
:105F0C00D6F80F4B1878FFF70DF80028DFD10120D9
:105F1C00DEE7012809D800F091F80021007CFEF79B
:105F2C00C1FF80F00100C0B2D2E709380128EED8D9
:105F3C00FFF760FE007CFEF765FFF2E738E6032012
:105F4C003CE60320232838B504460D460AD8FF2921
:105F5C0008D0FFF7B9FF28B129462046BDE83840E4
:105F6C00FEF7C0BE38BD38B504460D46FEF7C2FE7E
:105F7C00FF2810D0062804D84D2323FA00F0C307BD
:105F8C0009D42046FFF7A0FF28B129462046BDE8DA
:105F9C003840FEF7B7BE38BD0D2810B504469CBF7F
:105FAC000E34A4B22046FFF78FFF50B103212046D8
:105FBC00FEF790FE032804D12046BDE81040FEF702
:105FCC00A9BE002010BD2DE9F04190461F460024CB
:105FDC0006460D46B8F1000F13D147FA04F101F053
:105FEC0001013046FFF7BFFF01212846FFF7BBFF39
:105FFC00013400212846FFF7B6FF082CEAD1BDE892
:10600C00F081C4F1070147FA01F1E8E738B5002344
:10601C0020254380142304460380856005610649CE
:10602C00284600F03AF804496060284600F035F83C
:10603C00E060204638BD00BF04710D0030B50F4D37
:10604C002978BFF35B8F11F0010487B013D1284678
:10605C00FEF728F878B101A8FFF7D8FF01AA21466E
:10606C000748FFF71DFE2846FEF721F8054A0649AA
:10607C00034800F00BF8024807B030BDDCE7032002
:10608C00E0E7032008E60320555C0D000B460146B3
:10609C00184600F04DBCFDF7F8BFFDF7F4BF00004B
:1060AC0081F0004102E000BF83F0004330B54FEABD
:1060BC0041044FEA430594EA050F08BF90EA020F2A
:1060CC001FBF54EA000C55EA020C7FEA645C7FEABD
:1060DC00655C00F0E2804FEA5454D4EB5555B8BFE0
:1060EC006D420CDD2C4480EA020281EA030382EA51
:1060FC00000083EA010180EA020281EA0303362DE3
:10610C0088BF30BD11F0004F4FEA01314FF4801CB5
:10611C004CEA113102D0404261EB410113F0004FC7
:10612C004FEA03334CEA133302D0524263EB43037E
:10613C0094EA050F00F0A780A4F10104D5F1200E1C
:10614C000DDB02FA0EFC22FA05F2801841F1000177
:10615C0003FA0EF2801843FA05F359410EE0A5F14B
:10616C0020050EF1200E012A03FA0EFC28BF4CF07C
:10617C00020C43FA05F3C01851EBE37101F0004532
:10618C0007D54FF0000EDCF1000C7EEB00006EEB3F
:10619C000101B1F5801F1BD3B1F5001F0CD34908C9
:1061AC005FEA30004FEA3C0C04F101044FEA445220
:1061BC0012F5800F80F09A80BCF1004F08BF5FEAA7
:1061CC00500C50F1000041EB045141EA050130BD87
:1061DC005FEA4C0C404141EB0101013C28BFB1F599
:1061EC00801FE9D291F0000F04BF01460020B1FAE4
:1061FC0081F308BF2033A3F10B03B3F120020CDAB7
:10620C000C3208DD02F1140CC2F10C0201FA0CF094
:10621C0021FA02F10CE002F11402D8BFC2F1200CF9
:10622C0001FA02F120FA0CFCDCBF41EA0C019040AF
:10623C00E41AA2BF01EB0451294330BD6FEA0404F8
:10624C001F3C1CDA0C340EDC04F11404C4F12002E3
:10625C0020FA04F001FA02F340EA030021FA04F3F5
:10626C0045EA030130BDC4F10C04C4F1200220FA4C
:10627C0002F001FA04F340EA0300294630BD21FA8A
:10628C0004F0294630BD94F0000F83F4801306BF50
:10629C0081F480110134013D4EE77FEA645C18BF44
:1062AC007FEA655C29D094EA050F08BF90EA020FDB
:1062BC0005D054EA000C04BF1946104630BD91EAD3
:1062CC00030F1EBF0021002030BD5FEA545C05D1D6
:1062DC004000494128BF41F0004130BD14F5800415
:1062EC003CBF01F5801130BD01F0004545F0FE4189
:1062FC0041F470014FF0000030BD7FEA645C1ABFBE
:10630C00194610467FEA655C1CBF0B46024650EAF4
:10631C00013406BF52EA033591EA030F41F4002120
:10632C0030BD00BF90F0000F04BF0021704730B5A6
:10633C004FF4806404F132044FF000054FF000017B
:10634C0050E700BF90F0000F04BF0021704730B53C
:10635C004FF4806404F1320410F0004548BF404211
:10636C004FF000013EE700BF42004FEAE2014FEA66
:10637C0031014FEA02701FBF12F07F4393F07F4F41
:10638C0081F06051704732F07F4208BF704793F044
:10639C007F4F04BF41F40021704730B54FF4607457
:1063AC0001F0004521F000411CE700BF50EA01025A
:1063BC0008BF704730B54FF000050AE050EA010203
:1063CC0008BF704730B511F0004502D5404261EB73
:1063DC0041014FF4806404F132045FEA915C3FF4B4
:1063EC00D8AE4FF003025FEADC0C18BF03325FEA51
:1063FC00DC0C18BF033202EBDC02C2F1200300FA02
:10640C0003FC20FA02F001FA03FE40EA0E0021FA26
:10641C0002F11444BDE600BF70B54FF0FF0C4CF414
:10642C00E06C1CEA11541DBF1CEA135594EA0C0FC6
:10643C0095EA0C0F00F0DEF82C4481EA030621EA01
:10644C004C5123EA4C5350EA013518BF52EA03353C
:10645C0041F4801143F4801338D0A0FB02CE4FF0EE
:10646C000005E1FB02E506F00042E0FB03E54FF01E
:10647C000006E1FB03569CF0000F18BF4EF0010E16
:10648C00A4F1FF04B6F5007F64F5407404D25FEA12
:10649C004E0E6D4146EB060642EAC62141EA5551C5
:1064AC004FEAC52040EA5E504FEACE2EB4F1FD0C07
:1064BC0088BFBCF5E06F1ED8BEF1004F08BF5FEA85
:1064CC00500E50F1000041EB045170BD06F0004637
:1064DC0046EA010140EA020081EA0301B4EB5C04E4
:1064EC00C2BFD4EB0C0541EA045170BD41F48011DC
:1064FC004FF0000E013C00F3AB8014F1360FDEBF01
:10650C00002001F0004170BDC4F10004203C35DADC
:10651C000C341BDC04F11404C4F1200500FA05F35F
:10652C0020FA04F001FA05F240EA020001F0004200
:10653C0021F0004110EBD37021FA04F642EB060176
:10654C005EEA430E08BF20EAD37070BDC4F10C04A0
:10655C00C4F1200500FA04F320FA05F001FA04F264
:10656C0040EA020001F0004110EBD37041F1000150
:10657C005EEA430E08BF20EAD37070BDC4F120055B
:10658C0000FA05F24EEA020E20FA04F301FA05F2C3
:10659C0043EA020321FA04F001F0004121FA04F26B
:1065AC0020EA020000EBD3705EEA430E08BF20EA3B
:1065BC00D37070BD94F0000F0FD101F00046400075
:1065CC0041EB010111F4801F08BF013CF7D041EAF7
:1065DC00060195F0000F18BF704703F000465200FB
:1065EC0043EB030313F4801F08BF013DF7D043EACC
:1065FC000603704794EA0C0F0CEA135518BF95EA82
:10660C000C0F0CD050EA410618BF52EA4306D1D108
:10661C0081EA030101F000414FF0000070BD50EA27
:10662C00410606BF1046194652EA430619D094EAB1
:10663C000C0F02D150EA013613D195EA0C0F05D19B
:10664C0052EA03361CBF104619460AD181EA0301EF
:10665C0001F0004141F0FE4141F470014FF00000A7
:10666C0070BD41F0FE4141F4780170BD70B54FF042
:10667C00FF0C4CF4E06C1CEA11541DBF1CEA1355C2
:10668C0094EA0C0F95EA0C0F00F0A7F8A4EB0504A4
:10669C0081EA030E52EA03354FEA013100F088809B
:1066AC004FEA03334FF0805545EA131343EA126364
:1066BC004FEA022245EA111545EA10654FEA002619
:1066CC000EF000419D4208BF964244F1FD0404F5D2
:1066DC00407402D25B084FEA3202B61A65EB03052E
:1066EC005B084FEA32024FF480104FF4002CB6EBEB
:1066FC00020E75EB030E22BFB61A754640EA0C006B
:10670C005B084FEA3202B6EB020E75EB030E22BFAA
:10671C00B61A754640EA5C005B084FEA3202B6EBEB
:10672C00020E75EB030E22BFB61A754640EA9C00AA
:10673C005B084FEA3202B6EB020E75EB030E22BF7A
:10674C00B61A754640EADC0055EA060E18D04FEA38
:10675C00051545EA16754FEA06164FEAC30343EAD8
:10676C0052734FEAC2025FEA1C1CC0D111F4801FA5
:10677C000BD141EA00014FF000004FF0004CB6E79E
:10678C0011F4801F04BF01430020B4F1FD0C88BF3D
:10679C00BCF5E06F3FF6AFAEB5EB030C04BFB6EB48
:1067AC00020C5FEA500C50F1000041EB045170BD3B
:1067BC000EF0004E4EEA113114EB5C04C2BFD4EB68
:1067CC000C0541EA045170BD41F480114FF0000EEC
:1067DC00013C90E645EA060E8DE60CEA135594EA68
:1067EC000C0F08BF95EA0C0F3FF43BAF94EA0C0F6B
:1067FC000AD150EA01347FF434AF95EA0C0F7FF4E0
:10680C0025AF104619462CE795EA0C0F06D152EA33
:10681C0003353FF4FDAE1046194622E750EA410617
:10682C0018BF52EA43067FF4C5AE50EA41047FF428
:10683C000DAF52EA43057FF4EBAE12E74A0011D2DA
:10684C0012F5001211D20DD56FF47873B3EB6252BE
:10685C000ED44FEAC12343F0004343EA505323FACA
:10686C0002F070474FF00000704750EA013002D13F
:10687C004FF0FF3070474FF00000704707EE900A62
:10688C00F5EEC07AF1EE10FA01D400F00BB8F1EE8F
:10689C00677A08B517EE900A00F004F8404261EBF5
:1068AC00410108BDD0B5FFF75FFD0C4B0022064639
:1068BC000F46FFF7B1FDFFF7C1FF0446FFF732FDAE
:1068CC00074B0022FFF7A8FD02460B46304639461F
:1068DC00FFF7EAFBFFF7B2FF2146D0BD0000F03D09
:1068EC000000F04110B50C4641690369826986B01D
:1068FC0001F26C7104910168039141680291816805
:10690C000191C1680091074903EB43030B4406490D
:10691C0002EB42020A4420460449FEF72FFC2046B3
:10692C0006B010BD3A710D0025710D0005710D00FA
:10693C0010B5054C13462CB10A4601460220AFF3A4
:10694C00008010BD2046FCE7000000000A44914284
:10695C0000F1FF3300D1704710B511F8014B03F86B
:10696C00014F9142F9D110BD02440346934200D12C
:10697C00704703F8011BF9E738B50D4B1D68AB6B7D
:10698C0004467BB91820FEF7E1FB0A4A0A4BA863C0
:10699C00C0E90023094B83600B2383810122002370
:1069AC00C0E90423AB6B00221C615A6138BD00BFE7
:1069BC00A0E503200E33CDAB34126DE6ECDE050002
:1069CC00034611F8012B03F8012B002AF9D170476B
:1069DC00034613F8012B002AFBD1181A0138704713
:1069EC001D400D0059400D0081400D0085400D00EB
:1069FC000000000054696D652069732025730A003E
:106A0C004D6F6973757265204C6576656C20697382
:106A1C00202569000000000000000000C1400D00AE
:106A2C0001420D00354C0D00AD550D0015450D0006
:106A3C004D490D00A5430D0039420D00094A0D00CA
:106A4C00A74A0D00DD4A0D00F94A0D0000000000B8
:106A5C00003E5B4F5B3E3E6B4F6B3E1C3E7C3E1CD8
:106A6C00183C7E3C181C577D571C1C5E7F5E1C001E
:106A7C00183C1800FFE7C3E7FF0018241800FFE7D5
:106A8C00DBE7FF30483A060E2629792926407F0598
:106A9C000507407F05253F5A3CE73C5A7F3E1C1CAE
:106AAC0008081C1C3E7F14227F22145F5F005F5F6E
:106ABC0006097F017F006689956A6060606060945A
:106ACC00A2FFA29408047E040810207E201008085F
:106ADC002A1C08081C2A08081E101010100C1E0C6A
:106AEC001E0C30383E3830060E3E0E0600000000FC
:106AFC000000005F00000007000700147F147F14E3
:106B0C00242A7F2A12231308646236495620500027
:106B1C0008070300001C2241000041221C002A1C13
:106B2C007F1C2A08083E08080080703000080808FE
:106B3C000808000060600020100804023E5149451E
:106B4C003E00427F400072494949462141494D333C
:106B5C001814127F1027454545393C4A49493141A3
:106B6C00211109073649494936464949291E000071
:106B7C0014000000403400000008142241141414C6
:106B8C001414004122140802015909063E415D59B2
:106B9C004E7C1211127C7F494949363E41414122BB
:106BAC007F4141413E7F494949417F090909013EE5
:106BBC00414151737F0808087F00417F410020400C
:106BCC00413F017F081422417F404040407F021C1E
:106BDC00027F7F0408107F3E4141413E7F09090935
:106BEC00063E4151215E7F09192946264949493201
:106BFC0003017F01033F4040403F1F2040201F3FC7
:106C0C004038403F6314081463030478040361594B
:106C1C00494D43007F41414102040810200041418D
:106C2C00417F040201020440404040400003070839
:106C3C000020545478407F28444438384444442835
:106C4C00384444287F385454541800087E090218DC
:106C5C00A4A49C787F0804047800447D4000204064
:106C6C00403D007F1028440000417F40007C0478A8
:106C7C0004787C080404783844444438FC182424F0
:106C8C001818242418FC7C08040408485454542470
:106C9C0004043F44243C4040207C1C2040201C3CED
:106CAC004030403C44281028444C9090907C4464E4
:106CBC00544C440008364100000077000000413677
:106CCC00080002010204023C2623263C1EA1A161FD
:106CDC00123A4040207A385454555921555579412F
:106CEC002154547841215554784020545579400C06
:106CFC001E527212395555555939545454593955E7
:106D0C005454580000457C410002457D4200014529
:106D1C007C40F0292429F0F0282528F07C54554596
:106D2C00002054547C547C0A097F49324949493229
:106D3C003248484832324A4848303A4141217A3A3E
:106D4C0042402078009DA0A07D39444444393D4008
:106D5C0040403D3C24FF2424487E4943662B2FFCB5
:106D6C002F2BFF0929F620C0887E09032054547963
:106D7C00410000447D413048484A32384040227A34
:106D8C00007A0A0A727D0D19317D2629292F2826B1
:106D9C002929292630484D402038080808080808B9
:106DAC000808382F10C8ACBA2F102834FA00007B12
:106DBC00000008142A142222142A1408AA005500D0
:106DCC00AAAA55AA55AA000000FF00101010FF0037
:106DDC00141414FF001010FF00FF1010F010F0142A
:106DEC001414FC001414F700FF0000FF00FF14142F
:106DFC00F404FC141417101F10101F101F1414147B
:106E0C001F00101010F0000000001F101010101FB9
:106E1C0010101010F010000000FF101010101010C7
:106E2C00101010FF10000000FF140000FF00FF0006
:106E3C00001F10170000FC04F4141417101714147E
:106E4C00F404F40000FF00F714141414141414F7D1
:106E5C0000F7141414171410101F101F141414F42A
:106E6C00141010F010F000001F101F0000001F1471
:106E7C00000000FC140000F010F01010FF10FF14C4
:106E8C001414FF141010101F00000000F010FFFF6E
:106E9C00FFFFFFF0F0F0F0F0FFFFFF00000000003C
:106EAC00FFFF0F0F0F0F0F38444438447C2A2A3E43
:106EBC00147E02020606027E027E0263554941637D
:106ECC003844443C04407E201E2006027E02029977
:106EDC00A5E7A5991C2A492A1C4C7201724C304A10
:106EEC004D4D303048784830BC625A463D3E494999
:106EFC0049007E0101017E2A2A2A2A2A44445F4441
:106F0C004440514A444040444A51400000FF010370
:106F1C00E080FF000008086B6B083612362436063A
:106F2C000F090F0600001818000000101000304068
:106F3C00FF0101001F01011E00191D1712003C3C2E
:106F4C003C3C0000000000000000000000000000BD
:106F5C000000000000000000354C0D00AD550D0088
:106F6C009D400D004D490D00714A0D008D4A0D00DC
:106F7C00094A0D00A74A0D00DD4A0D00F94A0D0023
:106F8C00000000000000000027520D001D520D00F3
:106F9C0013520D0009520D00FD510D00F1510D0061
:106FAC00A95D0D00B15D0D00E5510D00DD510D0029
:106FBC00D3510D00C9510D00E15D0D0000081018F2
:106FCC00202830386170700025592D256D2D2564D1
:106FDC005425483A254D3A2553257A00617363743C
:106FEC00696D6500000000000000000075590D007F
:106FFC0065590D0067590D000000000000000000ED
:10700C00555A0D00BD5A0D00935A0D00AD550D008B
:10701C00855A0D00575A0D00675A0D00B75A0D00CE
:10702C00775A0D00515A0D000000000000000000BE
:10703C00595B0D00C55B0D009D5B0D00AD550D0042
:10704C006D5B0D00895B0D007B5B0D00975B0D008C
:10705C005B5B0D005F5B0D0000000000000000009A
:10706C00555C0D009F5C0D00775C0D00575C0D00AE
:10707C007F5C0D00875C0D008F5C0D00975C0D0034
:10708C0000000000000000004B5D0D00415D0D0094
:10709C00375D0D00F95C0D00B9560D002B5D0D0030
:1070AC00A95D0D00B15D0D001F5D0D00175D0D009C
:1070BC000D5D0D00035D0D00E15D0D000000000095
:1070CC0000000000695D0D00735D0D007D5D0D001D
:1070DC00875D0D00915D0D009D5D0D00A95D0D009E
:1070EC00B15D0D00B95D0D00C55D0D00CD5D0D00F0
:1070FC00D75D0D00E15D0D0000252E337320252E8C
:10710C00337325336420252E32643A252E32643AAB
:10711C00252E32642025640A0053756E4D6F6E5413
:10712C0075655765645468754672695361744A6134
:10713C006E4665624D61724170724D61794A756E31
:10714C004A756C4175675365704F63744E6F764426
:10715C006563000011420D0031520D00DD530D002E
:10716C0085550D00C5560D00FD570D0025580D0019
:10717C00555D0D00C15E0D00000000000000000018
:04718C0000000000FF
:0471900000000000FB
:10719400000103070F1F3F7F0080C0E0F0F8FCFEF2
:1071A40000000000000000000000000000000000DB
:1071B40000000000000000000000000000000000CB
:1071C40000000000000000000000000000000000BB
:1071D400000000000000000000000000000000802B
:1071E400808000000000000000000000000000009B
:1071F400008080C0C000000000000000000000000B
:10720400000000000000000000000000000000007A
:10721400000000000000000000000000000000006A
:10722400000000000000000000000000000000005A
:107234000000000080C0E0F0F8FCF8E0000000006E
:1072440000000000000000000000000000808080BA
:10725400808000808000000000808080808000FFAB
:10726400FFFF00000000808080800000808000001C
:1072740080FFFF808000808000808080800080808C
:107284000000000000808000008C8E84000080F8E4
:10729400F8F880000000000000000000000000007A
:1072A400F0F0F0F0F0F0F0F0F0F0F0F0E0E0C0809A
:1072B40000E0FCFEFFFFFF7FFFFFFFFFFF00000079
:1072C4000000000000000000000000FEFFC70101F4
:1072D400010183FFFF00007CFEC70101010183FF60
:1072E400FFFF0038FEC78301010183C7FFFF0000D1
:1072F40001FFFF010100FFFF0701010100007FFF03
:1073040080000000FFFF7F0000FFFFFF000001FF7F
:10731400FFFF01000000000000000000000000006A
:10732400030F3F7F7FFFFFFFFFFFFFFFE7C7C78F0D
:107334008F9FBFFFFFC3C0F0FFFFFFFFFFFCFCFCFC
:10734400FCFCFCFCFCF8F8F0F0E0C00001030303D3
:10735400030301030300000000010303030301010D
:107364000301000000010303030301010303000000
:1073740000030300000003030000000000000001FC
:1073840003030303030100000001030100000003E1
:1073940003010000000000000000000000000000E5
:1073A40000000080C0E0F0F9FFFFFFFFFF3F1F0F68
:1073B40087C7F7FFFF1F1F3DFCF8F8F8F87C7DFF37
:1073C400FFFFFFFFFFFFFF7F3F0F0700303000008C
:1073D40000000000000000000000000000000000A9
:1073E40000000000FEFEFC000000000000000000A1
:1073F40000000000000000000000000000E0C000E9
:107404000000000000000000000030300000000018
:107414000000000000000000000000000000000068
:1074240000C0FEFFFFFFFFFFFFFFFFFF7F7F3F1F47
:107434000F071F7FFFFFF8F8FFFFFFFFFFFEF8E0D5
:10744400000000010000000000000000FEFE00003B
:1074540000FCFEFC0C06060EFCF80000F0F81C0E06
:107464000606060CFFFFFF0000FEFE00000000FC05
:10747400FEFC00183C7E66E6CE84000006FFFF0694
:1074840006FCFEFC0C0606060000FEFE0000C0F82A
:10749400FC4E4646464E7C7840183C76E6CECC8080
:1074A40000000000000000000000000000000000D8
:1074B4000000000001070F1F1F3F3F3F3F1F0F0346
:1074C4000000000000000000000000000F0F00009A
:1074D400000F0F0F000000000F0F000003070E0C39
:1074E40018180C060F0F0F0000010F0E0C180C0FCC
:1074F400070100040E0C180C0F070000000F0F000A
:10750400000F0F0F0000000000000F0F0000000725
:10751400070C0C181C0C060600040E0C180C0F07A4
:107524000000000000000000000000000000000057
:107534000000000000000000000000000000000047
:107544000000000000000000000000000000000037
:107554000000000000000000000000000000000027
:107564000000000000000000000000000000000017
:107574000000000000000000000000000000000007
:1075840000000000000000000000000000000000F7
:1075940000000000000000000000000000000000E7
:1075A400E86F0D00A4E503200000000000000000C7
:1075B40000000000000000000000000000000000C7
:1075C40000000000000000000000000000000000B7
:1075D40000000000000000000000000000000000A7
:1075E4000000000000000000000000000000000097
:1075F4000000000000000000000000000000000087
:0876040000000000000000007E
:10760C00FFFFFFFF00000102030405060708090A3B
:10761C000B0C0D0E0F101112131415161718191A36
:08762C001B1C1D1E1F2028007D
:04763400785634123E
:04000003D000401CCD
:00000001FF
